:020000022000DC
:1060000000000420756302005D6302005F6302000C
:106010006163020063630200656302000000000028
:1060200000000000000000000000000067630200A4
:1060300069630200000000006B6302006D630200F0
:106040002D9302006F630200E59702006F63020068
:106050006F6302006F630200399602006F630200F3
:106060006F6302006F6302006F6302006F630200E0
:106070006F630200059902006F6302006F63020004
:106080006F630200016D02006F6302006F63020024
:106090009D6D02006F630200C11003006F63020078
:1060A0006F6302006F6302006F6302006F630200A0
:1060B0006F6302006F630200000000000000000038
:1060C0006F6302006F6302006F6302006F63020080
:1060D0006F6302006F6302006F6302006F63020070
:1060E0006F6302006F630200993E0300000000002E
:1060F000000000006F630200000000006F630200F8
:10610000000000000000000000000000000000008F
:10611000000000000000000000000000000000007F
:10612000000000000000000000000000000000006F
:10613000000000000000000000000000000000005F
:10614000000000000000000000000000000000004F
:10615000000000000000000000000000000000003F
:10616000000000000000000000000000000000002F
:10617000000000000000000000000000000000001F
:10618000000000000000000000000000000000000F
:1061900000000000000000000000000000000000FF
:1061A00000000000000000000000000000000000EF
:1061B00000000000000000000000000000000000DF
:1061C00000000000000000000000000000000000CF
:1061D00000000000000000000000000000000000BF
:1061E00000000000000000000000000000000000AF
:1061F000000000000000000000000000000000009F
:10620000354936480A1A02D0072291438D4634494F
:1062100034480A1A06D00722914381F309880222E2
:1062200082F3148830483149314A00F044F831484B
:106230003149324A00F03FF831483249324A00F0E1
:106240003AF832483249334A00F035F83248334997
:10625000334A00F030F833483349344A00F02BF821
:1062600033483449344A00F026F83448344900228F
:1062700000F02CF833483449002200F027F8334866
:106280003349091A082902DB002202604160314AC1
:1062900090471F481F49884205D00268043003B464
:1062A000904703BCF7E700208646EC46002000211B
:1062B000294A9047FEE7884207D0521A05D0037852
:1062C00001300B700131013AF9D17047884202D098
:1062D00002700130FAE770470000042000E003205C
:1062E00000000420000004201CD40300EC2A00203D
:1062F000042E0020D4630200D4630200A47C0300B7
:106300001CD40300EC2A0020EC2A00207C7E030031
:106310007C7E03007C7E03007C7E03007C7E030089
:106320007C7E03007C7E03007C7E03001CD4030083
:1063300034D70300042E0020042E0020042E002059
:106340007C6C00207C6C00207C6C00207C6C00202D
:106350007C8C00209D63020079B60200FEE7FEE718
:10636000FEE7FEE7FEE7FEE7FEE7FEE7FEE7FEE705
:10637000704700BF1048804710484FF0070188431E
:1063800085460F4880470F48016841F4700101605D
:10639000BFF34F8FBFF36F8FFFF732BF0A480B4930
:1063A0000B4A884207D0521A05D0037801300B708F
:1063B0000131013AF9D170477163020000000420F5
:1063C0007DB8020088ED00E0687E0300D82A002036
:0463D000EC2A002093
:1063D400022003F073BF00002DE9F04781460D460B
:1063E40003F09AFF0328044604D8012D04D025B3F2
:1063F400022D2FD0BDE8F087194D47003A18A9188F
:10640400AE5C4A7852B1DFF86880164842464FF4D1
:10641400004100F05FFE08B988F800903B192B4456
:106424009A78114B1A55002EE4D0104B1B68002BA0
:10643400E0D03046BDE8F04718470A4800F090FE27
:10644400074B04EB440213449E78074B1B5DB34295
:10645400D0D1E8E7024B00EB40041C446678E2E745
:10646400682E0020282E0020812E00207C2E002063
:10647400042E002002210078FFF7AEBF08B5094BB7
:106484001B7853B1002003F0E7FE012003F0E4FE83
:106494000320BDE8084003F0DFBEBDE8084003F078
:1064A400EFBE00BF052E0020F8B57B4C23780546CF
:1064B4001BB100232370FFF7E1FF172D00F2888042
:1064C400DFE805F00C17174354657680888D888DB6
:1064D400959A9A9A9A9AC4C9D1D9E4E4FFF7CEFF5F
:1064E4006E4800F03DFE6E4B002204461A702046B2
:1064F400F8BD002003F088FEF8B1002003F0ACFEE4
:10650400022D0CBF4FF4E1614FF47A61644B1D70AE
:106514004FF400404FF4FA740025E0FB01454FF4BA
:106524007A720023204629460AF03CFF00220146E5
:106534005A48BDE8F84000F0CDBD03F079FE022DC5
:106544000CBFC8214FF4C871E0E7002003F05CFEE3
:1065540040B1002003F080FE4FF44871504B0322F9
:106564001A70D5E703F064FEC821F7E7002003F0B2
:106574004BFE38B1002003F06FFE4FF47A61484BB4
:106584000422EDE703F054FE4FF4C871F7E700204E
:1065940003F03AFE48B1002003F05EFE404B0522B2
:1065A4001A7041F69A110022C2E703F041FEF5E7A2
:1065B400002003F083FE3A4B06221A70002240F6B4
:1065C400CD41B5E7002003F033FE354B07221A70A6
:1065D40000248CE70120207003F070FEEEE7012018
:1065E400207003F06BFE00224FF48041A0E703F01B
:1065F40056FE2B4B0C22EAE72A482B4E00F0B0FD46
:10660400D5F1110504461CD0D8B9012D13D0C823E7
:106614005D434FF400474FF4FA7000214FF47A724F
:106624000023C7FB05010AF0BDFE224601461D48B2
:1066340000F050FD0446022003F0FAFD01233370FC
:1066440055E7022003F008FE0023F8E7FFF716FFE2
:10665400134B1222BBE7FFF711FF002003F0E8FD04
:106664000F4B1322B3E7FFF709FF012003F0E0FD0E
:106674000B4B1422ABE7FFF701FF002003F0D8FD1A
:10668400012003F0D5FD064B1522A0E703F007FE19
:10669400034B1D709CE700BF782E0020482E00207D
:1066A400802E0020082E0020052E0020044B1B689D
:1066B400DB0703D5034B1878FFF7F6BE704700BF1E
:1066C400742E0020802E0020002910B514BF03244E
:1066D400002403F033FE1F288ABF0A4B4FF0A04367
:1066E40000F01F0003EB8000D0F8002722F44032B2
:1066F400C0F80027D0F8003743EA0443C0F8003755
:10670400002010BD00030050032801D803F0F0BDA1
:1067140000207047044B1B6813F0010301D0FFF7FE
:10672400C3BE1846704700BF742E002038B51C4BFA
:1067340018601C4B10F00204054619601AD01A4B5D
:106744001A480E221A700F22DA7010229A7111223E
:106754005A72042140F2666200F0B8F9044648B95E
:1067640000F008FA044628B90146114A114800F01D
:106774009FFC0446EB0711D5012003F0E5FD6CB93D
:1067840021460D4A0D4800F093FC044630B90C4AEA
:106794000C480121BDE8384000F08ABC204638BDD1
:1067A400742E00207C2E0020682E00207C7E0300A6
:1067B40079640200A07E0300B1660200A47E030097
:1067C400D56302009C7E0300032813D8012A0BD151
:1067D400012908D100F10E02D2B200EB40000C4BAB
:1067E4001A540020704700220129F6D04BB24BB155
:1067F400022901D007207047054B00EB40001844E4
:106804004270EEE7024900EB400008448270E8E77A
:10681400682E0020032802D80121FFF755BF062067
:10682400704708B5012202210020FFF7CDFF08B10F
:10683400072810D1072202210120FFF7C5FF08B164
:10684400072808D100210A220846FFF7BDFF10B12E
:10685400072808BF002008BD0388102B10B502D0FC
:10686400112B1ED010BD1A4C2168B1B90122084663
:10687400FFF7AAFF08B1072824D10722022101202B
:10688400FFF7A2FF08B107281CD10422022100202F
:10689400FFF79AFF08B1072814D123680133236056
:1068A400E0E70B4A1368013B1360002BDAD1FFF7D2
:1068B400B8FF0028D6D0074B1B68002BD2D0BDE808
:1068C40010401847034B1B68002BE6D09847E4E7B9
:1068D4008C2E0020882E002008B50020FFF79AFF98
:1068E40008B1062806D10120FFF794FF10B106284D
:1068F40008BF002008BD00000D4B10B518600C4601
:1069040029B10120FFF700FF40B102232370094B96
:106914001B6853B9BDE81040FFF783BFFFF7F4FECF
:1069240008B10B23F2E72070F1E7002010BD00BF8F
:10693400882E00208C2E00202DE9F04F394E87B090
:106944004FF00009384B1B785FFA89F5AB4202D847
:1069540007B0BDE8F08F354BD3F800A01AF8350026
:106964000124D6E9001EA0F12002C0F1200304FA9C
:1069740002F224FA03F3134304FA00FC009301EA3D
:106984000C030293009B0EEA03030393DDE9022345
:1069940013430AEBC50B41D0009B21EA0C012EEAFC
:1069A4000303C6E9001302F037FE1AF835502049F4
:1069B400A5F12002C5F1200304FA02F224FA03F33C
:1069C4001343D1E900C2AC40134004EA0C0105931F
:1069D4000024C3B2CDE90034009A0491C5F1200328
:1069E400A5F1200122FA03F302FA01F848EA0308A8
:1069F4001346AB401F46DDE90434444508BFBB429F
:106A04000CD1DBF804304BB19BF801104A1E514203
:106A14005141081A414241412846984709F1010968
:106A240090E700BFC02E0020902E0020C82E00202A
:106A3400B82E00202DE9F0418046204800F090FB5C
:106A4400D0BB0125A8F12004C8F1200325FA03F3E3
:106A540005FA04F41C431A4BD3E9001205FA08F5AD
:106A640001EA050602EA040756EA07001E461DD19C
:106A7400404602F0D1FD134BD3E9001288B12943FB
:106A84002243C3E90012D6E900231C430E4B0B48F2
:106A940019681543C6E900540022BDE8F04100F02E
:106AA40019BB21EA050122EA0402EAE721EA050505
:106AB40022EA0404C3E90054BDE8F081982E0020C2
:106AC400C02E0020B82E0020942E0020042A2DE988
:106AD400F34105460C4616463AD902F0CDFCD8B12E
:106AE4001C4B1D491D601D4BDFF884801C701C4B22
:106AF40000221E600023C1E900231A49C1E90023D2
:106B0400013CE4B200260327FF2C0CD1164A174897
:106B1400002100F0CDFA03E002F076FC0028DFD07B
:106B240002B0BDE8F08123B205EBC30201A992785B
:106B34008DF8052015F833008DF8066042468DF86F
:106B4400047002F0A3FC013CE4B20028DCD0E7E7C7
:106B54000720E5E7C82E0020B82E0020902E002044
:106B6400942E0020C02E00203D690200A87E030060
:106B7400396A020070B5084D084E00242B789C42F7
:106B840001D3002070BD3368012113F8340002F0F2
:106B9400F9FC0134F2E700BF902E0020C82E00203B
:106BA4001FB50021039001AA44F20100CDE90111AF
:106BB40000F004F805B05DF804FB000010B572B6EF
:106BC40003F0AEFF03F0DEFD0028FBD1104B114CA7
:106BD4001149E41AE408240444F0010003F03CFFE2
:106BE4000E4B1B68DB0700D500BE0D4944F00200C4
:106BF40003F032FFBFF34F8F0A490B4BCA6802F40C
:106C0400E0621343CB60BFF34F8F00BFFDE700BFCB
:106C14001C7D03004C7D0300AC7E0300F0ED00E01E
:106C2400B87E030000ED00E00400FA05094A537839
:106C340091780133DBB2994208BF0023117899425D
:106C44001FBF03705078182303FB002014BF0430C7
:106C540000207047CC2E002073B5054600240DF1AA
:106C640007000E468DF8074000F08AFA0DF1060081
:106C7400FFF7DCFF90B10670094B9DF806204560D4
:106C84005A709DF8070000F09FFA24B9054B4FF4A1
:106C94008012C3F80021204602B070BD0424F0E73E
:106CA400CC2E002000E100E0024B4FF43C6043F0A6
:106CB40001031847D07E030038B50C4B0C4C4FF43D
:106CC4000032C3F8802001254FF48033C4F84833E0
:106CD400C4F808336560FFF7E7FF064BA56000249E
:106CE4001C60FFF7E1FF044B1C7038BD00E100E0BD
:106CF40000100140E82F0020D92F0020F8B51F4BC9
:106D04001F491B680025C1F84051C1F84451C1F81E
:106D14004851C1F84C51C1F80051C1F804514BB36A
:106D2400D1F8044517490968641A24F07F442F46B2
:106D34001A68A24209D8A41A15441A7CDE691AB149
:106D44001F74D3E905209047AEB90F4A0F4B117851
:106D54001B788B4205D10133DBB2022B08BF002321
:106D6400137012780A4B43F822500A4B4FF48012E6
:106D7400C3F80021F8BD3346DAE700BFEC2F00204A
:106D840000100140E82F0020E52F0020E42F002010
:106D9400DC2F002000E100E02DE9F04FA14AA249D8
:106DA40013780978A14D994285B03CD00133DBB208
:106DB400022B08BF002313709D4912789D4B0F6866
:106DC40053F822003B1823F07F4300220B602B680A
:106DD40016461446944613B942B12B6006E019686E
:106DE40081420ED902B12B60091A196001272B6860
:106DF400DFF848A201934FF00008BEB9DFF844B2AF
:106E040066E0401A0C44D968C3F800C0D3F81CE00B
:106E140031B13A1922F07F42C3E90121DE611E46F5
:106E240001227346D7E700263746E0E73446F66981
:106E34007F4A63681268DFF810C2A068991A21F0CB
:106E44007F41614500F2A680014421600122227441
:106E54002A680023C4E90133E361002A40F0A380D7
:106E64002C60CAE75A1C9BF80210D2B291428BF8EC
:106E7400002004BF00228BF80020182202FB03B379
:106E84001A799C68022A1CD0032A12D0012A1FD125
:106E9400207CE8B9D3E90312A2605A69E2609A69D6
:106EA400654BA2611B78002B0CBF0B460346636045
:106EB400BEE700222B681146002B67D142B12B603C
:106EC40006E029680A468946002A5AD10023237419
:106ED4009BF800309BF801209A42C3D12B68B8F18B
:106EE400000F04D1019A9A4201D1002F43D0002B04
:106EF40073D0D3F800A0514D4D4BD5F804751C68E0
:106F0400DFF848813E1B98F8003026F07F460336B0
:106F14009BB94FF48033C5F84433C5F80433484B68
:106F24004FF400324FF00109C3F880211A60C5F80C
:106F34000090FFF7B9FE88F80090B2452CBF544486
:106F4400A41924F07F44C5F84045D5F80435DB1B6B
:106F540023F07F43E41B033324F07F44A3420AD984
:106F6400D5F80435C5F84035FFF79EFE344B4FF491
:106F74000032C3F80021304B00221A7005B0BDE87E
:106F8400F08F94422CD09146D2699DE71974012266
:106F9400DB6991E7D31A23F07F43834234BFC31ADA
:106FA4000023236052E721681368994213D8591AC1
:106FB4001160E26154E7091AD8691A4638B10346E8
:106FC40018688842F7D3401A18601846134621609F
:106FD400E061DC6111E71346F2E7FFF76DFECAE7F3
:106FE4004C4511D1CB692B6073B9DFF844E0012023
:106FF400CDE90212CAF80800CEF800300E4B187022
:10700400FFF752FEDDE902121368D269C9F81C20A9
:1070140012B11068034413602B68994218BF4FF0F3
:10702400010853E7E42F0020E52F0020EC2F002077
:10703400E82F0020DC2F0020D82F00200010014072
:1070440000E100E0CC2E0020FEFF7F00D92F0020BD
:1070540008B5FFF731FE104B00200B2218809A7000
:107064000E4B18600E4B18700E4B18700E4B4FF4ED
:107074008012C021C3F8802183F814131A6002F12E
:107084008042A2F56F22C2F8080583F81113074B5A
:10709400D2F804251A6008BDCC2E0020EC2F002065
:1070A400E42F0020E52F002000E100E0E82F00207D
:1070B400074B9B784BB132B128B10368187C20B9D7
:1070C40059745A617047072070470820704700BF01
:1070D400CC2E00202DE9F7431E4FBB7805460E4603
:1070E4009046A3B398B304292FD943697BB3437C57
:1070F4000024012B0DF107000CBF8946A1468DF831
:10710400074000F03DF80DF10600FFF78FFDD0B108
:1071140001230370104B4560D3F80435C0E904988B
:10712400C0E902369DF806307B709DF8070000F038
:107134004BF824B9094B4FF48012C3F800212046C0
:1071440003B0BDE8F0830424EFE70724F7E708243D
:10715400F5E700BFCC2E00200010014000E100E064
:10716400064A92783AB130B1426922B100220274DF
:107174000221FFF771BD0820704700BFCC2E00200C
:1071840070B5EFF3108672B60C4A946801239CB96B
:1071940093600B4B0B4DD3F8801029401160C3F85A
:1071A4008050D3F8841051604FF0FF32C3F884202C
:1071B400047006B962B670BD0370FAE7F02F0020C0
:1071C40000E100E0FC06FFBD084B9A6810B55AB117
:1071D40050B9EFF3108172B6054A1C6814605C68FC
:1071E4005460986001B962B610BD00BFF02F002052
:1071F40000E100E070B5064D0646002455F8043B56
:107204000BB1304698470134042CF7D170BD00BF50
:1072140008300020033080B240F2FD33984230B58C
:107224001FD8124B1A783AB91C895D892C4404443E
:10723400A4B2B4F5806F0AD31A7DA2B99A8BDC8B01
:107244002244024492B2B2F5806F0CD201220A8029
:107254001446142202FB04335A8910445881002036
:1072640030BD0920FCE70720FAE700BF3C300020CE
:107274000B4A0C4B5188142000FB0131CB6833B905
:107284000420496810700122074801F0C5BA05239B
:107294000649137002238B80012200230968F3E757
:1072A400203000203C300020D82A00200431002067
:1072B40007B5002305490093054A096805480823D2
:1072C40001F014FA03B05DF804FB00BF04310020A0
:1072D400E47E0300D82A002007B50023009301466A
:1072E4000823034A034801F001FA03B05DF804FBE4
:1072F400DC7E0300D82A002013B500230C4600933B
:1073040001460423074A084801F0F0F938B9074B4D
:10731400142202FB04340123237402B010BD0E2096
:10732400FBE700BFD87E0300D82A00203C300020B1
:1073340037B50A480A4B42689C8819685388032564
:10734400033305709BB2002000909B0001EB840185
:10735400044801F0CBF903B030BD00BF2030002059
:1073640004310020D82A002010B50146044800F05A
:1073740043FE1C22044600210AF05AF9204610BD9F
:10738400F030002068B10268084B9A4209D1406885
:10739400074B984207D0013398420CBF01200320C9
:1073A4007047032070470020704700BFDEC0ADDE89
:1073B400FE011EF14388033300EB8303994209D392
:1073C40082884FF6FF739A4206D00088B0FA80F0A4
:1073D4004009704702207047012070472DE9F843A7
:1073E4000223DFF860800B800D46174600F58056B7
:1073F40000F108044FF00109B4420FD223680133AD
:107404000CD031462046FFF7D5FF48B10FB187F8BD
:10741400009002280BD14FF480632B80BDE8F883E1
:10742400A368D8F80020934201D9C8F800302B880B
:107434006288033313442B806388033304EB83048F
:10744400DAE700BF34300020154A142303FB002080
:1074540070B50B6844680D4604F58056ABB15C8882
:10746400033403EB8404B4420DD2236801330AD0FD
:1074740031462046FFF79EFF01280BD010F0FF0F86
:1074840005D00228EFD1002003E00834EBE72C609C
:10749400012070BD6388033304EB8304E3E700BF7A
:1074A4003C300020436873B504460D4663B3234A59
:1074B400D1688B4228D31269934225D813F0030074
:1074C40022D11F4A2189128991421DD121689A68CB
:1074D400914219D11B4A51688B4203D901F580515D
:1074E4008B420DD3926993420CD902F58052934298
:1074F40008D201232B80B0FA80F0400902B070BD9D
:107504000346F7E70A20F6E700232B801E46019680
:1075140001A92888FFF798FF30B92B8801339BB263
:10752400012B2B80F3D9E9E7019B226899689142EA
:10753400EED16360024B1B892381DFE7D82A002048
:10754400203000203C3000202DE9F8431C461C4B21
:107554001B7806460F4615466BB372B36CB3DFF85F
:1075640068804FF01409A388012B01D90A2020E078
:1075740009FB03F318F803302BB92146A088FFF761
:1075840063FF20B92060A3880133A380EBE723685D
:107594001EB1998832889142EFD11FB119883A8877
:1075A4009142EAD19A68C5E90023064B1B892B81D5
:1075B4000020BDE8F8830220FBE70520F9E700BFBF
:1075C40018300020203000203C30002008B5074B44
:1075D400191D5888FFF738FF18B1BDE80840FFF7B8
:1075E400A7BEBDE80840FFF743BE00BF203000201F
:1075F4002DE9F04FA04FDFF8A49289B00646B846B3
:107604003B6823B949469D4800F030FD3860D8F8FE
:10761400005029784B1E052B00F2FA80DFE813F0A6
:1076240006005E005E00EE00EE005C0126B1944BA5
:1076340000225A600124ECE02B79032B1DD8DFE8EB
:1076440003F015022A358F490B78022B084619D00E
:107654000B7D022B4FF0010316D114225343C218A1
:107664000020C8545068FFF737FE03E001232B7154
:10767400FFF71EFE002800F0BC80814B00225A60F8
:107684000E24C6E00023E8E77D4A1370002353600C
:1076940041F61D54BDE07C497C48002302222B7135
:1076A4008A800122096801F0B7F8E3E7764C0026E6
:1076B4002E712068734DFFF70FFE754BD4F800C090
:1076C4005A8814235343EA18EE5451682160A18860
:1076D400C2F804C011810222A280CBE7B5F814A03D
:1076E400AA7DDFF8A0B1AEB1022AEB8806D9142135
:1076F40001FB0AB1DA1C088902440A81142202FB44
:107704000ABAC3F57F43BAF80A20FD331344AAF832
:107714000A308FE7142303FB0AB318895C6804EB6F
:107724008004062A68D8DFE802F0274D35431D5946
:10773400040041F61D54AA7DEB88022A06D91421BF
:1077440001FB0AB1DA1C088902440A81142202FBF3
:107754000ABAC3F57F43BAF80A20FD331344AAF8E2
:107764000A3056E04B484C4900234360AB69036040
:10777400FFF798FE002871D00223AB750023009315
:107784000423EA182146414800F0B0FF002830D015
:107794000E24D0E72B69002B14BF03230123AB7500
:1077A4000023009305F10C02042304F10801EAE725
:1077B4000123AB750022EB8800929B002A6904F137
:1077C4000C01E0E703290CBF05230623AB75002356
:1077D4000093042305F10802E118D4E70623AB75EE
:1077E4002D4B19882B4B5868FFF786FD044600285B
:1077F400A1D109B0BDE8F08F0F249CE7002E7FF4DF
:1078040019AF2B79012B4BD0E3B1022B3FF440AFDE
:107814000F241422002103A809F00AFF41F61D5386
:107824009C4208BF0024D8F8003004941A78023A25
:10783400042A00F20581DFE812F0E600F2001501E7
:107844001D01240102232B710DF10A01EB6803933E
:1078540003A8CDE90466FFF725FE08B90A24D8E792
:107864000498BDF80A108388EB8003882B81FFF706
:1078740043FD044627E000BF38300020F0300020EC
:10788400183000203C30002004310020D82A002089
:1078940020300020FC2F0020103100203030002048
:1078A400DFF8FCA103AA53463146A81DFFF74CFE9E
:1078B400044658B9BAF804100498FFF71DFD0446AD
:1078C4000A2C3FF4E5AE002CA3D192E708223146FE
:1078D400504609F0ADFEF3E7002E7FF4ABAE6B4BE0
:1078E4001A7BAAB11E731A78013A062A90D801A10C
:1078F40051F822F09F790200C5790200E379020071
:10790400E979020015780200EF790200017A020099
:107914001A78072AE7D801A151F822F04179020028
:10792400EB780200EB780200677902007B790200B1
:107934009B7902009B790200637902001A895449F9
:1079440001321A8100225A801A730A78B2FA82F23A
:1079540052099A720A7DB2FA82F25209DA7201224B
:1079640007E04C4958688A884088033202448A8078
:1079740002221A70B7E7464C5A884649142505FB7B
:1079840002420868546850608888108102228A8004
:107994000C600622EDE70722EBE79A7A32B9DA7A2D
:1079A4008AB900221A705A805A6071E63849002256
:1079B4009A72CA68002AF2D1097C0029EFD05A8051
:1079C400FFF704FE55E70022DA72314A116A0029F2
:1079D400E7D192F82420002AE3D00122EFE7FFF751
:1079E400A7FC46E7FFF744FC43E7294A5B881421D8
:1079F40001FB03235868FFF76FFC3AE700225A6043
:107A0400FFF756FC35E701228DF80C201A89ADF8F2
:107A140018209A88DB68ADF81A20059310E002223A
:107A24008DF80C201A89ADF818209A88ADF81A2020
:107A3400DA689B7D05929A1F534253418DF81C309E
:107A440003A8FFF7D7FB002649461348C8F800608F
:107A540000F037FB0121114800F0E6FB00287FF419
:107A6400CFADC6E603228DF80C20DA88ADF81820D5
:107A74001A89CFE70422DB888DF80C20ADF8183082
:107A8400DEE705238DF80C30DAE700BF2030002054
:107A94003C30002004310020F03000200031002070
:107AA400143100204068FFF7A3BD000008B5012190
:107AB400044800F0A3FB18B9BDE80840FFF798BDDF
:107AC40008BD00BF003100202DE9F3419846354B35
:107AD4001B7806460D46002B5BD000295BD0098835
:107AE4004FF6FF73994258D06B88002B55D06B68C2
:107AF4009B0754D14AB92F890DF102013846FFF78B
:107B040089FB30B102B0BDE8F08113885788ADF825
:107B1400023001A8FFF728FC044658B9BDF802302A
:107B2400214A142101FB032358890338C01B5881BF
:107B34000820E7E700238375BDF8023083826B6871
:107B4400036180F800800121184800F062FB2B8853
:107B54002381B8F1030F6B88A38004BF0423A375AA
:107B64004FF0000508BF3368E06008BFA361E780F9
:107B7400658101A90E4800F069FA36B1E368336003
:107B84000C4B75601B89B5723381FFF78FFF0020A2
:107B9400B8E70220B6E70520B4E70420B2E70320E3
:107BA400B0E700BF183000203C3000203430002003
:107BB400F03000202030002008B5084B1A68042A51
:107BC40009D01968064A42F821000121184600F03C
:107BD40020FB002008BD0C20FCE700BF0C31002076
:107BE400083000202DE9F04F14228BB000210DEB5A
:107BF400020009F01DFD764A137803F0FF01CDE978
:107C040001123BB105A8FFF7F5FA002738460BB07F
:107C1400BDE8F08F029B181D00F011FB0028F4D181
:107C240040F6F8734FF080521B685C1C08BF694B28
:107C3400694C08BF1B6811695269581C08BF02FBD4
:107C440001F323610022A3F540536449E360204615
:107C540000F018FD039407460028D7D11C238C227A
:107C64005F496048DFF88891DFF8888100F08FF978
:107C7400BA463D464FF0030B3C46039BDE68564430
:107C840030463146FFF77EFB01284DD042B2002A30
:107C940036D0032822D106F580520868013040F01E
:107CA4008A8004319142F8D1D9F800203AB90222ED
:107CB4000123C9F80060A9F8042001930CE0142200
:107CC4006243022008EB020108F80200464A4E60B3
:107CD400548001340881A4B245F001050AF5805AA4
:107CE400BAF5405FC9D1BBF1010F98BF0025EDB2D1
:107CF400022D03D0062D35D0002D3CD10B2785E76E
:107D04001421614308EB010008F8012001F110027D
:107D140008314660424441443046FFF75FFB45F07A
:107D240002050134A4B2D9E7019B63B11422624372
:107D340008EB0201022008F802000134D9F80020FF
:107D44004A600881A4B200222849C9F8006030467C
:107D5400FFF744FBB9F80420022A0CBF04220822CE
:107D64001543BBE7029A0123137005A8002353604F
:107D7400FFF740FA4AE704A8FFF7F6FAC8B101236F
:107D8400013D03700A2D09D8DFE805F0060806084E
:107D9400070807080F110F000023037104A91148F5
:107DA40000F054F9FFF782FE30E70323F5E70223DE
:107DB400F3E708272AE70BF1FF321FFA82FB1422AC
:107DC400624308EB02014E60032108F80210A8E7A1
:107DD4001830002014100010D82A0020E08003007E
:107DE40064300020F03000202030002008310020D2
:107DF400043100203C30002073B50D460446C8B160
:107E0400C1B10DF10601FFF74DFBA8B10B4BBDF855
:107E140006006668142202FB003001210C3000F0D9
:107E2400F8F963682E600C336B600123A3720020A1
:107E340002B070BD0520FBE70A20F9E73C300020C2
:107E440013B50446A8B10DF10601FFF72BFB90B161
:107E54000B4ABDF80630142101FB0323DA6862B132
:107E6400A27A52B1DA680020013ADA60A07202B054
:107E740010BD0520FBE70A20F9E70620F7E700BF5D
:107E84003C30002002230022FFF71EBE18B103235A
:107E94000022FFF719BE052070470000104B1B7825
:107EA40013B50446ABB14FF6FF73984213D001A843
:107EB400FFF75AFA88B10523037001230371C480C4
:107EC40001A9084800F0C2F8FFF7F0FD002002B055
:107ED40010BD0220FBE70420F9E70820F7E700BF04
:107EE40018300020F03000200E4B1B7807B5A3B1EA
:107EF40001A8FFF739FA90B10623037001A90A48D3
:107F040000F0A4F8094B1A780AB101221A73FFF79A
:107F1400CDFD002003B05DF804FB0220FAE7082041
:107F2400F8E700BF18300020F03000202030002097
:107F340007B5ADF80600ADF804100DF1060001A96F
:107F4400FFF702FB03B05DF804FB07B51346ADF879
:107F540006000A4600200DF10601FFF7F5FA03B00A
:107F64005DF804FB07B51346ADF806000A460DF1AB
:107F740006000021FFF7E8FA03B05DF804FB20B126
:107F840019B103680B60002070470520704710B5D5
:107F940061B1B2FBF3F403FB1424A4B244B9C0E905
:107FA400001484608281C381204610BD0E20FCE74A
:107FB4000920FAE782B050E8022FC188B2EB324FB1
:107FC4004FF0000317BF92B241EA014142EA014176
:107FD40004E04268B2EB324F08BF012340E80212CA
:107FE400002AE8D18DF807309DF80730002B0CBF2C
:107FF4001120002002B0704737B550E8013F9DB210
:10800400C48925448489A54228BF2D1B0489A5421F
:1080140002BFBFF32F8F002207E0C5EA030540E843
:108024000154002CE9D14FF001028DF80320019393
:10803400019B9DF803200B6002F0FF0322B10B8823
:108044000068184403B030BD1846FBE70A884B8823
:108054009A4209D150E8012FC2EA024240E80123C2
:10806400002BF7D1012070470020704737B550E846
:10807400023F1FFAA3F5C488A54202BFBFF32F8FA6
:1080840000220DE0C48925448489A54228BF2D1B04
:10809400C3EA054540E80254002CE8D14FF0010240
:1080A4008DF803200193019B9DF803200B6002F0DF
:1080B400FF0322B14B880068184403B030BD184652
:1080C400FBE70A884B889A4209D150E8022FC2EA9A
:1080D400224240E80223002BF7D101207047002000
:1080E400704701F01F024B090121914000EB83000E
:1080F40000F063B84B0910B501F01F040121A14041
:1081040000EB830000F04EF8E04000F0010010BDE9
:1081140001F01F0301229A404B0900EB8300D14375
:1081240000F061B84B0901F01F0150F82300C8406A
:1081340000F0010070472DE9F0474E1E7609804695
:108144000F460136002558F8254008EB8509E4431D
:1081540094FAA4F4B4FA84F44FEA451A202C06D114
:108164000135AE42EFD83C462046BDE8F087544482
:10817400A742F5D921464046FFF7BCFF0028F3D0BB
:10818400D9F80040E44394FAA4F4B4FA84F4E5E79B
:1081940050E8002F0B4640E8003C9CF0000FF7D15C
:1081A4001046704750E8002F42EA010340E8003CC3
:1081B4009CF0000FF6D11046704750E8003F43EAA8
:1081C400010240E8002C9CF0000FF6D110467047E5
:1081D40050E8002F02EA010340E8003C9CF0000F45
:1081E400F6D11046704750E8003F03EA010240E828
:1081F400002C9CF0000FF6D11046704750E8002F79
:1082040002EB010340E8003C9CF0000FF6D110465D
:10821400704750E8003F03EB010240E8002C9CF05B
:10822400000FF6D11046704750E8003FA3EB01025F
:1082340040E8002C9CF0000FF6D110467047012155
:10824400FFF7B0BF0121FFF7B8BF0021FFF7C0BFA0
:1082540010B590B1D0E9012301689B1ADBB20A6022
:10826400013BDBB2FF2B026802D10020107110BD6C
:1082740011684C1C14600B70F2E70E20F7E737B559
:10828400054600240DF107008DF80740FEF778FF3E
:108294002A686B68116899420ED9481E106011F85B
:1082A400014CEB68298A01FB0434AB6811791B1A71
:1082B400DBB2994238BF13719DF80700FEF784FFC3
:1082C400204603B030BD37B5054600230DF1070045
:1082D4000C468DF80730FEF753FF2A681368591CC3
:1082E4001160E968641A298AB4FBF1F41C709DF8E2
:1082F4000700FEF769FF03B030BD826810B504467D
:108304002AB143690168006998470023A36010BD3E
:108314000EB403B5039921B104AB01AA019300F093
:1083240075F802B05DF804EB03B070470A2938B55C
:1083340004460D4602D10D21FFF7F8FFA368226819
:10834400591CA160D554D4E901329A4204D3204681
:10835400BDE83840FFF7D1BF38BD00002DE9F84F24
:108364009946DDE90A431746824688460A460126AD
:10837400BA420FD24E4538BF4E4613F0010B01D11D
:1083840064B900240125B9F1010F1AD909F1FF39A3
:108394007D43F8E7B2FBF7F20136E9E79B070ED518
:1083A400B9F1000F0CBF30252025A642EAD2013CCA
:1083B40029465046FFF7BAFF002CF6D1E1E7202505
:1083C400F3E7B8FBF5F39F42E2D9DFF83C90B8FB42
:1083D400F5F3504619F8031005FB1388FFF7A6FFC1
:1083E400B5FBF7F3BD4207D2BBF1000F02D00CB1CD
:1083F400A64203D3BDE8F88F1D46E8E72021504686
:10840400013CFFF793FFF2E7F57E03002DE9F74FF8
:10841400054617468846002900F0308118F8011BEC
:1084240049B92B7B002B00F02981284603B0BDE815
:10843400F04FFFF762BF252940F0C080002698F86E
:1084440000302D2B424608F1010823D0302B24D0D4
:108454002B2B25D000242A2B02F1010123D13B68C8
:108464001A1D1B683A601C440A4613782E2B26D129
:1084740001324FF00009104610F8011BA1F1300C35
:10848400BCF1090F1DD80A2303FB0913A3F130091A
:108494000246F0E746F00106D1E746F00206CEE7D1
:1084A40046F00406CBE711F8013CA3F1300009289B
:1084B400DBD80A2202FB0434303C0A46CBE74FF0F7
:1084C400000912F8011B01F0FB0068289046F8D05F
:1084D40069290ED04AD8582964D006D825296DD0E8
:1084E40098F80030002B99D19BE7632962D0642966
:1084F400F6D13A68D2F800A0111D8AEAEA7239600E
:10850400A2EBEA724FF0010B092A5BDCCB4538BFC2
:10851400CB462CB1BAF1000F01DB720700D5013C48
:10852400B30702D5B9F1000F04D0F00702D4002C30
:108534004ED10024BAF1000F52DACAF1000A2D21FB
:108544002846FFF7F3FE06F00302022A05D1B9F12B
:10855400000F02D1002C47D10024CDE900464B4640
:108564000A2251462846FFF7F9FEB9E773294CD091
:1085740014D87029B4D13B681A1D3A6030212846BA
:108584001C68FFF7D3FE78212846FFF7CFFE0022B0
:108594000823CDE9003221461022E3E775292BD0C8
:1085A40078299DD139680A1D3A60CDE900464B46C9
:1085B400102228E03B681A1D19783A602846FFF714
:1085C400B5FE8DE70A230BF1010BB2FBF3F29BE737
:1085D400A345AFD220212846013CFFF7A7FEA6E71A
:1085E4007107B0D52B21ABE7A345B6D2302128467D
:1085F400013CFFF79BFEADE73968CDE900460A1D53
:108604003A604B460A220968ACE73B681A1D3A6097
:1086140016F00106D3F800A020D1BAF1000F03D060
:10862400504609F05FF80646B44200D9C4B90AF1CD
:10863400FF3A1EE028460136FFF778FE1AF80610C6
:108644000029F7D1A642BFF44BAF002C3FF448AF4A
:1086540020212846013CFFF769FEF3E70026EDE7F9
:1086640020212846013CFFF761FEDDE72846FFF79D
:108674005DFE1AF8011F0029F8D131E703B0BDE807
:10868400F08F000007B50B4688B9124B1248134A05
:10869400C01A0E23C0080093114B0004114940F086
:1086A400010002F0F0F90E2003B05DF804FB4BB9B1
:1086B400084B09480C4AC01AC0080E230093000452
:1086C400074BEBE703601B68114603B05DF804EB4E
:1086D400184700BF1C7D0300947D0300B27F030094
:1086E400057F0300B77F03002E8003002DE9F341CB
:1086F40088B93D4B3D483E4AC01AC0080E243D4B44
:10870400009400043C4940F0010002F0BCF920460A
:1087140002B0BDE8F0814AB9334B3448374AC01A35
:10872400C0080E2400040094324BEBE7D0F800C0DC
:10873400BCF1000F09D12C4B2C48314AC01AC00897
:108744000824000400942B4BDCE74BB9264B274844
:108754002C4AC01AC008092400040094254BD1E710
:108764004768D7F80480B3FBF8F708FB17374FB115
:108774001D4B1E48244AC01AC00809240004009452
:108784001C4BBFE78F0709D0174B18481F4AC01A64
:10879400C008102400040094164BB3E712F0030F32
:1087A40009D0114B11481A4AC01AC00810240004F9
:1087B4000094104BA6E7C768B9420BD34C1E056959
:1087C4001C44AC4206D8DCF80C40A44602B0BDE818
:1087D400F0416047044B05480E4AC01AC0081024F3
:1087E40000040094034B8DE71C7D0300947D03007B
:1087F400B27F0300177F0300B77F030034800300B8
:1088040028800300E77F03003A80030064800300AC
:108814007C8003009F800300F7B580B92A4B2B4866
:108824002B4AC01AC0080E242A4B009400042A497B
:1088340040F0010002F027F9204603B0F0BDD0F863
:1088440000C0BCF1000F09D11F4B2048234AC01AB5
:10885400C0080824000400941E4BE8E74AB91A4BE8
:108864001A481F4AC01AC008092400040094194B6E
:10887400DDE74768D7F800E00EF1FF370F4209D073
:10888400114B1248174AC01AC0081024000400945F
:10889400104BCCE7C768B9420CD34C1E05690EFBDC
:1088A4000244AC4206D8DCF81040A44603B0BDE84C
:1088B400F0406047044B05480B4AC01AC008102416
:1088C40000040094034BB2E71C7D0300947D030075
:1088D400B27F03002A7F0300B77F030028800300D0
:1088E400E77F03003D7F0300637F030070B508B199
:1088F4000368ABB90C4D0D4C0026641B1423B4FB68
:10890400F3F4B44201D1002009E02B6813B9013615
:108914001435F6E7DB69284698470028F7D070BD80
:10892400DB69BDE870401847D82A0020EC2A0020F3
:1089340029DF704728DF704770B503689D6886B0EB
:1089440004460E466DB114220021684608F070FEFC
:10895400A3680593237901962BB1012B0DD06846AA
:10896400A84706B070BD01238DF800302369029337
:10897400E368039363690493F1E702238DF80030FD
:10898400E3681B030293F5E708467047002070472D
:10899400024B187A003018BF01207047B83100200C
:1089A400034B187A0122B0FA80F05A7440097047D8
:1089B400B831002008B510461A4608F010FE002011
:1089C40008BD000008B514220021044808F030FE58
:1089D4000348FFF7EFFA002008BD00BFB8310020BC
:1089E400A831002010B5094C094B43602046FFF71D
:1089F40026FC40B908F048FB1C2320748C2205494E
:108A04000548FFF7C4FA002010BD00BFB8310020AC
:108A1400D48003001C310020A831002070B5244C00
:108A2400244E237A25463BB923492448FFF71EFBED
:108A3400306008B9606070BD346802232B722379FA
:108A440073B1012B24D020460321FFF775FF0023C7
:108A54002B726B6018491948BDE87040FFF731BBB1
:108A6400D4E90523D21AB2F5805F28BF4FF48052AF
:108A7400D4E903109208012A38BF0122194418448A
:108A8400FFF756FF50B11128DDD101232B72D2E735
:108A9400D4E903031844FFF74DFFF3E72B7C002BC5
:108AA400C9D10146BDE87040022000F009B800BFFA
:108AB400B8310020D0310020CC310020A831002072
:108AC40038B5831E012B45D8234C237A002B41D083
:108AD400022B09D1032830D0204B1B680022E2600E
:108AE4001A793AB1012A22D0637C7BBBBDE83840B5
:108AF400FFF794BFD3E905128D1AB5F5805F94BFD3
:108B0400521902F580529A619142EDD102284FF038
:108B1400000308BF19462372104B18BF0D211868B3
:108B2400FFF70AFF0E490F48FFF7CBFADCE71A6993
:108B340001321A615B699A42E7E7E3680133082B63
:108B440001D8E360D0E70023E360DFE7BDE8384005
:108B540008F08ABA38BD00BFB8310020D0310020F7
:108B6400CC310020A831002000F0FD03012B08D1F6
:108B7400044B00225A74421E504250411874FFF7AD
:108B84004DBF7047B831002010B5064C201DFFF7CB
:108B940056FB28B9637C1BB9BDE81040FFF73EBF04
:108BA40010BD00BFB83100202DE9F34180460D46C9
:108BB4000F4801A916461F46FFF71EFA0446A8B13E
:108BC4001C22002108F034FD2D0B0123237101A97F
:108BD400C4F80080A760E56066610548FFF736FACF
:108BE400FFF7D2FF002002B0BDE8F0810420FAE7CD
:108BF400A83100202DE9F74381468846104801A991
:108C040017461E46FFF7F8F90446B0B11C220021AE
:108C140008F00EFD00250A9BA36001A92571C4F884
:108C24000090C4E9037866610548FFF70FFAFFF77F
:108C3400ABFF284603B0BDE8F0830420FAE700BF89
:108C4400A83100202DE9F047B0F806904479D2F815
:108C540000A09DF8208009FB04F4043C06460AEBBE
:108C64000300A0420F4688BFA4EB030A191DC2F8F3
:108C740000A0B1FBF9F509FB15114DB9A9EB0104ED
:108C8400544528BF5446BAF1000F04D1BDE8F0871B
:108C94003668013DF1E704317B1970182246B8F1BA
:108CA400000F0ED001461846AAEB040A08F097FC00
:108CB400D145254436684C464FF0000128BF544640
:108CC400E1E71946F0E7FFF7C3BAF8B5467901467C
:108CD400721E0546002393422D6803D30024A64246
:108CE40002D8F8BD0133F6E70F682846FFF7EBFA20
:108CF40001343946F3E72DE9F843068ACD1C0746CB
:108D0400FFF7BDFA043E35440446B5FBF6F5F0B171
:108D14004FF48073EDB28380C680013D07608146C5
:108D24004FF00008A84512D23846FFF7A8FA0646C5
:108D340048B163790133637108F10108C9F800008F
:108D440007608146EEE72046FFF7BFFF3446204622
:108D5400BDE8F88301210430FFF75BBA10B50121A7
:108D640004460430FFF760FA10F0FF0F04D12046E8
:108D7400BDE81040FFF7A9BF10BD1FB50392002244
:108D8400009203AAFFF75EFF05B05DF804FB1FB570
:108D940003920122009203AAFFF754FF05B05DF885
:108DA40004FB33DF704741DF70470000064B10B50A
:108DB40000241C70054B1C60BFF35F8F04490548F9
:108DC40000F001F9204610BDDD310020E031002023
:108DD40000810300D431002007B500230DF1070002
:108DE4008DF80730FEF7CCF9F1EE103A23F09F032B
:108DF400E1EE103ABFF35F8F094B4022C3F88421A0
:108E04009DF80700FEF7E0F908F03EF920B1FFF7FE
:108E1400CAFF03B05DF804FB20BF40BF20BFF8E7E2
:108E240000E100E070B5264C054601212046FFF71D
:108E3400AFF9BFF35F8F264638B9042D0AD0214B12
:108E44001A781AB1BFF35F8F206070BD1E4A157087
:108E540001221A701D4C1C4D6368BBB901F060FE01
:108E640001F090FC0028FBD1174B1B78023B012B2F
:108E740014D8BFF34F8F1649164BCA6802F4E06248
:108E84001343CB60BFF34F8F00BFFDE71B68287807
:108E9400984788B1204600F0A0F8DDE708F0F4F820
:108EA40008B1FFF77EFF4FF080430122C3F800258D
:108EB400BFF34F8F20BFFDE7BFF35F8F3060C4E780
:108EC400E0310020DD310020DC310020D4310020ED
:108ED40000ED00E00400FA0502681368526893424A
:108EE40091BFD01A80680130801888BFC01A7047BB
:108EF400036881681A685B688B4234BF01330023BE
:108F0400D31A584258417047F7B5002304460DF16F
:108F140007000D468DF80730FEF732F92046FFF7BB
:108F2400E7FF10B1237C002B3CD12268A66853686C
:108F34005168B14234BF01310021516030B1116830
:108F4400A068814234BF013100211160E268606889
:108F5400511E072920D8DFE801F004101F141F1F39
:108F64001F182A78C2542046FFF7B6FF23689A6870
:108F7400824200D29860002415E02A8820F8132049
:108F8400F1E72A6840F82320EDE7D5E9006700EB14
:108F9400C300C0E90067E6E7294602FB030008F0C6
:108FA4001EFBE0E704249DF80700FEF70DF92046B8
:108FB40003B0F0BD836800225A609A60C3E90422BA
:108FC400DA601A6070470B684A684360934208BFCE
:108FD4000023016008BF43607047436843B10268DF
:108FE400916852680B449342436004BF002343607A
:108FF4007047000010B50D49A1F59472914201D853
:1090040000200FE08B1ADB1003EBD3735B1002EB31
:10901400C30452F83330834205D802D204F1080263
:10902400ECE7606810BD2146E8E700BF508203000A
:1090340008B5FFF7DFFF024B002808BF184608BD3C
:109044001581030038B5074C051E04F1080318BF49
:109054001C4623682BB11A6822605B68284698472F
:10906400F7E738BDEC31002020B9054B01225A70D6
:10907400FFF7E8BF012802D1014A9070F8E7704772
:10908400E431002020B9034B01225A70FFF7DABF04
:10909400704700BFE431002038B50B4C237883B906
:1090A4000A486360A3602361E36000F013F9054696
:1090B40007F0EAFF08B900F019F9012323702846E4
:1090C40038BD8525FBE700BFE43100206D90020028
:1090D40037B50B4C00230DF107008DF80730FEF770
:1090E4004FF8E368013BE360E56815B900F010F957
:1090F400A5709DF80700FEF767F803B030BD00BF08
:10910400E4310020012813B509D018B103281CD07C
:1091140002B010BD0F4B0122C3F88020F8E70E4CBB
:1091240000230DF107008DF80730FEF729F82378A6
:109134000BB9FFF7B1FFE3689DF807000133E36063
:109144000123A370FEF740F8E2E700F0CFF8FFF741
:10915400BFFFDDE700E100E0E43100201FB500239C
:109164008DF807000DF10F008DF80F30FEF708F8A9
:1091740007F08AFF50B90DF107010848FFF7C4FE54
:109184000648FFF7B5FE08B100F09EFB9DF80F00FE
:10919400FEF71AF805B05DF804FB00BF087D030074
:1091A40007B520B103280BD003B05DF804FB0F4BC7
:1091B4001B78012BF8D100F087FB00F08DFBF3E75F
:1091C40000230DF107008DF80730FDF7D9FF07489C
:1091D4000378012B05D10649013000F035FB00F07E
:1091E40061FB9DF80700FDF7EFFFDDE74832002043
:1091F400619102001FB503788DF800304368019334
:1092040083688DF80830C3680393054A054B6846A4
:1092140053F8213052F82110984705B05DF804FB4B
:109224004C320020543200201FB503788DF80030F2
:109234004368019383688DF80830C3680393054A33
:10924400054B684653F8213052F82110984705B071
:109254005DF804FB4C32002054320020F0B5184B6A
:109264000778DFF86CE043F82720164B16460A69A6
:1092740043F827204B7F0EF807300C4684460FCC6A
:1092840089B06D460FC594E80F0085E80F001EF8FD
:109294000730049753B1002E0B4A694608BF324683
:1092A4000CF1040000F03CFE09B0F0BD002E074AAA
:1092B400694608BF32460CF10C0000F023FCF3E7CA
:1092C400543200204C320020F99102002D92020009
:1092D4005C320020044A137923B901211060918083
:1092E400184670478520704760320020074B1A6883
:1092F400D2075FBFC02283F8002301221A604FF017
:1093040080430122C3F81825704700BF00E100E044
:10931400044B01221A604FF08042D2F81834DB0368
:10932400FBD470470C000040154B07B51A687AB19E
:1093340000221A601B680093009B4FF080430122B7
:10934400C3F808230F4B587910B95A711B68984712
:109354000D4B1A6882B100221A601B680193019BAD
:109364004FF080430222C3F80823064B1B680120F8
:1093740003B05DF804EB184703B05DF804FB00BFCD
:1093840000010040603200200401004000F18040F0
:1093940000F5C040002382B0036003680193019B81
:1093A40002B0704703681F2B83BF03F01F030360E1
:1093B40001484FF0A04070470003005007B50190EA
:1093C40001A8FFF7EFFF019B00EB8300D0F8002713
:1093D40022F44032C0F80027D0F8003743EA0143B2
:1093E400C0F8003703B05DF804FB0000054B4FF0F4
:1093F400FF32072843F8202084BF1B1883F8582025
:10940400704700BF6832002010B5174C94F86A30DA
:1094140043BB04F130033021FF22013911F0FF0175
:1094240003F8012BF9D1C8B2FFF7E0FF01310C2991
:10943400F9D1062200210D4808F0FAF80C4BC0229D
:1094440083F8062340221A604FF4BE70FFF79EFF94
:10945400084B4FF00042C3F80423012384F86A3018
:10946400002010BD0820FCE768320020CC32002028
:1094740000E100E000600040034B93F86A00003014
:1094840018BF0120704700BF68320020F7B53B4E7B
:109494003318054693F93030002B6CDA8B78C3F31C
:1094A4004003002B0BBF082400240C200820844216
:1094B40002D1042003B0F0BD56F82470013743D123
:1094C400701946F8242080F8304013B9331983F812
:1094D40058508B785A0717D4D80737D501A8019567
:1094E400FFF760FF019B00EB8300D0F8003723F007
:1094F4000203C0F800372248EA0805F007070123F1
:10950400BB40875C3B43835488780A7810F00200A0
:1095140028D0A40004F1804404F5C0442D02D4F8FA
:10952400103523F44F3323F44073C4F81035120478
:10953400D4F8103505F47C5502F4403215431D432C
:10954400C4F810550020B5E70134B0E701A84A7803
:109554000195FFF727FF019B03F5E073920040F8A4
:109564002320C8E7083C344494F8605045EA82124A
:1095740084F860209EE708209CE700BF6832002042
:10958400CC32002073B5224C2518064695F93020BC
:10959400072A19DD224492F858309B09032B0FD176
:1095A400019001A8FFF7FEFE019AD0F81035D340D0
:1095B400DB0707D402213046FFF700FF02B070BD7D
:1095C400012BF7D00321F6E7D3B2072BF6D893008B
:1095D40003F1804303F5C043D3F8100540F00100C4
:1095E400C3F8100502F14000800080B2FFF7CEFE00
:1095F4000029E3D095F9303054F82330002BDDD026
:10960400012303FA02F2034BC3F80423D6E700BF95
:10961400683200200060004007B5019001A8FFF700
:10962400C1FE019BD0F81005D84000F0010003B042
:109634005DF804FB2DE9F04F002489B0CDE9024424
:10964400624D4FF48072012102F1804303F5C0435F
:1096540090B21B68012B06D1D5F804330B4202D01B
:10966400FFF794FE0C430432B2F5907F4FEA4101B8
:10967400EAD1574B1B68012B0ED14FF4BE70FFF794
:1096840085FE4FF0A04344F00044D3F81035029314
:10969400504BD3F81035039314F0FF0F1AD04E4FEC
:1096A40000250126344210D0AB0003F1804303F5BA
:1096B400C043D3F81005D3F8101557F8253023B15B
:1096C400C1F30141C0F3052098470135082D4FEA45
:1096D4004606E7D1002C75DA0DF110080023049337
:1096E400C8F804304FF0FF33CDE90633DFF8E8A0C3
:1096F400DFF8E89000273D4619F9014B631C48D078
:10970400E4B2012324F0C00604F0070203FA02F2D3
:10971400F00808AB191811F8083C134239D00AEBC9
:109724000603A40993F930305AF823B0BBF1000FB3
:1097340008D1032C2DD118F800C04CEA020C08F80B
:1097440000C001E0032CF6D001A80196FFF72AFE21
:10975400019B11F8181C03F5E07C114250F82C0011
:10976400C0F3014005D0022813D1032C0BD12146AC
:1097740004E003280DD1032C05D102213046FFF764
:109784001DFE0135EDB2BBF1000F02D0214630467B
:10979400D8470137042FAFD1A5B14FF0A0430299A8
:1097A400D3F8102503F540739142D3F8103502D154
:1097B4000399994206D002920393049A059B069258
:1097C400079395E709B0BDE8F08F00BF0060004043
:1097D4007C6100400003005068320020C832002041
:1097E400014B1B68184700BFD43200200E4B98422F
:1097F40037B50D4602D0002003B030BD00230DF173
:1098040007008DF80730FDF7BBFC084B1C7914B931
:1098140001221D601A719DF80700FDF7D5FC002C8C
:10982400E9D01120E8E700BF00200040D432002036
:10983400034B984201BF034B00221A601A71704710
:1098440000200040D432002010B5124C2278FAB91E
:10985400114B1960037813F0010F104B1EBFD3F89E
:10986400042542F00102C3F80425D3F8002222F0B3
:109874000102C3F800224378094A5B01DBB282F893
:109884000D334FF40053136001232370002010BDE7
:109894008520FCE7E0320020DC32002000D00040CC
:1098A40000E100E0064B00221A6082B01B680193BD
:1098B400019B044B0122C3F804231A6002B07047D1
:1098C40000D1004000D00040024A0123C2F808330E
:1098D4005360704700D00040064A0123C2F80833A1
:1098E4005360054B4FF40052C3F88020034B002211
:1098F4001A70704700D0004000E100E0E032002020
:10990400074B00221A6082B01B680193019B054B30
:10991400D3F80805044B1B68C0B202B0184700BF57
:1099240000D1004000D00040DC320020002343502E
:1099340082B043580193019B02B070470A4610B5A8
:109944004FF48E71FFF7F2FF136A9168C95C136AD2
:1099540001331362C0F81C1510BD8B690A4610B59B
:109964004FF4847123B9FFF7E1FFD0F8183510BD27
:10997400FFF7DCFF536AD168D0F81805C854536A5E
:1099840001335362F3E700001FB501238DF8003063
:10999400044BCDE90110D3E900126846904705B0A5
:1099A4005DF804FBE432002030B54C4AD2F80433AD
:1099B40013F4007F85B015464FD0D2F82431002B24
:1099C4004BD04FF492711046FFF7B0FF4FF4017380
:1099D400C2F80833424B93F8291009B901215160A8
:1099E4003E4902228DF80020D1F88024C1F8802459
:1099F40003929A690292DA6801920022C3E906226C
:109A04006846D3E9001290473448D0F81C315BB162
:109A140033490A6A4B699A420A464BD291F8283074
:109A2400002B47D1FFF78AFF2C4AD2F8443193B177
:109A34004FF4A2711046FFF779FF294B93F82910D0
:109A440009B1012111609A692AB100229A61586A08
:109A5400D968FFF799FF05B030BDD5F804335B072B
:109A6400D2D5D5F80831002BCED01D4C1B48214649
:109A7400FFF773FF636AA2699A422346C4D1E2697D
:109A8400E1684AB12369E3600023606AA261E3618B
:109A94006362FFF779FFB7E794F829200AB9012236
:109AA4006A600E4A4FF40170C2F8080300229A61FA
:109AB400586AEEE74FF48E710848FFF737FF516993
:109AC4000029B1D00023029191688DF800300191F2
:109AD40053616846D2E900139847A5E70020004087
:109AE400E43200201F2886BF00F01F00044B4FF013
:109AF400A04300F5E070022243F82020704700BF25
:109B0400000300502DE9F843624F047991462C225A
:109B140002FB0472064692F82A200D46002A40F001
:109B2400B3805D490068FFF761FE8046002840F07D
:109B3400AE8029684A1C10D01F2987BF01F01F037B
:109B4400564A0B464FF0A0420120984003F5E073BB
:109B5400C2F80805032042F823006868431C0DD0AE
:109B64001F288BBF00F01F0303464C4A4FF0A0424E
:109B740003F5E0734FF0000C42F823C03368AA6980
:109B840095F814C0C3F824256A7DBCF1010F4CEA92
:109B94000202C3F86C25C3F81405C3F80C152BD1C5
:109BA400A968481C0DD01F298BBF01F01F020A466B
:109BB4003A484FF0A04002F5E0724FF0000C40F834
:109BC40022C0E868421C13D01F2887BF00F01F0C76
:109BD400324A84464FF0A0424FF0010E0EFA0CFEBA
:109BE4000CF5E07CC2F808E54FF0030E42F82CE0D7
:109BF400C3F80805C3F810152C236343FA18C2F8F8
:109C040004902A69FA50B9F1000F2AD04FF48E71EA
:109C140030682D7FFFF78AFE30684FF4A271FFF79A
:109C240085FE32681E4BC2F80433120B51B2002970
:109C3400A8BF01F160404FEA4513BABF194802F0CA
:109C44000F0500F56140DBB2B4BF435580F8003323
:109C540002F01F02012303FA02F24909124B43F8EE
:109C6400212033680422C3F800252C2303FB04734A
:109C74000022C3E9062283F829205A61012283F8CD
:109C84002A204046BDE8F8834FF00808F9E74FF072
:109C94001108F6E7E4320020AD99020000030050F9
:109CA4008000020014ED00E000E100E02DE9F04145
:109CB40003680479254D0022C3F800252C2202FBF9
:109CC40004520646526872B1214AC3F80823190B9C
:109CD4004AB20120520901F01F0100FA01F12032B9
:109CE4001C4840F82210D3F80C05D3F81485D3F897
:109CF4000815D3F810754FF0FF329042C3F81425BD
:109D0400C3F80C25C3F80825C3F8102501D0FFF7C4
:109D1400E9FEB8F1FF3F02D04046FFF7E3FE7A1CAC
:109D240002D03846FFF7DEFE4B1C02D00846FFF790
:109D3400D9FE3068FFF77CFD2C2303FB0454002379
:109D440084F82A306360BDE8F08100BFE43200206B
:109D54008402020000E100E02DE9F047214F06797A
:109D64004FF02C0909FB067480466569002D37D134
:109D74006261A16025624FF48E71006884F82850F6
:109D8400FFF7D4FDD8F80000012383602146FFF7D4
:109D9400D5FD6368A14693B9D8F800A0226A636927
:109DA4009A4212D3D8F80030D3F81C21002AFBD0F1
:109DB4000122DA602C2303FB067600237361284614
:109DC400BDE8F08794F8283043B9DAF81C31002B49
:109DD400F8D049465046FFF7B1FDDFE70F25E9E724
:109DE4001125ECE7E43200200023435082B04358AD
:109DF4000193019B02B070471FB501238DF8003019
:109E0400044BCDE90110D3E900126846904705B030
:109E14005DF804FB103300207FB5374AD2F8246183
:109E2400002E48D010464FF49271FFF7DDFF022355
:109E34008DF80030D2F88034C2F880340393D2F81D
:109E44003C3502932D4BDA6801920022C3E90622C5
:109E54006846D3E900129047274AD2F844317BB1CF
:109E64004FF4A2711046FFF7BFFF244B996939B133
:109E74000021C3E90611D968D2F83C05FFF7BCFFFD
:109E84001D4AD2F82031A3B14FF490711046FFF768
:109E9400ABFF1A4B596961B1D2F84C1502910022FB
:109EA40099688DF8002001915A616846D3E900123F
:109EB400904704B070BDD2F81031002BCCD04FF4D1
:109EC40088711046FFF790FF0C4BD2F83C05996956
:109ED4008842C1D1DC69D96864B1D2F8005225F056
:109EE4002005C2F800521A699C61DA60DE61FFF74E
:109EF40083FFB1E79C61FAE70020004010330020A3
:109F04001F2886BF00F01F00044B4FF0A04300F54C
:109F1400E070022243F82020704700BF0003005085
:109F24002DE9F843664F06799146242202FB067216
:109F3400044692F820200D46002A40F0BB80614977
:109F44000068FFF753FC8046002840F0B68028687C
:109F5400421C10D01F2887BF00F01F035A4A034633
:109F64004FF0A0420121994003F5E073C2F80815AF
:109F7400032142F8231069684B1C0DD01F298BBFA5
:109F840001F01F030B46504A4FF0A04203F5E07363
:109F94004FF0000C42F823C02368AA6995F814C056
:109FA400C3F824256A7DBCF1010F4CEA0202C3F810
:109FB4006C25C3F80C05C3F814152BD1A968481CEB
:109FC4000DD01F298BBF01F01F020A463E484FF0F7
:109FD400A04002F5E0724FF0000C40F822C0E8689F
:109FE400421C13D01F2887BF00F01F0C364A84463A
:109FF4004FF0A0424FF0010E0EFA0CFE0CF5E07C7F
:10A00400C2F808E54FF0030E42F82CE0C3F8080547
:10A01400C3F8101524237343FA18C2F804902A696C
:10A02400FA50B9F1000F34D04FF4887120682D7FB5
:10A03400FFF7DAFE4FF490712068FFF7D5FE4FF476
:10A0440092712068FFF7D0FE20684FF4A271FFF7E9
:10A05400CBFE22681D4BC2F80433120B51B2002907
:10A06400A8BF01F160404FEA4513BABF184802F097
:10A074000F0500F56140DBB2B4BF435580F80033EF
:10A0840002F01F02012303FA02F24909114B43F8BB
:10A09400212023680822C3F80025242303FB067328
:10A0A4000022C3E906225A61012283F82020404697
:10A0B400BDE8F8834FF00808F9E74FF01108F6E718
:10A0C400103300201D9E0200000300501003020004
:10A0D40014ED00E000E100E02DE9F04103680479AB
:10A0E400254D0022C3F80025242202FB0452064613
:10A0F400526872B1214AC3F80823190B4AB20120ED
:10A10400520901F01F0100FA01F120321C4840F805
:10A114002210D3F80C05D3F81485D3F80815D3F816
:10A1240010754FF0FF329042C3F80C25C3F8142584
:10A13400C3F80825C3F8102501D0FFF7E1FEB8F1F4
:10A14400FF3F02D04046FFF7DBFE7A1C02D03846C0
:10A15400FFF7D6FE4B1C02D00846FFF7D1FE30684D
:10A16400FFF766FB242303FB0454002384F8203008
:10A174006360BDE8F08100BF1033002010030200CB
:10A1840000E100E001F06043B3F1005F2DE9F0412C
:10A19400074632D11B4B0679242505FB0635984624
:10A1A4006C6964BB6A61A96000684FF49071FFF741
:10A1B4001BFE4FF4AC713868FFF716FE3B686A6902
:10A1C400A968C3F84415C3F8482501229A606A684F
:10A1D40062B9D3F82021D3F8584152B9002CF8D0F1
:10A1E4000F24242303FB0686002373612046BDE865
:10A1F400F081002C18BF0F24F3E71024F6E7112494
:10A20400F4E700BF10330020074B1B5C1F2B8ABFF1
:10A21400064A4FF0A04203F01F03D2F80405D840C9
:10A22400C04300F00100704738860300000300506B
:10A23400074B1B5C1F2B86BF03F01F0305494FF020
:10A24400A041012202FA03F3C1F80C35704700BFA4
:10A254003886030000030050074B1B5C1F2B86BF8E
:10A2640003F01F0305494FF0A041012202FA03F352
:10A27400C1F80835704700BF38860300000300505A
:10A2840008B50020FFF7E8FF0120FFF7E5FF0220F3
:10A29400FFF7E2FF0320BDE80840FFF7DDBF08B584
:10A2A4000020FFF7C5FF0120FFF7C2FF0220FFF7E0
:10A2B400BFFF0320BDE80840FFF7BABF0A4B185C94
:10A2C4001F288ABF094B4FF0A04300F01F00D3F8AA
:10A2D40004250121814021EA02000A40C3F808054F
:10A2E400C3F80C25704700BF3886030000030050F4
:10A2F400074B1B5C1F2B8ABF064A4FF0A04203F09A
:10A304001F03D2F81005D840C04300F00100704785
:10A3140034860300000300500B2809D00C2809D010
:10A32400182809D019280CBF03204FF0FF307047BC
:10A33400002070470120704702207047014B185CD1
:10A34400704700BF34860300C20710B504460CD51D
:10A354004FF0A0430322C3F83427C3F83827C3F8C7
:10A364003C27C3F84027FFF78BFFA3070AD54FF01C
:10A37400A0430C22C3F82C27C3F83027C3F8602766
:10A38400C3F8642710BDF0B595B01C4616460846C0
:10A394000D46FEF7DFFC1A9B0D93CDE908640024FB
:10A3A4002346082205A928460A948DF82C400C94CB
:10A3B400FEF7EDFC079B0293069B03939DF8143074
:10A3C4008DF8114003F00302012A1DD1BDF8144099
:10A3D400059EC3F3C203C4F383148DF81030A200A6
:10A3E40008230EA92846FEF7D2FCC6F3952608AB2F
:10A3F4000093224602AB0EA9304600F001FC284629
:10A40400FEF7ACFC15B0F0BD022AF8D1BDF8164039
:10A41400C3F3C203A4098DF810300827082C26467C
:10A4240028BF08263B4632460EA92846FEF7AFFC55
:10A43400A41B08AB02AA31460EA8374400F044FC22
:10A44400002CEBD1DBE70000014B01221A707047AE
:10A45400753300207047000070B50E4D06460FCDD1
:10A4640088B06C460FC495E80F00002E84E80F00F6
:10A474004FF00603084A0948009308BF00226946C2
:10A48400FEF7ECFE08B1FCF78BFB054B1E7008B021
:10A4940070BD00BF3C8603004DA40200EC2A0020DE
:10A4A4003433002007B5044B0093044A4023FFF7DC
:10A4B4006AFF03B05DF804FBC5A402003533002035
:10A4C40038B50D4B0D4D002018700D4804782D5DE6
:10A4D400D2B21C4665B10430FFF754FE08B1FCF754
:10A4E4005FFB084B1A7812B12378002BFBD038BDE0
:10A4F4000C30FFF731FCF1E7753300205C320020AB
:10A50400EC2A00203433002008B50848084A0378B0
:10A51400D35C3BB10430FFF7DFFD0020BDE8084009
:10A52400FFF79ABF0C30FFF7C1FBF6E7EC2A0020D7
:10A534005C3200200120FFF78FBF000008B5FFF751
:10A54400F9FF0421034800F0C9FA034B01225A71B0
:10A5540008BD00BF587E0300002B0020037813F0D1
:10A56400040216D003F00303012B03D0022B09D0FD
:10A57400012070470A6800880232C0F38310024445
:10A584000A60F5E70B684288023303EB92130B6011
:10A59400EEE71046704700002DE9F04F87B0002326
:10A5A4000446851C0DF107000F4690468DF80730D0
:10A5B400FCF7E6FD454806683E60D0E901321344E5
:10A5C40001339B1B824600F21C4600F5836900F2AE
:10A5D4001447AB421BD30022B8F1000F70D00523FF
:10A5E40063F3070264F38912DAF80010DAF808302A
:10A5F4009DF807000B4003330D444AF82320CAF8A2
:10A604000050FCF7E1FD012007B0BDE8F08F012107
:10A614003046FDF7FEFD4846FDF714FE3846FDF7CB
:10A6240011FEDAF80400DAF808B0029000EA0B0030
:10A6340003300AEB800002A9FFF790FF029B50BB96
:10A644000BEA03020AEB820203F1020CD2680392C2
:10A65400013303EA0B0B0AEB8B0B02F00302012A12
:10A66400CDF808C0DBF80C1022D0022A16D083469D
:10A674003846FDF7EAFD10B1029BCAF8043059468A
:10A684003046FDF7C6FDDAE901231344DAF8002069
:10A6940001339B1A9DE70BEA0300C9E7BDF80E30AE
:10A6A4009B0903334FEA114B0CEB93030293DFE74F
:10A6B400BDF80C30C3F383134FEA114B6344F5E741
:10A6C400062363F3070264F39F528DE748340020A6
:10A6D4000B4B0C48FF2210B59A600022C3F81824D3
:10A6E400C3E90022C3F8142483F82024FEF7EBFA0C
:10A6F400044610B90448FEF75DFC204610BD00BFB7
:10A70400483400200C7E03007C86030030B50A4CDC
:10A7140071B10A4A0A49121BD20800239A4201D194
:10A72400002030BD31F82350854202D00133F5E7D3
:10A73400034654F83300F4E71C7D03000C7E030049
:10A74400D82A0020094B013903EBC000032909D89A
:10A75400DFE801F00A02040604207047007970471C
:10A764004079704700207047022070471C7D030029
:10A77400034BD3E90030C31A58425841704700BF15
:10A78400483400202DE9F04387B0FFF7F1FF064677
:10A79400002840F0FB807E4DC5F81804BFF34F8FAE
:10A7A4006868AC6802902040033005EB800002A981
:10A7B400FFF7D4FE029B18B1D5F81824002A5FD005
:10A7C40004EA0302991C013305EB8202234005EBE2
:10A7D4008303D268DB68049302F00303022B039221
:10A7E400029162D1BDF80E306A484FEA9318B8F16D
:10A7F400500FC14628BF4FF0500969F38F1309F178
:10A804000801ADF80E30FEF776FA0746002800F08E
:10A81400A880FEF79FFA03A9002308223846FEF712
:10A82400ACFA029924EA01060136B600B14535D9DD
:10A834005FFA89F97EB3F6B2A9EB06092140033128
:10A844005FFA89F4B146544E05EB810108234A4668
:10A854003846FEF792FA36B109F10803224631462A
:10A864003846FEF78AFA029B08F1030803EB9803C3
:10A874000293D5F81834002B4BD1D5F810445BE083
:10A884002A689A4204D86A60304607B0BDE8F0836B
:10A8940004EA030088E740493446D7E721400331FE
:10A8A40008234A4605EB8101DAE7012B59D1BDF8AB
:10A8B4000C303848C3F38311062928BF062161F3FD
:10A8C400891302318900ADF80C30FEF714FA0746FB
:10A8D400002846D0FEF73EFA0023082203A9384692
:10A8E400FEF74BFA0026BDF80C20C2F38312B30026
:10A8F400964203F10803BCD202994A1C2140033159
:10A90400029205EB810104223846FEF736FA01363D
:10A91400E9E73846FEF722FAFFF72AFF80F0010044
:10A92400C6B2B1E7E3685B7923B1236839461B6893
:10A9340020469847E3681C68002CF3D13846FEF79C
:10A944000DFA0DF107008DF80740FCF719FCD5F856
:10A9540018340BB9029B6B609DF80700FCF734FCBC
:10A96400DAE7D5F8104454B90C4B0D480D49C01A18
:10A97400C008000440F0020000F06EF8CCE7236841
:10A9840020469B689847E3681C68ECE700267BE751
:10A99400483400200C7E0300543400201C7D030046
:10A9A4004C7D0300888603002DE9F74F284C804630
:10A9B4000F46924601A9012218469B46D4F80890F6
:10A9C400FFF7EAFD80B3019D0026A91C5E4506EB56
:10A9D400010233D100211F48FDF7DAFB80F3100098
:10A9E4006A1C02EA090204EB8202000405EA090374
:10A9F400033340EA1840D06014F8232068F3C502FA
:10AA040004F8232034F8232066F3891224F8232041
:10AA140054F8232067F39F2244F8232002F0F8021D
:10AA240042F0010204F8232094F820341BB1FFF70C
:10AA3400A9FE0028FBD103B0BDE8F08F09EA0202A9
:10AA440004EB82025AF82630D3600136BEE700BF19
:10AA5400483400206438002000231A46FFF7A4BFBE
:10AA640007B50123019201AAFFF79EFF03B05DF829
:10AA740004FB07B5CDE9002302236A46FFF794FFE0
:10AA840003B05DF804FB1FB5CDE90123069B0393D6
:10AA940001AA0323FFF788FF05B05DF804FB1FB587
:10AAA400CDE90023069B0293079B03936A46042384
:10AAB400FFF77AFF05B05DF804FB7FB5CDE901230C
:10AAC400089B0393099B04930A9B059301AA0523FE
:10AAD400FFF76AFF07B05DF804FB000030B50F49CB
:10AAE400D1F81024002314463CB9C468237152B928
:10AAF400C1F810042260184630BDE46825799D42EF
:10AB040006D02468F0E7D268116821601060F2E78B
:10AB140001330A2BE7D14FF0FF33ECE74834002030
:10AB2400094A38B50123D2F8104482F820341D466E
:10AB340004B938BDE3685D71236820465B689847B3
:10AB4400E3681C68F4E700BF48340020037A052B4F
:10AB540010B50C460FD0437A23B1084A0849204661
:10AB6400FDF7D6FB07492046FDF7D2FB2046BDE89A
:10AB74001040FDF7C2BB002AF8D0F3E7D3860300E8
:10AB84008B9C0300F5860300C38873B504460D4609
:10AB940033B1144A00921449144A2846FDF7B8FB0D
:10ABA400217A05291CD0637A4BB1A088FFF7CAFD2E
:10ABB4000F4B104953F820202846FDF7A9FB227AB1
:10ABC4000D4BA08853F822600021FFF79FFD0B492D
:10ABD40003463246284602B0BDE87040FDF798BBF4
:10ABE40002B070BDD3860300E0860300D88603005C
:10ABF400A08603008B9C030004870300F8860300EF
:10AC04002DE9F04385B01F460C9D002306460C46F3
:10AC1400904695F80C902B7329463846FFF7B4FFFD
:10AC2400B8F1060F09D8DFE808F00412181F28331A
:10AC3400400031462846FDF76BFB00222946384682
:10AC4400FFF784FF85F80C9005B0BDE8F083226817
:10AC540031462846FDF75CFBEFE7D4E90023314693
:10AC64002846FDF755FBE8E7A36800933146D4E98D
:10AC740000232846FDF74CFBDFE7E3680193A36854
:10AC840000933146D4E900232846FDF741FBD4E77D
:10AC940023690293E3680193A36800933146D4E9DE
:10ACA40000232846FDF734FBC7E763690393236950
:10ACB4000293E3680193A36800933146D4E9002327
:10ACC4002846FDF725FBB8E708292DE9F84F80460B
:10ACD4000E4617461C463AD8002593F80C901D736F
:10ACE40019461046FFF750FFDFF884A0DFF884B060
:10ACF400AE422ED918F8052059462046FDF708FB28
:10AD04000135082DF4D11849DFF86CB02046FDF761
:10AD1400FFFA4FF0000A564520D918F80A507E2D44
:10AD240003D8284606F0FEFB00B92E252A465946CC
:10AD34002046FDF7EDFA0AF1010ABAF1080FEAD14B
:10AD4400012221463846FFF701FF84F80C90BDE844
:10AD5400F88F51462046FDF7DBFAD1E70349204638
:10AD6400FDF7D6FAE7E700BFCE860300CC860300E2
:10AD7400CA860300C4860300D086030028B139B113
:10AD84000023C1E900301846704748F2105070475C
:10AD940048F21350704730B1036848F240508B4278
:10ADA40008BF0020704748F21050704730B119B105
:10ADB4000B68934205D30A600020704748F2135091
:10ADC400704748F2145070472DE9F041884600AFAF
:10ADD40006461146404615461C46FFF7CFFF08BB02
:10ADE40021464046FFF7CAFFE0B998F80430104AFC
:10ADF40052F82380B8F1000F17D056B90D4A32F833
:10AE0400133033B107336A46DB08A2EBC3039D4614
:10AE14006E46224629463046C04718B9064B2B6079
:10AE2400063B2360BD46BDE8F08148F20350F9E7D4
:10AE340080870300648703007652464D70B505464B
:10AE44000C461E46FFF79AFF70B9AB796AB1B3425C
:10AE54000ED12979094B53F8213063B111462046AC
:10AE6400984708B9064B236070BD48F21050FBE7C1
:10AE740048F21150F8E748F20350F5E7B4870300AD
:10AE84007052464D2DE9F0410D460D4904461746D2
:10AE9400FFF781FF90B966683946B2792846FFF713
:10AEA40085FF58B93279074B53F8223023B129462C
:10AEB4002046BDE8F041184748F20350BDE8F08150
:10AEC4007052464DE8870300F0B528B14079D9B1F6
:10AED4008AB948F2135315E01846F8E7441E0025D2
:10AEE4004E5D0F5D575516550135013CA542F7D906
:10AEF4001B1A014402448342F0D2002B48F211523F
:10AF040018BF13461846F0BD48F21053FAE7000084
:10AF14002DE9F8430C4600AF81461E4920461546EC
:10AF24001E46FFF738FF58BB1B492846FFF733FF7F
:10AF340030BBD4F804806B68984524D198F8052078
:10AF4400396A3046FFF732FFD0B998F80430134A13
:10AF540052F82380B8F1000F18D0B9F1000F0AD1CC
:10AF64000F4A32F8133033B107336A46DB08A2EBD9
:10AF7400C3039D46E94633462A4621464846C04710
:10AF8400BD46BDE8F88348F24150F9E748F2035062
:10AF9400F6E700BF7652464D7052464D1C880300BA
:10AFA4004C880300F8B50A4F0A4C0B4DE41B0121F1
:10AFB400E40829700026A64203D102232B70002046
:10AFC400F8BD57F8363098470028F9D10136F2E732
:10AFD400507E0300587E030004390020054B1A7884
:10AFE400022A04D01878431E584258417047012061
:10AFF400704700BF0439002070B51B4B6A469A4263
:10B0040006460D4605D3FFF7E9FF78B94FF405402E
:10B0140070BD164B16481749C01AC008000440F00A
:10B024000100FFF719FD48F21950F1E7124C2368AB
:10B0340023B1124B1A68124B9A420FD086B97DB9CC
:10B0440010481149206000F0B5FF0028E0D10B4BF7
:10B054000B4A1A6023680D4A1A60D9E70020D7E723
:10B0640048F21750D4E700BF00E003201C7D030022
:10B074004C7D030064880300D4510020F039002083
:10B084006572E54B08390020F43900206169614D8F
:10B0940010B51346154A6C4694420ED3D3B9144ADC
:10B0A4001468144A94421AD1E0B913480A46006855
:10B0B4001249BDE8104000F0C7BF114B11481249B6
:10B0C400C01AC008000440F00100FFF7C5FC48F2B4
:10B0D400195010BD0029E2D148F21050F9E748F2A6
:10B0E4000250F6E748F21750F3E700BF00E00320F0
:10B0F400F03900206572E54BD4510020F43900206A
:10B104001C7D03004C7D0300648803002DE9F0419D
:10B114000D4617460446F0B109B3144B1A68144B94
:10B124009A421FD1134E3B460A460146306800F04E
:10B1340067FF48F2715398420FD10022114610461E
:10B14400FFF7A6FF48B93B462A4621463068BDE8CA
:10B15400F04100F055BF48F21350BDE8F08148F2C9
:10B164001450FAE748F20250F7E700BFF039002024
:10B174006572E54BD45100200122FFF7C7BF0022BE
:10B18400FFF7C4BF75DF704776DF70478FDF704706
:10B1940010B501460446044805F0A8FD21460348BD
:10B1A400BDE8104005F082BCF8510020D8510020C1
:10B1B40010B504460020FBF7ADFA08B1FBF7F0FC2C
:10B1C40024B9FBF789FB08B1FBF7EAFC012010BDA9
:10B1D40008B50020FDF78AFB18B10E4B01221A7046
:10B1E40008BD0D4B0D480E49C01AC008000440F0BC
:10B1F4000300FFF731FC0B4803F0BEF808B1FBF77E
:10B20400CFFC0120FBF786FA0028E9D0BDE808400E
:10B21400FBF7C6BC045200201C7D03004C7D0300D8
:10B22400678A03000852002010B50388192B86B0E2
:10B23400044674D011D8112B47D003D8102B26D034
:10B2440006B010BD172B63D0182BF9D13F48404BE3
:10B254004049C01AC00800044DE0212B50D00DD83D
:10B264001B2B3FD01F2BEBD100F108018088FFF787
:10B2740089FF0028E4D0FBF793FCE1E73B2B01D0E6
:10B28400562BDDD11321A088FFF77EFFF1E7304B69
:10B294002E483149C01AC008000440F00300FFF7EB
:10B2A400DBFBA1882D4801F0D1FA08B1FBF778FC4B
:10B2B4000720FBF72FFA08B1FBF772FC01F0B2F894
:10B2C4000028BDD1FFF784FFBAE7214B1F48227A3B
:10B2D4002349C01AC008000440F00300FFF7C0FB74
:10B2E4000020E6E7037A022BAAD11848184B1D491F
:10B2F400C01AC008000440F00300FFF7ADFB9FE74D
:10B30400002305A98088ADF81430FFF73FFFB0E7AC
:10B314000E480F4B1449C01AC0080004EBE7437AE7
:10B324000B4A0A481149801A627B0292227B0192DD
:10B33400A27AC008C2F3C00200040092C3F38003DF
:10B34400227A40F00300FFF7B8FB79E74C7D030055
:10B354001C7D03001E890300BD880300082B002008
:10B36400C8880300E3880300018903003D890300C2
:10B3740010B5044604F06EFC204604F091FA2378DC
:10B384000C2B03D1BDE81040FFF722BF10BD000015
:10B39400072810B513D00A280CD0042824D113216F
:10B3A4000020FFF7F1FE30F008031DD0BDE8104087
:10B3B400FBF7F6BB0020BDE81040FDF733BD0B4C96
:10B3C40023788BB90A4B0B480B49C01AC0080004F8
:10B3D40040F00300FFF740FB0123237002F06DFFF0
:10B3E400BDE81040FFF7F4BE10BD00BF845200203A
:10B3F4001C7D03004C7D030093890300023801285F
:10B4040006D8044B1A781AB100221A70FFF7E0BE6E
:10B41400704700BF045200200B8840F67722934205
:10B4240004D04DF67A2293420CD070470A4B0B4855
:10B434004A88C01AC0088B880949000440F00300F8
:10B44400FFF717BB044B05484A88C01AC0080B799C
:10B4540004490004F2E700BF1C7D03004C7D030097
:10B46400B3890300E289030038B50B78012B054644
:10B474000C4602D0022B19D038BD0A1D498805F0AC
:10B484001DFD08B1FBF78CFB0021608803F014FF5D
:10B49400112802D008B1FBF783FB284605F0E8FC2D
:10B4A4000028E9D0BDE83840FBF77ABB064B0748D3
:10B4B4008A880749C01AC008000440F00300BDE8A8
:10B4C4003840FFF7CDBA00BF1C7D03004C7D03005C
:10B4D400118A03000B78012B10B5044619D013B15F
:10B4E400022B23D010BD0A1D498805F0CFFB08B1FB
:10B4F400FBF756FB204605F0A7FB08B1FBF750FB12
:10B50400204605F075FB0028ECD0BDE81040FBF7A1
:10B5140047BB0A480A4B0A790A49C01AC008000402
:10B5240040F00300BDE81040FFF79ABA0348044B0B
:10B534000A790549C01AC0080004F1E74C7D0300EC
:10B544001C7D030082880300A088030070B5037883
:10B55400042BB4B057D0062B4FD0012B43D1382243
:10B56400002106A806F064F88022002114A806F041
:10B574005FF8082310224FF6FF710DEB0300CDE9AD
:10B58400003306F055F84FF6FF7003F005FF02ADE7
:10B5940000244FF6FF76B04227D1214602A803F0DB
:10B5A40099FE08B1FBF7FCFA214602A803F0B4FEA9
:10B5B400062802D008B1FBF7F3FA01AB14AA6946D6
:10B5C40006A803F091FEDDE900231343144C01D0D7
:10B5D400237833B10021134802F004FF08B1FBF7CC
:10B5E400DFFA0023237034B070BD082CD5D00134A9
:10B5F40025F8020B03F0D0FECDE740680028F2D016
:10B60400FBF7CEFAEFE7084B08480949C01AC0080F
:10B61400000440F00300FFF71FFAFFF7D9FDE2E74B
:10B6240084520020085200201C7D03004C7D03003E
:10B63400578A030008B5037883B10B4B0B480C49B8
:10B64400C01AC008000440F00300FFF705FA03F035
:10B65400C1FE38B1BDE80840FBF7A2BABDE8084016
:10B66400FFF7B6BD08BD00BF1C7D03004C7D030081
:10B67400768A03007FB54FF400410020FFF728F8D5
:10B6840008B1FBF78DFAFEF759FFFBF7E1FC08B1AF
:10B69400FBF786FAFDF78AFB08B1FBF781FA5C49F0
:10B6A4000320FBF743F808B1FBF77AFA02A900205C
:10B6B400FBF722F908B1FBF773FA9DF808309A1EDC
:10B6C400534253418DF8033005F060FC08B1FBF799
:10B6D40067FA002302A90120029305F025FD08B1B1
:10B6E400FBF75EFA02A805F0F3FD08B1FBF758FA80
:10B6F4004849494802F09AFA08B1FBF751FA03F0B5
:10B7040037FD08B1FBF74CFA0522002102A805F029
:10B714008FFF029B03F07C42404B134302939DF83E
:10B724000C3023F0030343F0030302A88DF80C301C
:10B7340003F0B8FD08B1FBF733FA394803F09AFD7A
:10B7440008B1FBF72DFA374801F046F808B1FBF7CA
:10B7540027FA354B3548029302A905F003FB08B1DB
:10B76400FBF71EFA324B3348029302A905F0DAF9CB
:10B7740008B1FBF715FA1022002102A805F058FFC2
:10B784002D4B02932D4A2E48012302A98DF80C302B
:10B794008DF8143002F093FD08B1FBF701FA294B40
:10B7A4001868019001AA0321254802F0DDFC08B1C4
:10B7B400FBF7F6F9244805F095FF38B1224A2048F2
:10B7C400002102F0D1FC08B1FBF7EAF900221F21A5
:10B7D4001B4802F04FFD08B1FBF7E2F91B4B1C4874
:10B7E4001C49C01AC008000440F00300FFF734F9F4
:10B7F4000DF10300FFF71EFF02F0A4FB08B1FBF7F5
:10B80400CFF9FEF7BFFF0028FBD1FDF7E5FAF3E718
:10B8140095B302001DB40200E45100203507100363
:10B8240075B3020095B102006DB40200F851002016
:10B83400D9B40200D8510020228A030051B5020075
:10B84400085200207E880300308A03001C7D030018
:10B854004C7D0300318A0300054B1B68082B01BF94
:10B86400044B1868B0FA80F0400918BF00207047F4
:10B87400300100103401001008B54FF0804300225D
:10B88400C3F80C21C3F81021C3F838254FF08052B7
:10B8940003F54043D2F80414C3F82015D2F8081471
:10B8A400C3F82415D2F80C14C3F82815D2F81014D0
:10B8B400C3F82C15D2F81414C3F83015D2F81814A0
:10B8C400C3F83415D2F81C14C3F84015D2F8201468
:10B8D400C3F84415D2F82414C3F84815D2F8281430
:10B8E400C3F84C15D2F82C14C3F85015D2F8301400
:10B8F400C3F85415D2F83414C3F86015D2F83814C8
:10B90400C3F86415D2F83C14C3F86815D2F840148F
:10B91400C3F86C15D2F84424C3F87025FFF79CFFD4
:10B9240010B1384B384A1A60FFF796FF18B1374BFD
:10B93400FB22C3F81825FFF78FFF48B13449354B74
:10B944000A681B6822F00F0203F00F0313430B6015
:10B95400FFF782FF18B1304B4FF400721A604FF0BA
:10B964008043D3F80024D20744BF6FF00102C3F828
:10B9740000242A4AD2F8883043F47003C2F888308D
:10B98400BFF34F8FBFF36F8F4FF01023D3F8002214
:10B99400002A03DBD3F80432002B2FDA204B0122D8
:10B9A400C3F80425D3F80024002AFBD04FF010225A
:10B9B4001221C2F80012D3F80024002AFBD04FF061
:10B9C40010231222C3F80422154B1A46D3F800148C
:10B9D4000029FBD00021C3F80415D2F80034002B51
:10B9E400FBD0BFF34F8F0D490E4BCA6802F4E062DF
:10B9F4001343CB60BFF34F8F00BFFDE70A4B0B4AE5
:10BA04001A6008BD8C5600404881030000F00040D5
:10BA1400E40E0040580200104096024000ED00E0A1
:10BA240000E001400400FA05D42D00200090D0036A
:10BA3400BFF35F8F014B00221A60704788520020C9
:10BA440008B501210448FCF7A3FBBFF35F8FB0FAEC
:10BA540080F0400908BD00BF885200200E4B984278
:10BA640013D005D8002848F2165318BF184670475B
:10BA74000A4B98420CD00A4948F2425248F21653F3
:10BA840088420CBF10461846704748F2425070472F
:10BA940048F20250704700BF8408F000080CF00020
:10BAA4002023F0002DE9F041037AA4B0064688462D
:10BAB400A3BB4568A86808F053F804238DF8083040
:10BAC40006F10C070446AA7939460DF1090005F080
