:020000022000DC
:1060000000000420756302005D6302005F6302000C
:106010006163020063630200656302000000000028
:1060200000000000000000000000000067630200A4
:1060300069630200000000006B6302006D630200F0
:10604000E59802006F6302009D9D02006F630200ED
:106050006F6302006F630200F19B02006F63020036
:106060006F6302006F6302006F6302006F630200E0
:106070006F6302006F6302006F6302006F630200D0
:106080006F6302006D7102006F6302006F630200B4
:10609000097202006F630200350503006F6302009E
:1060A0006F6302006F6302006F6302006F630200A0
:1060B0006F6302006F630200000000000000000038
:1060C0006F6302006F6302006F6302006F63020080
:1060D0006F6302006F6302006F6302006F63020070
:1060E0006F6302006F6302006F6302000000000034
:1060F000000000006F630200000000006F630200F8
:10610000000000000000000000000000000000008F
:10611000000000000000000000000000000000007F
:10612000000000000000000000000000000000006F
:10613000000000000000000000000000000000005F
:10614000000000000000000000000000000000004F
:10615000000000000000000000000000000000003F
:10616000000000000000000000000000000000002F
:10617000000000000000000000000000000000001F
:10618000000000000000000000000000000000000F
:1061900000000000000000000000000000000000FF
:1061A00000000000000000000000000000000000EF
:1061B00000000000000000000000000000000000DF
:1061C00000000000000000000000000000000000CF
:1061D00000000000000000000000000000000000BF
:1061E00000000000000000000000000000000000AF
:1061F000000000000000000000000000000000009F
:10620000354936480A1A02D0072291438D4634494F
:1062100034480A1A06D00722914381F309880222E2
:1062200082F3148830483149314A00F044F831484B
:106230003149324A00F03FF831483249324A00F0E1
:106240003AF832483249334A00F035F83248334997
:10625000334A00F030F833483349344A00F02BF821
:1062600033483449344A00F026F83448344900228F
:1062700000F02CF833483449002200F027F8334866
:106280003349091A082902DB002202604160314AC1
:1062900090471F481F49884205D00268043003B464
:1062A000904703BCF7E700208646EC46002000211B
:1062B000294A9047FEE7884207D0521A05D0037852
:1062C00001300B700131013AF9D17047884202D098
:1062D00002700130FAE770470000042000E003205C
:1062E00000000420000004202031030024220020AC
:1062F00088220020D4630200D4630200280B03002C
:10630000203103002422002024220020A80C0300B6
:10631000A80C0300A80C0300A80C0300A80C0300A1
:10632000A80C0300A80C0300A80C030020310300F4
:106330008431030088220020882200208822002047
:106340002237002024370020243700202437002063
:10635000245700209D630200C1AF0200FEE7FEE764
:10636000FEE7FEE7FEE7FEE7FEE7FEE7FEE7FEE705
:10637000704700BF1048804710484FF0070188431E
:1063800085460F4880470F48016841F4700101605D
:10639000BFF34F8FBFF36F8FFFF732BF0A480B4930
:1063A0000B4A884207D0521A05D0037801300B708F
:1063B0000131013AF9D170477163020000000420F5
:1063C0006193020088ED00E0940C0300102200208D
:0463D0002422002063
:1063D400F0B595B01C46164608460D4602F0CEFEB2
:1063E4001A9B0D93CDE9086400242346082205A9CD
:1063F40028460A948DF82C400C9402F0DCFE079B8E
:106404000293069B03939DF814308DF8114003F01A
:106414000302012A1DD1BDF81440059EC3F3C20333
:10642400C4F383148DF81030A20008230EA9284663
:1064340002F0C1FEC6F3952608AB0093224602ABD8
:106444000EA9304600F0F0FB284602F09BFE15B082
:10645400F0BD022AF8D1BDF81640C3F3C203A40963
:106464008DF810300827082C264628BF08263B46FE
:1064740032460EA9284602F09EFEA41B08AB02AACF
:1064840031460EA8374400F033FC002CEBD1DBE797
:10649400014B01221A707047C92200207047000086
:1064A40070B50E4D06460FCD88B06C460FC495E806
:1064B4000F00002E84E80F004FF00603084A094835
:1064C400009308BF0022694603F0A4F908B100F064
:1064D4009DFD054B1E7008B070BD00BFA80C0300E5
:1064E40095640200242200208822002007B5044B72
:1064F4000093044A4023FFF76BFF03B05DF804FBED
:106504000D6502008922002038B50D4B0D4D002089
:1065140018700D4804782D5DD2B21C4665B1043064
:1065240004F09AF808B100F071FD084B1A7812B122
:106534002378002BFBD038BD0C3003F077FEF1E755
:10654400C9220020D02B00202422002088220020F1
:1065540008B50848084A0378D35C3BB1043004F01A
:1065640025F80020BDE80840FFF79ABF0C3003F07F
:1065740007FEF6E724220020D02B00200120FFF79D
:106584008FBF000008B5FFF7F9FF0421034800F0AE
:10659400B9FA034B01225A7108BD00BF840C0300F1
:1065A40038220020037813F0040216D003F003030A
:1065B400012B03D0022B09D0012070470A68008800
:1065C4000232C0F3831002440A60F5E70B68428884
:1065D400023303EB92130B60EEE7104670470000A2
:1065E4002DE9F04F87B000230446851C0DF1070008
:1065F4000F4690468DF8073000F0F8FF45480668CE
:106604003E60D0E90132134401339B1B824600F201
:106614001C4600F5836900F21447AB421BD30022E9
:10662400B8F1000F70D0052363F3070264F38912F5
:10663400DAF80010DAF808309DF807000B4003334D
:106644000D444AF82320CAF8005000F0F3FF01205B
:1066540007B0BDE8F08F0121304602F010F848463B
:1066640002F026F8384602F023F8DAF80400DAF8E3
:1066740008B0029000EA0B0003300AEB800002A984
:10668400FFF790FF029B50BB0BEA03020AEB820266
:1066940003F1020CD2680392013303EA0B0B0AEBF9
:1066A4008B0B02F00302012ACDF808C0DBF80C10B2
:1066B40022D0022A16D08346384601F0FCFF10B1DE
:1066C400029BCAF804305946304601F0D8FFDAE993
:1066D40001231344DAF8002001339B1A9DE70BEAE7
:1066E4000300C9E7BDF80E309B0903334FEA114B91
:1066F4000CEB93030293DFE7BDF80C30C3F3831371
:106704004FEA114B6344F5E7062363F3070264F38E
:106714009F528DE79C2300200B4B0C48FF2210B5A1
:106724009A600022C3F81824C3E90022C3F8142491
:1067340083F8202402F0DBFC044610B9044802F07C
:1067440083FD204610BD00BF9C230020B80B03002E
:10675400E80C030030B50A4C71B10A4A0A49121B0D
:10676400D20800239A4201D1002030BD31F82350D1
:10677400854202D00133F5E7034654F83300F4E7C9
:10678400CC0B0300840C030024220020094B0139A4
:1067940003EBC000032909D8DFE801F00A0204066C
:1067A4000420704700797047407970470020704793
:1067B40002207047CC0B0300034BD3E90030C31A0B
:1067C40058425841704700BF9C2300202DE9F043F4
:1067D40087B0FFF7F1FF0646002840F0FB807E4DAE
:1067E400C5F81804BFF34F8F6868AC680290204066
:1067F400033005EB800002A9FFF7D4FE029B18B119
:10680400D5F81824002A5FD004EA0302991C013346
:1068140005EB8202234005EB8303D268DB68049313
:1068240002F00303022B0392029162D1BDF80E30F1
:106834006A484FEA9318B8F1500FC14628BF4FF089
:10684400500969F38F1309F10801ADF80E3002F015
:1068540066FC0746002800F0A88002F08FFC03A91C
:1068640000230822384602F09CFC029924EA01061F
:106874000136B600B14535D95FFA89F97EB3F6B26F
:10688400A9EB0609214003315FFA89F4B146544E5D
:1068940005EB810108234A46384602F082FC36B1F2
:1068A40009F1080322463146384602F07AFC029B7D
:1068B40008F1030803EB98030293D5F81834002B6E
:1068C4004BD1D5F810445BE02A689A4204D86A6038
:1068D400304607B0BDE8F08304EA030088E7404986
:1068E4003446D7E72140033108234A4605EB8101AA
:1068F400DAE7012B59D1BDF80C303848C3F38311C2
:10690400062928BF062161F3891302318900ADF8F5
:106914000C3002F004FC0746002846D002F02EFC9E
:106924000023082203A9384602F03BFC0026BDF8E8
:106934000C20C2F38312B300964203F10803BCD2C5
:1069440002994A1C21400331029205EB8101042281
:10695400384602F026FC0136E9E7384602F012FC1C
:10696400FFF72AFF80F00100C6B2B1E7E3685B7964
:1069740023B1236839461B6820469847E3681C689E
:10698400002CF3D1384602F0FDFB0DF107008DF821
:10699400074000F02BFED5F818340BB9029B6B604E
:1069A4009DF8070000F046FEDAE7D5F8104454B924
:1069B4000C4B0D480D49C01AC008000440F00200F9
:1069C40000F06EF8CCE7236820469B689847E3689C
:1069D4001C68ECE700267BE79C230020B80B03002F
:1069E400A8230020CC0B0300F40B0300F40C0300D9
:1069F4002DE9F74F284C80460F46924601A9012203
:106A040018469B46D4F80890FFF7EAFD80B3019D31
:106A14000026A91C5E4506EB010233D100211F4864
:106A240001F0ECFD80F310006A1C02EA090204EB99
:106A34008202000405EA0903033340EA1840D060E7
:106A440014F8232068F3C50204F8232034F8232023
:106A540066F3891224F8232054F8232067F39F2235
:106A640044F8232002F0F80242F0010204F8232043
:106A740094F820341BB1FFF7A9FE0028FBD103B022
:106A8400BDE8F08F09EA020204EB82025AF82630CC
:106A9400D3600136BEE700BF9C230020B827002046
:106AA40000231A46FFF7A4BF07B50123019201AAE8
:106AB400FFF79EFF03B05DF804FB07B5CDE90023A3
:106AC40002236A46FFF794FF03B05DF804FB1FB589
:106AD400CDE90123069B039301AA0323FFF788FF53
:106AE40005B05DF804FB1FB5CDE90023069B0293B6
:106AF400079B03936A460423FFF77AFF05B05DF80A
:106B040004FB000030B50F49D1F8102400231446CB
:106B14003CB9C468237152B9C1F810042260184604
:106B240030BDE46825799D4206D02468F0E7D26838
:106B3400116821601060F2E701330A2BE7D14FF0AE
:106B4400FF33ECE79C230020094A38B50123D2F82F
:106B5400104482F820341D4604B938BDE3685D71E1
:106B6400236820465B689847E3681C68F4E700BF25
:106B74009C230020037A052B10B50C460FD0437AD2
:106B840023B1084A0849204601F0F8FD0749204688
:106B940001F0F4FD2046BDE8104001F0E4BD002AF8
:106BA400F8D0F3E73F0D0300DF240300610D030079
:106BB400C38873B504460D4633B1144A0092144990
:106BC400144A284601F0DAFD217A05291CD0637A9B
:106BD4004BB1A088FFF7DAFD0F4B104953F8202082
:106BE400284601F0CBFD227A0D4BA08853F8226091
:106BF4000021FFF7AFFD0B4903463246284602B099
:106C0400BDE8704001F0BABD02B070BD3F0D030095
:106C14004C0D0300440D03000C0D0300DF2403009E
:106C2400700D0300640D03002DE9F04385B01F4689
:106C34000C9D002306460C46904695F80C902B7349
:106C440029463846FFF7B4FFB8F1060F09D8DFE844
:106C540008F00412181F283340003146284601F07A
:106C64008DFD002229463846FFF784FF85F80C90F5
:106C740005B0BDE8F08322683146284601F07EFD68
:106C8400EFE7D4E900233146284601F077FDE8E731
:106C9400A36800933146D4E90023284601F06EFD31
:106CA400DFE7E3680193A36800933146D4E9002346
:106CB400284601F063FDD4E723690293E368019356
:106CC400A36800933146D4E90023284601F056FD19
:106CD400C7E76369039323690293E3680193A36895
:106CE40000933146D4E90023284601F047FDB8E774
:106CF40008292DE9F84F80460E4617461C463AD817
:106D0400002593F80C901D7319461046FFF750FFA9
:106D1400DFF884A0DFF884B0AE422ED918F805203D
:106D24005946204601F02AFD0135082DF4D11849B1
:106D3400DFF86CB0204601F021FD4FF0000A564503
:106D440020D918F80A507E2D03D8284609F0FCFDF6
:106D540000B92E252A465946204601F00FFD0AF1B6
:106D6400010ABAF1080FEAD1012221463846FFF799
:106D740001FF84F80C90BDE8F88F5146204601F0DD
:106D8400FDFCD1E70349204601F0F8FCE7E700BF2A
:106D94003A0D0300380D0300360D0300300D0300D7
:106DA4003C0D03002DE9F04F394E87B04FF0000938
:106DB400384B1B785FFA89F5AB4202D807B0BDE8BF
:106DC400F08F354BD3F800A01AF835000124D6E92A
:106DD400001EA0F12002C0F1200304FA02F224FAFA
:106DE40003F3134304FA00FC009301EA0C03029337
:106DF400009B0EEA03030393DDE9022313430AEB2A
:106E0400C50B41D0009B21EA0C012EEA0303C6E91D
:106E1400001302F0DDFE1AF835502049A5F12002D6
:106E2400C5F1200304FA02F224FA03F31343D1E96F
:106E340000C2AC40134004EA0C0105930024C3B221
:106E4400CDE90034009A0491C5F12003A5F1200195
:106E540022FA03F302FA01F848EA03081346AB40A6
:106E64001F46DDE90434444508BFBB420CD1DBF8BE
:106E740004304BB19BF801104A1E51425141081A8B
:106E8400414241412846984709F1010990E700BF72
:106E940088280020582800209028002080280020DE
:106EA4002DE9F0418046204800F090FBD0BB01253D
:106EB400A8F12004C8F1200325FA03F305FA04F429
:106EC4001C431A4BD3E9001205FA08F501EA05063A
:106ED40002EA040756EA07001E461DD1404602F0A6
:106EE40077FE134BD3E9001288B129432243C3E947
:106EF4000012D6E900231C430E4B0B4819681543B6
:106F0400C6E900540022BDE8F04100F019BB21EAB3
:106F1400050122EA0402EAE721EA050522EA04045B
:106F2400C3E90054BDE8F0816028002088280020CF
:106F3400802800205C280020042A2DE9F34105461E
:106F44000C4616463AD902F073FDD8B11C4B1D49C4
:106F54001D601D4BDFF884801C701C4B00221E60DA
:106F64000023C1E900231A49C1E90023013CE4B22A
:106F740000260327FF2C0CD1164A1748002100F0E5
:106F8400CDFA03E002F01CFD0028DFD002B0BDE81A
:106F9400F08123B205EBC30201A992788DF8052094
:106FA40015F833008DF8066042468DF8047002F03F
:106FB40049FD013CE4B20028DCD0E7E70720E5E71F
:106FC4009028002080280020582800205C280020D9
:106FD40088280020A96D0200D00D0300A56E0200D0
:106FE40070B5084D084E00242B789C4201D3002034
:106FF40070BD3368012113F8340002F09FFD0134A1
:10700400F2E700BF58280020902800201FB5002177
:10701400039001AA44F20100CDE9011100F004F843
:1070240005B05DF804FB000010B572B6FFF78CFDE7
:10703400FFF7CCFB0028FBD1104B114C1149E41A8B
:10704400E408240444F00100FFF72AFD0E4B1B68FA
:10705400DB0700D500BE0D4944F00200FFF720FD18
:10706400BFF34F8F0A490B4BCA6802F4E062134323
:10707400CB60BFF34F8F00BFFDE700BFCC0B030015
:10708400F40B0300D40D0300F0ED00E0E00D030069
:1070940000ED00E00400FA05094A537891780133C1
:1070A400DBB2994208BF0023117899421FBF0370D5
:1070B4005078182303FB002014BF043000207047CD
:1070C4009428002073B5054600240DF107000E46F0
:1070D4008DF8074000F08AFA0DF10600FFF7DCFF97
:1070E40090B10670094B9DF8062045605A709DF8D2
:1070F400070000F09FFA24B9054B4FF48012C3F83F
:107104000021204602B070BD0424F0E7942800203A
:1071140000E100E0024B4FF43C6043F001031847E8
:10712400F00D030038B50C4B0C4C4FF40032C3F88F
:10713400802001254FF48033C4F84833C4F8083361
:107144006560FFF7E7FF064BA56000241C60FFF7AE
:10715400E1FF044B1C7038BD00E100E00010014069
:10716400B0290020A1290020F8B51F4B1F491B6836
:107174000025C1F84051C1F84451C1F84851C1F843
:107184004C51C1F80051C1F804514BB3D1F8044536
:1071940017490968641A24F07F442F461A68A242EA
:1071A40009D8A41A15441A7CDE691AB11F74D3E9EC
:1071B40005209047AEB90F4A0F4B11781B788B42CC
:1071C40005D10133DBB2022B08BF00231370127800
:1071D4000A4B43F822500A4B4FF48012C3F80021A3
:1071E400F8BD3346DAE700BFB4290020001001409F
:1071F400B0290020AD290020AC290020A4290020BA
:1072040000E100E02DE9F04FA14AA2491378097882
:10721400A14D994285B03CD00133DBB2022B08BFAB
:10722400002313709D4912789D4B0F6853F8220078
:107234003B1823F07F4300220B602B68164614464C
:10724400944613B942B12B6006E0196881420ED905
:1072540002B12B60091A196001272B68DFF848A2D4
:1072640001934FF00008BEB9DFF844B266E0401A5B
:107274000C44D968C3F800C0D3F81CE031B13A1902
:1072840022F07F42C3E90121DE611E4601227346DA
:10729400D7E700263746E0E73446F6697F4A636855
:1072A4001268DFF810C2A068991A21F07F41614585
:1072B40000F2A68001442160012222742A6800237E
:1072C400C4E90133E361002A40F0A3802C60CAE7DB
:1072D4005A1C9BF80210D2B291428BF8002004BFD2
:1072E40000228BF80020182202FB03B31A799C6851
:1072F400022A1CD0032A12D0012A1FD1207CE8B90B
:10730400D3E90312A2605A69E2609A69654BA261EB
:107314001B78002B0CBF0B4603466360BEE70022BC
:107324002B681146002B67D142B12B6006E0296817
:107334000A468946002A5AD1002323749BF8003058
:107344009BF801209A42C3D12B68B8F1000F04D1F5
:10735400019A9A4201D1002F43D0002B73D0D3F865
:1073640000A0514D4D4BD5F804751C68DFF84881D9
:107374003E1B98F8003026F07F4603369BB94FF445
:107384008033C5F84433C5F80433484B4FF4003216
:107394004FF00109C3F880211A60C5F80090FFF787
:1073A400B9FE88F80090B2452CBF5444A41924F0C7
:1073B4007F44C5F84045D5F80435DB1B23F07F43F3
:1073C400E41B033324F07F44A3420AD9D5F80435DF
:1073D400C5F84035FFF79EFE344B4FF40032C3F836
:1073E4000021304B00221A7005B0BDE8F08F9442A2
:1073F4002CD09146D2699DE719740122DB6991E78B
:10740400D31A23F07F43834234BFC31A002323607B
:1074140052E721681368994213D8591A1160E2613E
:1074240054E7091AD8691A4638B1034618688842DD
:10743400F7D3401A1860184613462160E061DC61F6
:1074440011E71346F2E7FFF76DFECAE74C4511D189
:10745400CB692B6073B9DFF844E00120CDE9021257
:10746400CAF80800CEF800300E4B1870FFF752FE31
:10747400DDE902121368D269C9F81C2012B1106840
:10748400034413602B68994218BF4FF0010853E777
:10749400AC290020AD290020B4290020B029002007
:1074A400A4290020A02900200010014000E100E0F0
:1074B40094280020FEFF7F00A129002008B5FFF7D3
:1074C40031FE104B00200B2218809A700E4B18606E
:1074D4000E4B18700E4B18700E4B4FF48012C021D7
:1074E400C3F8802183F814131A6002F18042A2F5D4
:1074F4006F22C2F8080583F81113074BD2F804254C
:107504001A6008BD94280020B4290020AC2900206A
:10751400AD29002000E100E0B0290020074B9B7852
:107524004BB132B128B10368187C20B959745A613F
:107534007047072070470820704700BF9428002038
:107544002DE9F7431E4FBB7805460E469046A3B37C
:1075540098B304292FD943697BB3437C0024012BBE
:107564000DF107000CBF8946A1468DF8074000F0D5
:107574003DF80DF10600FFF78FFDD0B10123037034
:10758400104B4560D3F80435C0E90498C0E90236CD
:107594009DF806307B709DF8070000F04BF824B985
:1075A400094B4FF48012C3F80021204603B0BDE814
:1075B400F0830424EFE70724F7E70824F5E700BF86
:1075C400942800200010014000E100E0064A92786F
:1075D4003AB130B1426922B1002202740221FFF7AC
:1075E40071BD0820704700BF9428002070B5EFF3E8
:1075F400108672B60C4A946801239CB993600B4BB5
:107604000B4DD3F8801029401160C3F88050D3F893
:10761400841051604FF0FF32C3F88420047006B91F
:1076240062B670BD0370FAE7B829002000E100E0FB
:10763400FC06FFBD084B9A6810B55AB150B9EFF378
:10764400108172B6054A1C6814605C6854609860C6
:1076540001B962B610BD00BFB829002000E100E006
:1076640070B5064D0646002455F8043B0BB1304670
:1076740098470134042CF7D170BD00BFD0290020F5
:10768400033080B240F2FD33984230B51FD8124B1C
:107694001A783AB91C895D892C440444A4B2B4F51F
:1076A400806F0AD31A7DA2B99A8BDC8B22440244E0
:1076B40092B2B2F5806F0CD201220A8014461422D1
:1076C40002FB04335A8910445881002030BD09203C
:1076D400FCE70720FAE700BF042A00200B4A0C4B02
:1076E4005188142000FB0131CB6833B90420496868
:1076F40010700122074801F0C5BA0523064913702A
:1077040002238B80012200230968F3E7E829002083
:10771400042A002010220020CC2A002007B50023D0
:1077240005490093054A09680548082301F014FA3D
:1077340003B05DF804FB00BFCC2A0020040E030054
:107744001022002007B50023009301460823034AB2
:10775400034801F001FA03B05DF804FBFC0D0300DB
:107764001022002013B500230C4600930146042385
:10777400074A084801F0F0F938B9074B142202FB14
:1077840004340123237402B010BD0E20FBE700BFB4
:10779400F80D030010220020042A002037B50A48FF
:1077A4000A4B42689C881968538803250333057083
:1077B4009BB2002000909B0001EB8401044801F07F
:1077C400CBF903B030BD00BFE8290020CC2A00204B
:1077D4001022002010B50146044800F043FE1C228C
:1077E4000446002109F019F9204610BDB82A0020EA
:1077F40068B10268084B9A4209D14068074B984225
:1078040007D0013398420CBF0120032070470320A6
:1078140070470020704700BFDEC0ADDEFE011EF1E0
:107824004388033300EB8303994209D382884FF6DC
:10783400FF739A4206D00088B0FA80F0400970477E
:1078440002207047012070472DE9F8430223DFF836
:1078540060800B800D46174600F5805600F1080441
:107864004FF00109B4420FD2236801330CD03146E2
:107874002046FFF7D5FF48B10FB187F800900228E2
:107884000BD14FF480632B80BDE8F883A368D8F84C
:107894000020934201D9C8F800302B886288033352
:1078A40013442B806388033304EB8304DAE700BFBB
:1078B400FC290020154A142303FB002070B50B6833
:1078C40044680D4604F58056ABB15C88033403EB81
:1078D4008404B4420DD2236801330AD031462046D1
:1078E400FFF79EFF01280BD010F0FF0F05D00228F0
:1078F400EFD1002003E00834EBE72C60012070BDD9
:107904006388033304EB8304E3E700BF042A002005
:10791400436873B504460D4663B3234AD1688B426A
:1079240028D31269934225D813F0030022D11F4AA9
:107934002189128991421DD121689A68914219D1F5
:107944001B4A51688B4203D901F580518B420DD3F8
:10795400926993420CD902F58052934208D20123D2
:107964002B80B0FA80F0400902B070BD0346F7E7FF
:107974000A20F6E700232B801E46019601A92888D9
:10798400FFF798FF30B92B8801339BB2012B2B8072
:10799400F3D9E9E7019B226899689142EED16360CB
:1079A400024B1B892381DFE710220020E8290020F5
:1079B400042A00202DE9F8431C461C4B1B7806467C
:1079C4000F4615466BB372B36CB3DFF868804FF0A3
:1079D4001409A388012B01D90A2020E009FB03F331
:1079E40018F803302BB92146A088FFF763FF20B9AC
:1079F4002060A3880133A380EBE723681EB1998834
:107A040032889142EFD11FB119883A889142EAD164
:107A14009A68C5E90023064B1B892B810020BDE829
:107A2400F8830220FBE70520F9E700BFE0290020E6
:107A3400E8290020042A002008B5074B191D58889E
:107A4400FFF738FF18B1BDE80840FFF7A7BEBDE84F
:107A54000840FFF743BE00BFE82900202DE9F04F9E
:107A6400A04FDFF8A49289B00646B8463B6823B914
:107A740049469D4800F030FD3860D8F80050297818
:107A84004B1E052B00F2FA80DFE813F006005E00BF
:107A94005E00EE00EE005C0126B1944B00225A60B9
:107AA4000124ECE02B79032B1DD8DFE803F0150249
:107AB4002A358F490B78022B084619D00B7D022BEF
:107AC4004FF0010316D114225343C2180020C854A6
:107AD4005068FFF737FE03E001232B71FFF71EFE0A
:107AE400002800F0BC80814B00225A600E24C6E0BE
:107AF4000023E8E77D4A13700023536041F61D54C8
:107B0400BDE07C497C48002302222B718A8001223B
:107B1400096801F0B7F8E3E7764C00262E71206877
:107B2400734DFFF70FFE754BD4F800C05A88142329
:107B34005343EA18EE5451682160A188C2F804C086
:107B440011810222A280CBE7B5F814A0AA7DDFF848
:107B5400A0B1AEB1022AEB8806D9142101FB0AB107
:107B6400DA1C088902440A81142202FB0ABAC3F50A
:107B74007F43BAF80A20FD331344AAF80A308FE78A
:107B8400142303FB0AB318895C6804EB8004062AF7
:107B940068D8DFE802F0274D35431D59040041F64B
:107BA4001D54AA7DEB88022A06D9142101FB0AB1CF
:107BB400DA1C088902440A81142202FB0ABAC3F5BA
:107BC4007F43BAF80A20FD331344AAF80A3056E07A
:107BD4004B484C4900234360AB690360FFF798FEB0
:107BE400002871D00223AB75002300930423EA1804
:107BF4002146414800F0B0FF002830D00E24D0E7E1
:107C04002B69002B14BF03230123AB7500230093BE
:107C140005F10C02042304F10801EAE70123AB7522
:107C24000022EB8800929B002A6904F10C01E0E732
:107C340003290CBF05230623AB75002300930423FB
:107C440005F10802E118D4E70623AB752D4B19881A
:107C54002B4B5868FFF786FD04460028A1D109B0D4
:107C6400BDE8F08F0F249CE7002E7FF419AF2B7929
:107C7400012B4BD0E3B1022B3FF440AF0F2414226D
:107C8400002103A808F0C9FE41F61D539C4208BF19
:107C94000024D8F8003004941A78023A042A00F236
:107CA4000581DFE812F0E600F20015011D01240150
:107CB40002232B710DF10A01EB68039303A8CDE9AC
:107CC4000466FFF725FE08B90A24D8E70498BDF82E
:107CD4000A108388EB8003882B81FFF743FD044659
:107CE40027E000BF002A0020B82A0020E029002055
:107CF400042A0020CC2A002010220020E829002099
:107D0400C4290020D82A0020F8290020DFF8FCA18B
:107D140003AA53463146A81DFFF74CFE044658B942
:107D2400BAF804100498FFF71DFD04460A2C3FF42A
:107D3400E5AE002CA3D192E708223146504608F064
:107D44006CFEF3E7002E7FF4ABAE6B4B1A7BAAB14B
:107D54001E731A78013A062A90D801A151F822F02C
:107D64000B7E0200317E02004F7E0200557E02002F
:107D7400817C02005B7E02006D7E02001A78072A75
:107D8400E7D801A151F822F0AD7D0200577D020031
:107D9400577D0200D37D0200E77D0200077E0200CA
:107DA400077E0200CF7D02001A89544901321A81EC
:107DB40000225A801A730A78B2FA82F252099A722D
:107DC4000A7DB2FA82F25209DA72012207E04C49C2
:107DD40058688A884088033202448A8002221A70D2
:107DE400B7E7464C5A884649142505FB0242086801
:107DF400546850608888108102228A800C600622B0
:107E0400EDE70722EBE79A7A32B9DA7A8AB90022E7
:107E14001A705A805A6071E6384900229A72CA6808
:107E2400002AF2D1097C0029EFD05A80FFF704FE22
:107E340055E70022DA72314A116A0029E7D192F833
:107E44002420002AE3D00122EFE7FFF7A7FC46E74E
:107E5400FFF744FC43E7294A5B88142101FB032311
:107E64005868FFF76FFC3AE700225A60FFF756FCA8
:107E740035E701228DF80C201A89ADF818209A886C
:107E8400DB68ADF81A20059310E002228DF80C206F
:107E94001A89ADF818209A88ADF81A20DA689B7D03
:107EA40005929A1F534253418DF81C3003A8FFF7E3
:107EB400D7FB002649461348C8F8006000F037FB9A
:107EC4000121114800F0E6FB00287FF4CFADC6E69F
:107ED40003228DF80C20DA88ADF818201A89CFE730
:107EE4000422DB888DF80C20ADF81830DEE705237A
:107EF4008DF80C30DAE700BFE8290020042A0020BE
:107F0400CC2A0020B82A0020C82A0020DC2A00201D
:107F14004068FFF7A3BD000008B50121044800F044
:107F2400A3FB18B9BDE80840FFF798BD08BD00BF22
:107F3400C82A00202DE9F3419846354B1B780646A4
:107F44000D46002B5BD000295BD009884FF6FF73E8
:107F5400994258D06B88002B55D06B689B0754D13D
:107F64004AB92F890DF102013846FFF789FB30B178
:107F740002B0BDE8F08113885788ADF8023001A83B
:107F8400FFF728FC044658B9BDF80230214A1421F1
:107F940001FB032358890338C01B58810820E7E7F5
:107FA40000238375BDF8023083826B68036180F817
:107FB40000800121184800F062FB2B882381B8F16E
:107FC400030F6B88A38004BF0423A3754FF000053F
:107FD40008BF3368E06008BFA361E780658101A939
:107FE4000E4800F069FA36B1E36833600C4B7560F3
:107FF4001B89B5723381FFF78FFF0020B8E7022099
:10800400B6E70520B4E70420B2E70320B0E700BFD9
:10801400E0290020042A0020FC290020B82A00209E
:10802400E829002008B5084B1A68042A09D0196801
:10803400064A42F821000121184600F020FB0020E6
:1080440008BD0C20FCE700BFD42A0020D029002062
:108054002DE9F04F14228BB000210DEB020008F043
:10806400DCFC764A137803F0FF01CDE901123BB141
:1080740005A8FFF7F5FA002738460BB0BDE8F08FE6
:10808400029B181D00F011FB0028F4D140F6F87390
:108094004FF080521B685C1C08BF694B694C08BFD9
:1080A4001B6811695269581C08BF02FB01F3236164
:1080B4000022A3F540536449E360204600F018FD14
:1080C400039407460028D7D11C238C225F496048BB
:1080D400DFF88891DFF8888100F08FF9BA463D46D1
:1080E4004FF0030B3C46039BDE6856443046314652
:1080F400FFF77EFB01284DD042B2002A36D0032878
:1081040022D106F580520868013040F08A8004319B
:108114009142F8D1D9F800203AB902220123C9F8D2
:108124000060A9F8042001930CE0142262430220A9
:1081340008EB020108F80200464A4E6054800134FC
:108144000881A4B245F001050AF5805ABAF5405FEA
:10815400C9D1BBF1010F98BF0025EDB2022D03D0A8
:10816400062D35D0002D3CD10B2785E71421614322
:1081740008EB010008F8012001F110020831466003
:10818400424441443046FFF75FFB45F002050134A9
:10819400A4B2D9E7019B63B11422624308EB020144
:1081A400022008F802000134D9F800204A6008814E
:1081B400A4B200222849C9F800603046FFF744FB06
:1081C400B9F80420022A0CBF042208221543BBE795
:1081D400029A0123137005A800235360FFF740FAA5
:1081E4004AE704A8FFF7F6FAC8B10123013D03707A
:1081F4000A2D09D8DFE805F006080608070807086D
:108204000F110F000023037104A9114800F054F961
:10821400FFF782FE30E70323F5E70223F3E708279D
:108224002AE70BF1FF321FFA82FB1422624308EBA8
:1082340002014E60032108F80210A8E7E02900209B
:108244001410001010220020F80F03002C2A002024
:10825400B82A0020E8290020D02A0020CC2A0020B7
:10826400042A002073B50D460446C8B1C1B10DF10E
:108274000601FFF74DFBA8B10B4BBDF8060066687D
:10828400142202FB003001210C3000F0F8F963687D
:108294002E600C336B600123A372002002B070BD0A
:1082A4000520FBE70A20F9E7042A002013B5044659
:1082B400A8B10DF10601FFF72BFB90B10B4ABDF8F5
:1082C4000630142101FB0323DA6862B1A27A52B1A9
:1082D400DA680020013ADA60A07202B010BD05200D
:1082E400FBE70A20F9E70620F7E700BF042A00208D
:1082F40002230022FFF71EBE18B103230022FFF75A
:1083040019BE052070470000104B1B7813B50446B6
:10831400ABB14FF6FF73984213D001A8FFF75AFA96
:1083240088B10523037001230371C48001A908489F
:1083340000F0C2F8FFF7F0FD002002B010BD0220EB
:10834400FBE70420F9E70820F7E700BFE029002055
:10835400B82A00200E4B1B7807B5A3B101A8FFF77C
:1083640039FA90B10623037001A90A4800F0A4F871
:10837400094B1A780AB101221A73FFF7CDFD0020C8
:1083840003B05DF804FB0220FAE70820F8E700BF19
:10839400E0290020B82A0020E829002007B5ADF81C
:1083A4000600ADF804100DF1060001A9FFF702FB69
:1083B40003B05DF804FB07B51346ADF806000A46A2
:1083C40000200DF10601FFF7F5FA03B05DF804FB98
:1083D40007B51346ADF806000A460DF10600002164
:1083E400FFF7E8FA03B05DF804FB20B119B10368A4
:1083F4000B60002070470520704710B561B1B2FBD7
:10840400F3F403FB1424A4B244B9C0E90014846057
:108414008281C381204610BD0E20FCE70920FAE7C3
:1084240082B050E8022FC188B2EB324F4FF0000304
:1084340017BF92B241EA014142EA014104E04268B5
:10844400B2EB324F08BF012340E80212002AE8D100
:108454008DF807309DF80730002B0CBF1120002049
:1084640002B0704737B550E8013F9DB2C489254436
:108474008489A54228BF2D1B0489A54202BFBFF3EE
:108484002F8F002207E0C5EA030540E80154002CC1
:10849400E9D14FF001028DF803200193019B9DF86F
:1084A40003200B6002F0FF0322B10B88006818441C
:1084B40003B030BD1846FBE70A884B889A4209D1BD
:1084C40050E8012FC2EA024240E80123002BF7D111
:1084D400012070470020704737B550E8023F1FFA6B
:1084E400A3F5C488A54202BFBFF32F8F00220DE07D
:1084F400C48925448489A54228BF2D1BC3EA0545A8
:1085040040E80254002CE8D14FF001028DF803201A
:108514000193019B9DF803200B6002F0FF0322B13D
:108524004B880068184403B030BD1846FBE70A883E
:108534004B889A4209D150E8022FC2EA224240E80D
:108544000223002BF7D1012070470020704701F06F
:108554001F024B090121914000EB830000F063B836
:108564004B0910B501F01F040121A14000EB830069
:1085740000F04EF8E04000F0010010BD01F01F03D0
:1085840001229A404B0900EB8300D14300F061B80B
:108594004B0901F01F0150F82300C84000F001000E
:1085A40070472DE9F0474E1E760980460F46013686
:1085B400002558F8254008EB8509E44394FAA4F40F
:1085C400B4FA84F44FEA451A202C06D10135AE42A0
:1085D400EFD83C462046BDE8F0875444A742F5D97D
:1085E40021464046FFF7BCFF0028F3D0D9F80040ED
:1085F400E44394FAA4F4B4FA84F4E5E750E8002FD1
:108604000B4640E8003C9CF0000FF7D11046704741
:1086140050E8002F42EA010340E8003C9CF0000FC0
:10862400F6D11046704750E8003F43EA010240E8A3
:10863400002C9CF0000FF6D11046704750E8002F34
:1086440002EA010340E8003C9CF0000FF6D110461A
:10865400704750E8003F03EA010240E8002C9CF018
:10866400000FF6D11046704750E8002F02EB0103CB
:1086740040E8003C9CF0000FF6D11046704750E8EB
:10868400003F03EB010240E8002C9CF0000FF6D100
:108694001046704750E8003FA3EB010240E8002C6D
:1086A4009CF0000FF6D1104670470121FFF7B0BFD0
:1086B4000121FFF7B8BF0021FFF7C0BF10B590B18B
:1086C400D0E9012301689B1ADBB20A60013BDBB2EB
:1086D400FF2B026802D10020107110BD11684C1CE0
:1086E40014600B70F2E70E20F7E737B50546002457
:1086F4000DF107008DF80740FEF778FF2A686B68D4
:10870400116899420ED9481E106011F8014CEB68AB
:10871400298A01FB0434AB6811791B1ADBB2994234
:1087240038BF13719DF80700FEF784FF204603B09D
:1087340030BD37B5054600230DF107000C468DF812
:108744000730FEF753FF2A681368591C1160E96863
:10875400641A298AB4FBF1F41C709DF80700FEF733
:1087640069FF03B030BD826810B504462AB143697D
:108774000168006998470023A36010BD0EB403B5D7
:10878400039921B104AB01AA019300F075F802B07A
:108794005DF804EB03B070470A2938B504460D466A
:1087A40002D10D21FFF7F8FFA3682268591CA160CC
:1087B400D554D4E901329A4204D32046BDE8384066
:1087C400FFF7D1BF38BD00002DE9F84F9946DDE928
:1087D4000A431746824688460A460126BA420FD201
:1087E4004E4538BF4E4613F0010B01D164B9002445
:1087F4000125B9F1010F1AD909F1FF397D43F8E7D1
:10880400B2FBF7F20136E9E79B070ED5B9F1000F89
:108814000CBF30252025A642EAD2013C2946504609
:10882400FFF7BAFF002CF6D1E1E72025F3E7B8FB08
:10883400F5F39F42E2D9DFF83C90B8FBF5F35046DC
:1088440019F8031005FB1388FFF7A6FFB5FBF7F330
:10885400BD4207D2BBF1000F02D00CB1A64203D334
:10886400BDE8F88F1D46E8E720215046013CFFF79C
:1088740093FFF2E70C0E03002DE9F74F0546174668
:108884008846002900F0308118F8011B49B92B7B78
:10889400002B00F02981284603B0BDE8F04FFFF714
:1088A40062BF252940F0C080002698F800302D2BA7
:1088B400424608F1010823D0302B24D02B2B25D09D
:1088C40000242A2B02F1010123D13B681A1D1B68E5
:1088D4003A601C440A4613782E2B26D101324FF0FD
:1088E4000009104610F8011BA1F1300CBCF1090F6E
:1088F4001DD80A2303FB0913A3F130090246F0E74C
:1089040046F00106D1E746F00206CEE746F004063B
:10891400CBE711F8013CA3F130000928DBD80A2287
:1089240002FB0434303C0A46CBE74FF0000912F84E
:10893400011B01F0FB0068289046F8D069290ED08D
:108944004AD8582964D006D825296DD098F8003023
:10895400002B99D19BE7632962D06429F6D13A6848
:10896400D2F800A0111D8AEAEA723960A2EBEA7219
:108974004FF0010B092A5BDCCB4538BFCB462CB149
:10898400BAF1000F01DB720700D5013CB30702D531
:10899400B9F1000F04D0F00702D4002C4ED100240A
:1089A400BAF1000F52DACAF1000A2D212846FFF766
:1089B400F3FE06F00302022A05D1B9F1000F02D139
:1089C400002C47D10024CDE900464B460A225146EB
:1089D4002846FFF7F9FEB9E773294CD014D870295B
:1089E400B4D13B681A1D3A60302128461C68FFF751
:1089F400D3FE78212846FFF7CFFE00220823CDE9D5
:108A0400003221461022E3E775292BD078299DD125
:108A140039680A1D3A60CDE900464B46102228E029
:108A24003B681A1D19783A602846FFF7B5FE8DE7B2
:108A34000A230BF1010BB2FBF3F29BE7A345AFD280
:108A440020212846013CFFF7A7FEA6E77107B0D511
:108A54002B21ABE7A345B6D230212846013CFFF7D2
:108A64009BFEADE73968CDE900460A1D3A604B46E6
:108A74000A220968ACE73B681A1D3A6016F0010641
:108A8400D3F800A020D1BAF1000F03D0504608F06B
:108A940019F80646B44200D9C4B90AF1FF3A1EE0F7
:108AA40028460136FFF778FE1AF806100029F7D198
:108AB400A642BFF44BAF002C3FF448AF2021284618
:108AC400013CFFF769FEF3E70026EDE72021284685
:108AD400013CFFF761FEDDE72846FFF75DFE1AF86B
:108AE400011F0029F8D131E703B0BDE8F08F000081
:108AF40007B50B4688B9124B1248134AC01A0E2305
:108B0400C0080093114B0004114940F00100FDF727
:108B1400DEFF0E2003B05DF804FB4BB9084B094897
:108B24000C4AC01AC0080E2300930004074BEBE75D
:108B340003601B68114603B05DF804EB184700BFDF
:108B4400CC0B0300140C0300C90E03001C0E03001D
:108B5400CE0E0300450F03002DE9F34188B93D4BC8
:108B64003D483E4AC01AC0080E243D4B0094000400
:108B74003C4940F00100FDF7AAFF204602B0BDE8E1
:108B8400F0814AB9334B3448374AC01AC0080E241E
:108B940000040094324BEBE7D0F800C0BCF1000FA6
:108BA40009D12C4B2C48314AC01AC00808240004AF
:108BB40000942B4BDCE74BB9264B27482C4AC01AB0
:108BC400C008092400040094254BD1E74768D7F86E
:108BD4000480B3FBF8F708FB17374FB11D4B1E4851
:108BE400244AC01AC0080924000400941C4BBFE79F
:108BF4008F0709D0174B18481F4AC01AC008102401
:108C040000040094164BB3E712F0030F09D0114B84
:108C140011481A4AC01AC008102400040094104BCA
:108C2400A6E7C768B9420BD34C1E05691C44AC4285
:108C340006D8DCF80C40A44602B0BDE8F041604719
:108C4400044B05480E4AC01AC008102400040094BE
:108C5400034B8DE7CC0B0300140C0300C90E030077
:108C64002E0E0300CE0E03004B0F03003F0F030034
:108C7400FE0E0300510F03007B0F0300930F03004C
:108C8400B60F0300F7B580B92A4B2B482B4AC01AFC
:108C9400C0080E242A4B009400042A4940F0010025
:108CA400FDF715FF204603B0F0BDD0F800C0BCF1BD
:108CB400000F09D11F4B2048234AC01AC0080824BA
:108CC400000400941E4BE8E74AB91A4B1A481F4A9D
:108CD400C01AC008092400040094194BDDE7476852
:108CE400D7F800E00EF1FF370F4209D0114B1248BC
:108CF400174AC01AC008102400040094104BCCE793
:108D0400C768B9420CD34C1E05690EFB0244AC4241
:108D140006D8DCF81040A44603B0BDE8F040604734
:108D2400044B05480B4AC01AC008102400040094E0
:108D3400034BB2E7CC0B0300140C0300C90E030071
:108D4400410E0300CE0E03003F0F0300FE0E03008E
:108D5400540E03007A0E030029DF704728DF7047A2
:108D640070B503689D6886B004460E466DB1142242
:108D74000021684607F051FEA36805932379019604
:108D84002BB1012B0DD06846A84706B070BD012356
:108D94008DF8003023690293E368039363690493B5
:108DA400F1E702238DF80030E3681B030293F5E733
:108DB4000846704700207047024B187A003018BFED
:108DC40001207047802B0020034B187A0122B0FA4F
:108DD40080F05A7440097047802B002008B5104673
:108DE4001A4607F0F1FD002008BD000008B5142262
:108DF4000021044807F011FE0348FFF711FB00208F
:108E040008BD00BF802B0020702B002010B5094C3A
:108E1400094B43602046FFF748FC40B907F06EFB5E
:108E24001C2320748C2205490548FFF7E6FA00202C
:108E340010BD00BF802B0020EC0F0300E42A0020AB
:108E4400702B002070B5244C244E237A25463BB960
:108E540023492448FFF740FB306008B9606070BDC7
:108E6400346802232B72237973B1012B24D020465A
:108E74000321FFF775FF00232B726B601849194813
:108E8400BDE87040FFF753BBD4E90523D21AB2F50D
:108E9400805F28BF4FF48052D4E903109208012A5E
:108EA40038BF012219441844FFF756FF50B1112866
:108EB400DDD101232B72D2E7D4E903031844FFF771
:108EC4004DFFF3E72B7C002BC9D10146BDE8704070
:108ED400022000F009B800BF802B0020982B00204E
:108EE400942B0020702B002038B5831E012B45D80D
:108EF400234C237A002B41D0022B09D1032830D0F4
:108F0400204B1B680022E2601A793AB1012A22D070
:108F1400637C7BBBBDE83840FFF794BFD3E90512FF
:108F24008D1AB5F5805F94BF521902F580529A618B
:108F34009142EDD102284FF0000308BF1946237275
:108F4400104B18BF0D211868FFF70AFF0E490F4890
:108F5400FFF7EDFADCE71A6901321A615B699A429C
:108F6400E7E7E3680133082B01D8E360D0E7002387
:108F7400E360DFE7BDE8384007F0B0BA38BD00BFB2
:108F8400802B0020982B0020942B0020702B002095
:108F940000F0FD03012B08D1044B00225A74421E39
:108FA400504250411874FFF74DBF7047802B00208A
:108FB40010B5064C201DFFF778FB28B9637C1BB95C
:108FC400BDE81040FFF73EBF10BD00BF802B00205E
:108FD4002DE9F34180460D460F4801A916461F4668
:108FE400FFF740FA0446A8B11C22002107F015FD42
:108FF4002D0B0123237101A9C4F80080A760E5604B
:1090040066610548FFF758FAFFF7D2FF002002B067
:10901400BDE8F0810420FAE7702B00202DE9F74326
:1090240081468846104801A917461E46FFF71AFADA
:109034000446B0B11C22002107F0EFFC00250A9B76
:10904400A36001A92571C4F80090C4E9037866619E
:109054000548FFF731FAFFF7ABFF284603B0BDE838
:10906400F0830420FAE700BF702B00202DE9F047BD
:10907400B0F806904479D2F800A09DF8208009FB4E
:1090840004F4043C06460AEB0300A0420F4688BFE2
:10909400A4EB030A191DC2F800A0B1FBF9F509FB02
:1090A40015114DB9A9EB0104544528BF5446BAF132
:1090B400000F04D1BDE8F0873668013DF1E70431C3
:1090C4007B1970182246B8F1000F0ED001461846DD
:1090D400AAEB040A07F078FCD145254436684C46CF
:1090E4004FF0000128BF5446E1E71946F0E7FFF7C7
:1090F400E5BAF8B546790146721E05460023934247
:109104002D6803D30024A64202D8F8BD0133F6E744
:109114000F682846FFF70DFB01343946F3E72DE9C4
:10912400F843068ACD1C0746FFF7DFFA043E3544B0
:109134000446B5FBF6F5F0B14FF48073EDB28380CD
:10914400C680013D076081464FF00008A84512D251
:109154003846FFF7CAFA064648B1637901336371AA
:1091640008F10108C9F8000007608146EEE72046CF
:10917400FFF7BFFF34462046BDE8F88301210430E1
:10918400FFF77DBA10B5012104460430FFF782FAD7
:1091940010F0FF0F04D12046BDE81040FFF7A9BF2F
:1091A40010BD1FB503920022009203AAFFF75EFFD1
:1091B40005B05DF804FB1FB503920122009203AAD7
:1091C400FFF754FF05B05DF804FB41DF7047000072
:1091D400064B10B500241C70054B1C60BFF35F8F59
:1091E4000449054800F039F8204610BDA42B00209E
:1091F400A82B0020181003009C2B002007B5002387
:109204000DF107008DF80730FEF7F0F9F1EE103A92
:1092140023F09F03E1EE103ABFF35F8F094B402226
:10922400C3F884219DF80700FEF704FA07F066F9F5
:1092340020B1FFF7CAFF03B05DF804FB20BF40BFB5
:1092440020BFF8E700E100E0836800225A609A60DA
:10925400C3E90422DA601A6070470B684A68436005
:10926400934208BF0023016008BF4360704743680E
:1092740043B10268916852680B449342436004BF4F
:10928400002343607047000010B50D49A1F59472A6
:10929400914201D800200FE08B1ADB1003EBD3734B
:1092A4005B1002EBC30452F83330834205D802D278
:1092B40004F10802ECE7606810BD2146E8E700BF4E
:1092C4006811030008B5FFF7DFFF024B002808BF51
:1092D400184608BD2D1003000B7B23B14B680360B7
:1092E4000023037170470B6803600123F9E70368E7
:1092F4004A68896810B5D41A8C428BBF5B18002366
:109304000360026098BF037110BD03680A6889682E
:1093140010B59C1A8C428BBF5B1A01230360026058
:1093240098BF037110BD037910B504461BB1FFF754
:10933400DEFF206810BDFFF7E8FFFAE7054B1B6866
:10934400082B01BF044B1868B0FA80F0400918BF1D
:1093540000207047300100103401001008B54FF0B0
:1093640080430022C3F80C21C3F81021C3F8382528
:109374004FF0805203F54043D2F80414C3F820158B
:10938400D2F80814C3F82415D2F80C14C3F828151D
:10939400D2F81014C3F82C15D2F81414C3F83015ED
:1093A400D2F81814C3F83415D2F81C14C3F84015B5
:1093B400D2F82014C3F84415D2F82414C3F848157D
:1093C400D2F82814C3F84C15D2F82C14C3F850154D
:1093D400D2F83014C3F85415D2F83414C3F8601515
:1093E400D2F83814C3F86415D2F83C14C3F86815DD
:1093F400D2F84014C3F86C15D2F84424C3F870258D
:10940400FFF79CFF10B1384B384A1A60FFF796FFFC
:1094140018B1374BFB22C3F81825FFF78FFF48B16B
:109424003449354B0A681B6822F00F0203F00F031E
:1094340013430B60FFF782FF18B1304B4FF40072F7
:109444001A604FF08043D3F80024D20744BF6FF072
:109454000102C3F800242A4AD2F8883043F4700386
:10946400C2F88830BFF34F8FBFF36F8F4FF01023D4
:10947400D3F80022002A03DBD3F80432002B2FDABE
:10948400204B0122C3F80425D3F80024002AFBD082
:109494004FF010221221C2F80012D3F80024002A3F
:1094A400FBD04FF010231222C3F80422154B1A46A6
:1094B400D3F800140029FBD00021C3F80415D2F816
:1094C4000034002BFBD0BFF34F8F0D490E4BCA68FD
:1094D40002F4E0621343CB60BFF34F8F00BFFDE79C
:1094E4000A4B0B4A1A6008BD8C56004048810300A1
:1094F40000F00040E40E0040580200104096024084
:1095040000ED00E000E001400400FA0540220020E4
:109514000090D003074B1B5C1F2B8ABF064A4FF0F9
:10952400A04203F01F03D2F80405D840C04300F062
:10953400010070472615030000030050074B1B5C15
:109544001F2B86BF03F01F0305494FF0A0410122E2
:1095540002FA03F3C1F80C35704700BF2615030067
:1095640000030050074B1B5C1F2B86BF03F01F0337
:1095740005494FF0A041012202FA03F3C1F808356E
:10958400704700BF261503000003005008B50020F3
:10959400FFF7E8FF0120FFF7E5FF0220FFF7E2FFF6
:1095A4000320BDE80840FFF7DDBF08B50020FFF742
:1095B400C5FF0120FFF7C2FF0220FFF7BFFF032012
:1095C400BDE80840FFF7BABF0A4B185C1F288ABFE2
:1095D400094B4FF0A04300F01F00D3F804250121EC
:1095E400814021EA02000A40C3F80805C3F80C25AB
:1095F400704700BF2615030000030050074B1B5C97
:109604001F2B8ABF064A4FF0A04203F01F03D2F873
:109614001005D840C04300F0010070472215030034
:10962400000300500B2809D00C2809D0182809D0B1
:1096340019280CBF03204FF0FF30704700207047FB
:109644000120704702207047014B185C704700BF2F
:1096540022150300C20710B504460CD54FF0A043F1
:109664000322C3F83427C3F83827C3F83C27C3F8C8
:109674004027FFF78BFFA3070AD54FF0A0430C2226
:10968400C3F82C27C3F83027C3F86027C3F864272E
:1096940010BD000038B5074C051E04F1080318BFBF
:1096A4001C4623682BB11A6822605B6828469847D9
:1096B400F7E738BDB42B002020B9054B01225A70BE
:1096C400FFF7E8BF012802D1014A9070F8E770471C
:1096D400AC2B002020B9034B01225A70FFF7DABFEC
:1096E400704700BFAC2B002038B50B4C237883B9EE
:1096F4000A486360A3602361E36000F0C7F805468D
:1097040006F0FCFE08B900F0CDF8012323702846CA
:1097140038BD8525FBE700BFAC2B0020BD960200B9
:1097240037B50B4C00230DF107008DF80730FDF71A
:109734005DFFE368013BE360E56815B900F0C4F838
:10974400A5709DF80700FDF775FF03B030BD00BF9D
:10975400AC2B0020012813B509D018B103281CD064
:1097640002B010BD0F4B0122C3F88020F8E70E4C65
:1097740000230DF107008DF80730FDF737FF23783C
:109784000BB9FFF7B1FFE3689DF807000133E3600D
:109794000123A370FDF74EFFE2E700F083F8FFF723
:1097A400BFFFDDE700E100E0AC2B00201FB503782C
:1097B4008DF800304368019383688DF80830C368DE
:1097C4000393054A054B684653F8213052F821109B
:1097D400984705B05DF804FBC02B0020C82B00207F
:1097E4001FB503788DF800304368019383688DF8C2
:1097F4000830C3680393054A054B684653F8213083
:1098040052F82110984705B05DF804FBC02B0020E6
:10981400C82B0020F0B5184B0778DFF86CE043F84C
:109824002720164B16460A6943F827204B7F0EF86B
:1098340007300C4684460FCC89B06D460FC594E8BA
:109844000F0085E80F001EF80730049753B1002E6F
:109854000B4A694608BF32460CF1040000F0CAFD09
:1098640009B0F0BD002E074A694608BF32460CF124
:109874000C0000F0B1FBF3E7C82B0020C02B002044
:10988400B1970200E5970200D02B0020044A137917
:1098940023B90121106091801846704785207047D4
:1098A400D42B0020074B1A68D2075FBFC02283F86D
:1098B400002301221A604FF080430122C3F81825C7
:1098C400704700BF00E100E0044B01221A604FF032
:1098D4008042D2F81834DB03FBD470470C000040FC
:1098E400154B07B51A687AB100221A601B680093F9
:1098F400009B4FF080430122C3F808230F4B587993
:1099040010B95A711B6898470D4B1A6882B100222E
:109914001A601B680193019B4FF080430222C3F835
:109924000823064B1B68012003B05DF804EB1847BD
:1099340003B05DF804FB00BF00010040D42B0020FD
:109944000401004000F1804000F5C040002382B0D3
:10995400036003680193019B02B0704703681F2BE7
:1099640083BF03F01F03036001484FF0A04070471A
:109974000003005007B5019001A8FFF7EFFF019B1A
:1099840000EB8300D0F8002722F44032C0F800270F
:10999400D0F8003743EA0143C0F8003703B05DF85C
:1099A40004FB0000054B4FF0FF32072843F820204A
:1099B40084BF1B1883F85820704700BFDC2B00209D
:1099C40010B5174C94F86A3043BB04F130033021CE
:1099D400FF22013911F0FF0103F8012BF9D1C8B2BC
:1099E400FFF7E0FF01310C29F9D1062200210D48CF
:1099F40007F013F80C4BC02283F8062340221A60A8
:109A04004FF4BE70FFF79EFF084B4FF00042C3F8BF
:109A14000423012384F86A30002010BD0820FCE7E9
:109A2400DC2B0020402C002000E100E0006000401E
:109A3400034B93F86A00003018BF0120704700BF41
:109A4400DC2B0020F7B53B4E3318054693F9303034
:109A5400002B6CDA8B78C3F34003002B0BBF082474
:109A640000240C200820844202D1042003B0F0BD5D
:109A740056F82470013743D1701946F8242080F831
:109A8400304013B9331983F858508B785A0717D4D8
:109A9400D80737D501A80195FFF760FF019B00EBBC
:109AA4008300D0F8003723F00203C0F800372248BF
:109AB400EA0805F007070123BB40875C3B43835456
:109AC40088780A7810F0020028D0A40004F18044B9
:109AD40004F5C0442D02D4F8103523F44F3323F495
:109AE4004073C4F810351204D4F8103505F47C55CD
:109AF40002F4403215431D43C4F810550020B5E765
:109B04000134B0E701A84A780195FFF727FF019BCC
:109B140003F5E073920040F82320C8E7083C34447E
:109B240094F8605045EA821284F860209EE7082089
:109B34009CE700BFDC2B0020402C002073B5224C96
:109B44002518064695F93020072A19DD224492F893
:109B540058309B09032B0FD1019001A8FFF7FEFE9B
:109B6400019AD0F81035D340DB0707D402213046E0
:109B7400FFF700FF02B070BD012BF7D00321F6E719
:109B8400D3B2072BF6D8930003F1804303F5C04307
:109B9400D3F8100540F00100C3F8100502F14000AD
:109BA400800080B2FFF7CEFE0029E3D095F9303073
:109BB40054F82330002BDDD0012303FA02F2034BC7
:109BC400C3F80423D6E700BFDC2B0020006000406C
:109BD40007B5019001A8FFF7C1FE019BD0F810055D
:109BE400D84000F0010003B05DF804FB2DE9F04F0C
:109BF400002489B0CDE90244624D4FF48072012102
:109C040002F1804303F5C04390B21B68012B06D1D7
:109C1400D5F804330B4202D0FFF794FE0C43043210
:109C2400B2F5907F4FEA4101EAD1574B1B68012BF3
:109C34000ED14FF4BE70FFF785FE4FF0A04344F001
:109C44000044D3F810350293504BD3F810350393E6
:109C540014F0FF0F1AD04E4F00250126344210D0C5
:109C6400AB0003F1804303F5C043D3F81005D3F8E8
:109C7400101557F8253023B1C1F30141C0F3052075
:109C840098470135082D4FEA4606E7D1002C75DACE
:109C94000DF1100800230493C8F804304FF0FF338B
:109CA400CDE90633DFF8E8A0DFF8E89000273D4669
:109CB40019F9014B631C48D0E4B2012324F0C00617
:109CC40004F0070203FA02F2F00808AB191811F8BD
:109CD400083C134239D00AEB0603A40993F9303047
:109CE4005AF823B0BBF1000F08D1032C2DD118F87A
:109CF40000C04CEA020C08F800C001E0032CF6D0C6
:109D040001A80196FFF72AFE019B11F8181C03F520
:109D1400E07C114250F82C00C0F3014005D0022829
:109D240013D1032C0BD1214604E003280DD1032CBD
:109D340005D102213046FFF71DFE0135EDB2BBF11E
:109D4400000F02D021463046D8470137042FAFD147
:109D5400A5B14FF0A0430299D3F8102503F5407341
:109D64009142D3F8103502D10399994206D0029258
:109D74000393049A059B0692079395E709B0BDE8FF
:109D8400F08F00BF006000407C6100400003005081
:109D9400DC2B00203C2C0020014B1B68184700BF23
:109DA400482C00200E4B984237B50D4602D00020B7
:109DB40003B030BD00230DF107008DF80730FDF727
:109DC40015FC084B1C7914B901221D601A719DF809
:109DD4000700FDF72FFC002CE9D01120E8E700BFB5
:109DE40000200040482C0020034B984201BF034B45
:109DF40000221A601A71704700200040482C00208D
:109E04000023435082B043580193019B02B0704732
:109E14000A4610B54FF48E71FFF7F2FF136A91688A
:109E2400C95C136A01331362C0F81C1510BD8B6939
:109E34000A4610B54FF4847123B9FFF7E1FFD0F857
:109E4400183510BDFFF7DCFF536AD168D0F8180548
:109E5400C854536A01335362F3E700001FB501236A
:109E64008DF80030044BCDE90110D3E900126846A7
:109E7400904705B05DF804FB502C002030B54C4AE7
:109E8400D2F8043313F4007F85B015464FD0D2F8CE
:109E94002431002B4BD04FF492711046FFF7B0FFE2
:109EA4004FF40173C2F80833424B93F8291009B9EF
:109EB400012151603E4902228DF80020D1F880240E
:109EC400C1F8802403929A690292DA68019200220E
:109ED400C3E906226846D3E9001290473448D0F813
:109EE4001C315BB133490A6A4B699A420A464BD228
:109EF40091F82830002B47D1FFF78AFF2C4AD2F87B
:109F0400443193B14FF4A2711046FFF779FF294B06
:109F140093F8291009B1012111609A692AB100222C
:109F24009A61586AD968FFF799FF05B030BDD5F832
:109F340004335B07D2D5D5F80831002BCED01D4CA5
:109F44001B482146FFF773FF636AA2699A422346BE
:109F5400C4D1E269E1684AB12369E3600023606A1D
:109F6400A261E3616362FFF779FFB7E794F8292000
:109F74000AB901226A600E4A4FF40170C2F808035C
:109F840000229A61586AEEE74FF48E710848FFF791
:109F940037FF51690029B1D00023029191688DF8EF
:109FA4000030019153616846D2E900139847A5E750
:109FB40000200040502C00201F2886BF00F01F0006
:109FC400044B4FF0A04300F5E070022243F8202038
:109FD400704700BF000300502DE9F843624F047935
:109FE40091462C2202FB0472064692F82A200D4662
:109FF400002A40F0B3805D490068FFF7D3FE804635
:10A00400002840F0AE8029684A1C10D01F2987BF61
:10A0140001F01F03564A0B464FF0A042012098401E
:10A0240003F5E073C2F80805032042F823006868CA
:10A03400431C0DD01F288BBF00F01F0303464C4A5E
:10A044004FF0A04203F5E0734FF0000C42F823C038
:10A054003368AA6995F814C0C3F824256A7DBCF155
:10A06400010F4CEA0202C3F86C25C3F81405C3F8C7
:10A074000C152BD1A968481C0DD01F298BBF01F0EA
:10A084001F020A463A484FF0A04002F5E0724FF032
:10A09400000C40F822C0E868421C13D01F2887BF78
:10A0A40000F01F0C324A84464FF0A0424FF0010EDC
:10A0B4000EFA0CFE0CF5E07CC2F808E54FF0030E36
:10A0C40042F82CE0C3F80805C3F810152C236343A9
:10A0D400FA18C2F804902A69FA50B9F1000F2AD08C
:10A0E4004FF48E7130682D7FFFF78AFE30684FF48D
:10A0F400A271FFF785FE32681E4BC2F80433120BBF
:10A1040051B20029A8BF01F160404FEA4513BABF1C
:10A11400194802F00F0500F56140DBB2B4BF4355A6
:10A1240080F8003302F01F02012303FA02F2490906
:10A13400124B43F8212033680422C3F800252C2352
:10A1440003FB04730022C3E9062283F829205A6121
:10A15400012283F82A204046BDE8F8834FF008081E
:10A16400F9E74FF01108F6E7502C0020819E020019
:10A17400000300508000020014ED00E000E100E064
:10A184002DE9F04103680479254D0022C3F8002528
:10A194002C2202FB04520646526872B1214AC3F8CB
:10A1A4000823190B4AB20120520901F01F0100FAD9
:10A1B40001F120321C4840F82210D3F80C05D3F8E2
:10A1C4001485D3F80815D3F810754FF0FF32904278
:10A1D400C3F81425C3F80C25C3F80825C3F81025C3
:10A1E40001D0FFF7E9FEB8F1FF3F02D04046FFF788
:10A1F400E3FE7A1C02D03846FFF7DEFE4B1C02D089
:10A204000846FFF7D9FE3068FFF7EEFD2C2303FB69
:10A214000454002384F82A306360BDE8F08100BF51
:10A22400502C00208402020000E100E02DE9F047F8
:10A23400214F06794FF02C0909FB067480466569A5
:10A24400002D37D16261A16025624FF48E710068E0
:10A2540084F82850FFF7D4FDD8F800000123836068
:10A264002146FFF7D5FD6368A14693B9D8F800A04D
:10A27400226A63699A4212D3D8F80030D3F81C21B9
:10A28400002AFBD00122DA602C2303FB067600238C
:10A2940073612846BDE8F08794F8283043B9DAF8AA
:10A2A4001C31002BF8D049465046FFF7B1FDDFE7DB
:10A2B4000F25E9E71125ECE7502C0020002343503B
:10A2C40082B043580193019B02B070471FB501232C
:10A2D4008DF80030044BCDE90110D3E90012684633
:10A2E400904705B05DF804FB7C2C00207FB5374A0D
:10A2F400D2F82461002E48D010464FF49271FFF733
:10A30400DDFF02238DF80030D2F88034C2F88034A7
:10A314000393D2F83C3502932D4BDA680192002264
:10A32400C3E906226846D3E900129047274AD2F8C7
:10A3340044317BB14FF4A2711046FFF7BFFF244BA9
:10A34400996939B10021C3E90611D968D2F83C05ED
:10A35400FFF7BCFF1D4AD2F82031A3B14FF490712E
:10A364001046FFF7ABFF1A4B596961B1D2F84C158F
:10A374000291002299688DF8002001915A61684683
:10A38400D3E90012904704B070BDD2F81031002B0D
:10A39400CCD04FF488711046FFF790FF0C4BD2F8E5
:10A3A4003C0599698842C1D1DC69D96864B1D2F8A5
:10A3B400005225F02005C2F800521A699C61DA6047
:10A3C400DE61FFF783FFB1E79C61FAE700200040FC
:10A3D4007C2C00201F2886BF00F01F00044B4FF088
:10A3E400A04300F5E070022243F82020704700BF2C
:10A3F400000300502DE9F843664F06799146242264
:10A4040002FB0672044692F820200D46002A40F012
:10A41400BB8061490068FFF7C5FC8046002840F016
:10A42400B6802868421C10D01F2887BF00F01F0385
:10A434005A4A03464FF0A0420121994003F5E073C4
:10A44400C2F80815032142F8231069684B1C0DD08B
:10A454001F298BBF01F01F030B46504A4FF0A04247
:10A4640003F5E0734FF0000C42F823C02368AA6997
:10A4740095F814C0C3F824256A7DBCF1010F4CEA99
:10A484000202C3F86C25C3F80C05C3F814152BD1CC
:10A49400A968481C0DD01F298BBF01F01F020A4672
:10A4A4003E484FF0A04002F5E0724FF0000C40F837
:10A4B40022C0E868421C13D01F2887BF00F01F0C7D
:10A4C400364A84464FF0A0424FF0010E0EFA0CFEBD
:10A4D4000CF5E07CC2F808E54FF0030E42F82CE0DE
:10A4E400C3F80805C3F8101524237343FA18C2F8F7
:10A4F40004902A69FA50B9F1000F34D04FF48871EE
:10A5040020682D7FFFF7DAFE4FF490712068FFF783
:10A51400D5FE4FF492712068FFF7D0FE20684FF407
:10A52400A271FFF7CBFE22681D4BC2F80433120B55
:10A5340051B20029A8BF01F160404FEA4513BABFE8
:10A54400184802F00F0500F56140DBB2B4BF435573
:10A5540080F8003302F01F02012303FA02F24909D2
:10A56400114B43F8212023680822C3F80025242333
:10A5740003FB06730022C3E906225A61012283F811
:10A5840020204046BDE8F8834FF00808F9E74FF073
:10A594001108F6E77C2C0020F1A202000003005011
:10A5A4001003020014ED00E000E100E02DE9F041A9
:10A5B40003680479254D0022C3F80025242202FBF8
:10A5C40004520646526872B1214AC3F80823190B93
:10A5D4004AB20120520901F01F0100FA01F12032B0
:10A5E4001C4840F82210D3F80C05D3F81485D3F88E
:10A5F4000815D3F810754FF0FF329042C3F80C25BC
:10A60400C3F81425C3F80825C3F8102501D0FFF7B3
:10A61400E1FEB8F1FF3F02D04046FFF7DBFE7A1CB3
:10A6240002D03846FFF7D6FE4B1C02D00846FFF78F
:10A63400D1FE3068FFF7D8FB242303FB0454002326
:10A6440084F820306360BDE8F08100BF7C2C0020DA
:10A654001003020000E100E001F06043B3F1005F89
:10A664002DE9F041074632D11B4B0679242505FB21
:10A67400063598466C6964BB6A61A96000684FF44A
:10A684009071FFF71BFE4FF4AC713868FFF716FEAC
:10A694003B686A69A968C3F84415C3F848250122D0
:10A6A4009A606A6862B9D3F82021D3F8584152B944
:10A6B400002CF8D00F24242303FB068600237361A7
:10A6C4002046BDE8F081002C18BF0F24F3E71024C6
:10A6D400F6E71124F4E700BF7C2C00200220FEF7EB
:10A6E40073BF00002DE9F04781460D46FEF79AFF3F
:10A6F4000328044604D8012D04D025B3022D2FD0FD
:10A70400BDE8F087194D47003A18A918AE5C4A789D
:10A7140052B1DFF86880164842464FF40041FCF716
:10A724000FFF08B988F800903B192B449A78114B15
:10A734001A55002EE4D0104B1B68002BE0D0304695
:10A74400BDE8F04718470A48FCF740FF074B04EB05
:10A75400440213449E78074B1B5DB342D0D1E8E713
:10A76400024B00EB40041C446678E2E7042D002011
:10A77400C42C00201D2D0020182D0020A02C00200A
:10A7840002210078FFF7AEBF08B5094B1B7853B11F
:10A794000020FEF7E7FE0120FEF7E4FE0320BDE8FB
:10A7A4000840FEF7DFBEBDE80840FEF7EFBE00BF7D
:10A7B400A12C0020F8B57B4C237805461BB100235F
:10A7C4002370FFF7E1FF172D00F28880DFE805F022
:10A7D4000C17174354657680888D888D959A9A9ABC
:10A7E4009A9AC4C9D1D9E4E4FFF7CEFF6E48FCF7C6
:10A7F400EDFE6E4B002204461A702046F8BD002080
:10A80400FEF788FEF8B10020FEF7ACFE022D0CBF67
:10A814004FF4E1614FF47A61644B1D704FF40040D2
:10A824004FF4FA740025E0FB01454FF47A720023DB
:10A834002046294605F0C8FF002201465A48BDE8D3
:10A84400F840FCF77DBEFEF779FE022D0CBFC8214F
:10A854004FF4C871E0E70020FEF75CFE40B1002031
:10A86400FEF780FE4FF44871504B03221A70D5E76F
:10A87400FEF764FEC821F7E70020FEF74BFE38B16F
:10A884000020FEF76FFE4FF47A61484B0422EDE797
:10A89400FEF754FE4FF4C871F7E70020FEF73AFEC6
:10A8A40048B10020FEF75EFE404B05221A7041F6C7
:10A8B4009A110022C2E7FEF741FEF5E70020FEF7F9
:10A8C40083FE3A4B06221A70002240F6CD41B5E7CA
:10A8D4000020FEF733FE354B07221A7000248CE764
:10A8E40001202070FEF770FEEEE701202070FEF7D5
:10A8F4006BFE00224FF48041A0E7FEF756FE2B4B7F
:10A904000C22EAE72A482B4EFCF760FED5F111052C
:10A9140004461CD0D8B9012D13D0C8235D434FF48D
:10A9240000474FF4FA7000214FF47A720023C7FBFA
:10A93400050105F049FF224601461D48FCF700FECB
:10A9440004460220FEF7FAFD0123337055E7022086
:10A95400FEF708FE0023F8E7FFF716FF134B122259
:10A96400BBE7FFF711FF0020FEF7E8FD0F4B1322B2
:10A97400B3E7FFF709FF0120FEF7E0FD0B4B1422BC
:10A98400ABE7FFF701FF0020FEF7D8FD0120FEF73B
:10A99400D5FD064B1522A0E7FEF707FE034B1D70FD
:10A9A4009CE700BF142D0020E42C00201C2D002067
:10A9B400A42C0020A12C0020044B1B68DB0703D52A
:10A9C400034B1878FFF7F6BE704700BF102D002028
:10A9D4001C2D0020002910B514BF03240024FEF709
:10A9E40033FE1F288ABF0A4B4FF0A04300F01F001C
:10A9F40003EB8000D0F8002722F44032C0F800278F
:10AA0400D0F8003743EA0443C0F80037002010BDF3
:10AA140000030050032801D8FEF7F0BD0020704762
:10AA2400044B1B6813F0010301D0FFF7C3BE1846A3
:10AA3400704700BF102D002038B51C4B18601C4B0C
:10AA440010F00204054619601AD01A4B1A480E2257
:10AA54001A700F22DA7010229A7111225A7204218C
:10AA640040F26662FCF768FA044648B9FCF7B8FAA3
:10AA7400044628B90146114A1148FCF74FFD044623
:10AA8400EB0711D50120FEF7E5FD6CB921460D4A0F
:10AA94000D48FCF743FD044630B90C4A0C4801212B
:10AAA400BDE83840FCF73ABD204638BD102D0020E3
:10AAB400182D0020042D00204C15030085A702004A
:10AAC40070150300BDA9020074150300E1A602007D
:10AAD4006C150300032813D8012A0BD1012908D1CE
:10AAE40000F10E02D2B200EB40000C4B1A540020CD
:10AAF400704700220129F6D04BB24BB1022901D094
:10AB040007207047054B00EB400018444270EEE705
:10AB1400024900EB400008448270E8E7042D00205D
:10AB2400032802D80121FFF755BF0620704708B556
:10AB3400012202210020FFF7CDFF08B1072810D120
:10AB4400072202210120FFF7C5FF08B1072808D119
:10AB540000210A220846FFF7BDFF10B1072808BFED
:10AB6400002008BD0388102B10B502D0112B1ED075
:10AB740010BD1A4C2168B1B901220846FFF7AAFF9B
:10AB840008B1072824D1072202210120FFF7A2FFE0
:10AB940008B107281CD1042202210020FFF79AFFE4
:10ABA40008B1072814D1236801332360E0E70B4A76
:10ABB4001368013B1360002BDAD1FFF7B8FF0028BC
:10ABC400D6D0074B1B68002BD2D0BDE810401847E5
:10ABD400034B1B68002BE6D09847E4E7282D0020A0
:10ABE400242D002008B50020FFF79AFF08B106289D
:10ABF40006D10120FFF794FF10B1062808BF0020FA
:10AC040008BD00000D4B10B518600C4629B1012099
:10AC1400FFF700FF40B102232370094B1B6853B9AF
:10AC2400BDE81040FFF783BFFFF7F4FE08B10B2324
:10AC3400F2E72070F1E7002010BD00BF242D0020B2
:10AC4400282D002076DF704778DF70477ADF704761
:10AC54007CDF70478FDF704733DF7047FCF7D6B96E
:10AC640008B50C490C48FEF75EFB4FF6FE72C1B204
:10AC74000A4805F0B5F830F0080209D0132807D0C7
:10AC840043F20142904203D0BDE80840FCF7BEB94C
:10AC940008BD00BF982F0020A82F0020842F00207B
:10ACA40008B50020FFF7BCFE08B1FCF7AFF9FFF7C9
:10ACB40099FF08B1FCF7AAF9FFF7CEFF18B1BDE878
:10ACC4000840FCF7A3B908BD0388212B13B504463B
:10ACD4003CD005D8102B0CD0112B25D002B010BDC0
:10ACE4003B2B01D0562BF9D11321A088FFF7AAFFE3
:10ACF40015E01A4B1A481B49C01AC008000440F05A
:10AD04000300FBF7CDFE0720FFF78AFE08B1FCF72E
:10AD14007DF9154BA1881548198002F051FE0028D1
:10AD2400DCD0FCF773F9D9E70C4B0D481049C01A75
:10AD3400C008000440F00300FBF7B2FE0A4B4FF6D4
:10AD4400FF721A800B4B00221A70C7E7002301A977
:10AD54008088ADF80430FFF77DFFE0E7CC0B0300FB
:10AD6400F40B030078150300502200204830002023
:10AD740082150300EC2F002008B503784BB9054B6E
:10AD84003B211888FFF75EFF18B1BDE80840FCF7C7
:10AD94003DB908BD5022002008B598B1032815D14B
:10ADA4000B4B0C480C49C01AC008000440F00300C7
:10ADB400FBF776FE0220FFF733FE38B1BDE808400A
:10ADC400FCF724B9BDE80840FFF76ABF08BD00BF1F
:10ADD400CC0B0300F40B0300F2150300F0B58BB0A9
:10ADE4000DF10301354805F097F908B1FCF70EF9A8
:10ADF4009DF80330002B5ED0314C207800285AD1C6
:10AE0400304D314E2A788DF8040012F0FD0F0CBF3E
:10AE140001230023012A8DF805308CBF0023012370
:10AE24008DF806301301F118F35C8DF80A30CB88E5
:10AE3400ADF810300B798DF80E304B89ADF8143025
:10AE44000B7A8DF812300132204B4F881E68CDF8F2
:10AE54001660D2B2042A5E6818BF2A709A79CDF8B7
:10AE64001A60CE89097B8DF81E1002F11B01C9B24C
:10AE740008BF28703B298DF807008DF80800ADF84D
:10AE84000C70ADF820600AD8997101A90B4805F03F
:10AE940013F970B108280ED0FCF7B8F80BE0213A8A
:10AEA4009A715A790132D2B23B2A88BF00225A7170
:10AEB400EBE7012323700BB0F0BD00BFD02F0020BF
:10AEC400EC2F002054300020EE2F002052220020CE
:10AED4000B7813B1022B02D07047FFF77FBF024BF0
:10AEE40000221A70704700BFEC2F0020043808B508
:10AEF4000A282BD8DFE800F00A2A2A162A2A062A6A
:10AF04002A2A2000BDE80840FFF7CABE104B1321CF
:10AF14001888FFF797FE30F0080317D0BDE8084003
:10AF2400FCF774B80A4B1A884FF6FF739A420DD196
:10AF3400084801F040F9EEE7054B1A884FF6FF7315
:10AF44009A4203D0BDE80840FFF748BF08BD00BFE0
:10AF5400502200202C2D002008B50321044800F0C5
:10AF6400E4FF18B1BDE80840FCF750B808BD00BFC5
:10AF74002C2D002013B5044604F022F8204603F0DB
:10AF840045FE2378022B03D00C2B10D002B010BD49
:10AF94000DF10701074805F0BFF808B1FCF736F8D2
:10AFA4009DF80730002BF1D0FFF718FFEEE7FFF70D
:10AFB400D3FFEBE7D02F0020FCF728B880B54FF47F
:10AFC4000041B8B00020FBF7A7FB08B1FCF71EF85E
:10AFD400FBF7D8FAFCF772FA08B1FCF717F8B34A92
:10AFE400B3480121FCF79AFA08B1FCF70FF8B1490C
:10AFF4000320FFF721FD08B1FCF708F80DA9002094
:10B00400FFF700FE08B1FCF701F89DF83450FEF795
:10B01400DFF808B1FBF7FAFF05F0F2F908B1FBF726
:10B02400F5FF00230DA901200D9305F0B1FA08B135
:10B03400FBF7ECFF0DA805F05DFB08B1FBF7E6FF9D
:10B0440011239D488DF8243005F03CFD9A4982B2C5
:10B0540009A8FFF7FDFD08B1FBF7D8FF4FF46070B6
:10B06400FFF7F2FD08B1FBF7D1FF082200210DA87C
:10B0740005F0D3FC91484FF0C873CDE90D030DA83A
:10B08400FFF7E4FD08B1FBF7C1FF00218C4802F093
:10B094008FFB08B1FBF7BAFF0021AC220DA805F025
:10B0A400BCFC02238DF8343040F20163ADF8363035
:10B0B4000323ADF84430834B1293012328218DF8E8
:10B0C400B03044F25063CDE92F137F487F4B369361
:10B0D4000DA900F0B3FE08B1FBF798FF01217A48EF
:10B0E40000F0A9FE7A4B7B48019301A902F056FCBB
:10B0F40008B1FBF78BFF082200210DEB020005F0DD
:10B104008CFC754B029302A9744B7548039304F0AD
:10B114006BFF08B1FBF77AFF1022002109A805F0A4
:10B124007CFC0023099301220B9309A96D4B6E4803
:10B134008DF828200C9304F0E3FD08B1FBF766FFBB
:10B14400402200210DA805F068FC68490DA801F013
:10B15400F2FA0FA8664901F0EEFA52A3D3E90023EC
:10B16400CDE90423634B069304AB19930DA8012383
:10B174008DF8703005F020F808B1FBF747FF5E4802
:10B1840000F0F6F85D495E480123512764268B6080
:10B194000B73C1E90076FEF79FF85A4B75225A806B
:10B1A4004C22DA8067225A813C22DA8179225A823F
:10B1B4006A225A834822DA838A225A845822DA84F9
:10B1C40078225A856922DA8591225A8683220024BC
:10B1D4005A877D22DA871C701C221C711C721C7316
:10B1E4001C74DF821C751C761C7783F8204083F85E
:10B1F400244083F8284083F82C4083F83040DE86CE
:10B2040083F8344083F8384083F83C4021460DA845
:10B2140005F003FC4FF470234FF42032CDE90E23E4
:10B2240003238DF84030384B12930DA8374B0D94FF
:10B23400ADF842408DF84440139301F0D9F808B1B9
:10B24400FBF7E4FE03F08AF908B1FBF7DFFE052201
:10B2540000210DA805F0E1FB0D9B03F07C422C4B73
:10B2640013430D939DF8383023F0030343F0030395
:10B274000DA88DF8383003F00BFA08B1FBF7C6FEC1
:10B28400244803F0EDF908B1FBF7C0FE224B234C30
:10B294002349E41AE408240444F003042046FBF799
:10B2A400FFFB3FE0554433221100000065AC02006F
:10B2B40090150300F1AE02009415030090012003E1
:10B2C40030300020442200202C2D00209DAD0200AF
:10B2D40061AC020048300020D5AE0200020111002A
:10B2E400D02F002064010101842F0020A215030047
:10B2F400B61503008877660044300020982F00209C
:10B30400A82F0020EE2F00207DAD0200BDAF02006B
:10B314003107100379AF0200CC0B0300F40B0300D8
:10B32400C515030000224FF480310D48FCF708F9DD
:10B3340008B1FBF76BFE022D0FD10A492046FBF73B
:10B34400AFFB03F0FDF908B1FBF760FEFBF73EFA33
:10B354000028FBD1FDF752FFF8E7FFF7FDFDF5E705
:10B36400B02F0020E5150300A8DF704762DF7047A7
:10B37400F0B51D4B87B002AA054603F11007164627
:10B3840018685968144603C40833BB422246F7D1EF
:10B394004AF6CD330DF106013046ADF80430FFF71F
:10B3A400E5FF08B1FBF732FE2A4601A90120FFF7A9
:10B3B400DBFF08B1FBF72AFE0C49002000F0F4F88B
:10B3C400BDF804200A49002000F09BFA9DF80620ED
:10B3D4000849002000F095FA2A880749002000F067
:10B3E40090FA07B0F0BD00BF031603001316030064
:10B3F4003216030049160300651603000369C16889
:10B404008B429DBF8268D21802F1FF3203F1FF33F1
:10B4140094BF501A581A70472DE9F041D0E90274CC
:10B4240005463E1B4068964220448846144404D98D
:10B4340005F0CAFAEC60BDE8F0813246E41B05F081
:10B44400C3FA224608EB06016868F1E72DE9F843E0
:10B45400C5680646894617464FF000083469B36844
:10B464007068A54228BFE418013C621B5C1BBC4207
:10B4740028BF3C46944228BF1446494628442246E5
:10B4840005F0A2FAB3682544AB4208BF00253F1B70
:10B49400A044A144F560E1D14046BDE8F883000032
:10B4A40010B5114C114AA2610223C4E90433104BB4
:10B4B400E361A2644FF400730E4A2362E264002342
:10B4C40010220D49A362E01D6362E362A365636514
:10B4D400E365226505F0D4FA0849204605F0D0FA60
:10B4E4002023A37110BD00BF583000207E16030036
:10B4F400E0300020D0300020871603008B160300B4
:10B50400F8B5184C182300FB033503FB0040254411
:10B51400C46A012C0F46164611D024B1022C1BD04C
:10B5240000242046F8BD2846FFF768FFB042F8D350
:10B53400324639462846FFF76FFF3446F1E728467E
:10B54400FFF75CFF8642344628BF0446224639464C
:10B554002846FFF761FFE4E72846BDE8F840FFF717
:10B5640075BF00BF5830002073B50E4B1B780446DE
:10B574000D4616460BB9FFF793FF00230DF10700A4
:10B584008DF80730FCF732F8324629462046FFF79B
:10B59400B7FF04469DF80700FCF74CF8204602B0BC
:10B5A40070BD00BF5830002038B5054608460C462B
:10B5B40005F088FA214602462846BDE83840FFF7E0
:10B5C400D3BF826810B504464068531C834205D833
:10B5D40020688154A360E3680133E360D4E9013255
:10B5E4009A420BD121682069FFF7BEFFA3689842F5
:10B5F40015BF4FF0FF330023E360A36010BD0000CC
:10B604002DE9F84F9A46DDE90A43904606468946F5
:10B614000A460127424513D2574538BF574613F00F
:10B62400010B01D184B90024F368002B48DB012508
:10B63400BAF1010F1FD90AF1FF3A08FB05F5F7E744
:10B64400B2FBF8F20137E5E79B0712D5BAF1000F18
:10B654000CBF30252025A742E6D229463046FFF705
:10B66400B0FFF368002B04F1FF34DDDB002CF2D1D2
:10B67400D9E72025EFE7B9FBF5F39845DDD9DFF8E5
:10B6840048A0B9FBF5F330461AF8031005FB1399EB
:10B69400FFF797FFF368002B03DBB5FBF8F3454591
:10B6A40010D2BBF1000F0BD054B1A74208D2202115
:10B6B4003046FFF786FFF368002B04F1FF34F3DA1A
:10B6C400BDE8F88F1D46DCE7921603002DE9F04F24
:10B6D4009BB00AAB0E46059340210023CDE9061327
:10B6E400CDE90830039015464FF00A0916F8011BFE
:10B6F40039B9089B002B00F3F98008981BB0BDE80A
:10B70400F08F25294CD14FF0000B09E02D2B04D0EC
:10B71400302B0DD14BF0020B01E04BF0010B0E4628
:10B72400314611F8013B2B2B0FD0EFD8232B0FD030
:10B734000024314611F8013BA3F1300009280AD84E
:10B7440009FB0434303C0E46F3E74BF0040BE6E708
:10B754004BF0080BE3E72E2B0FD10E464FF0000AF7
:10B76400304610F8011BA1F13007092F07D809FB57
:10B774000A13A3F1300A0646F2E74FF0000A3046F6
:10B7840010F8011B01F0FB07682F0646F8D0642966
:10B7940026D009D8582916D063291CD025290AD1C6
:10B7A40005A8FFF70EFF06E0732900F0878006D88E
:10B7B400702900F09380089B002B97DA99E775298C
:10B7C40073D07829F7D12968CDE9004B081D28608A
:10B7D4005346102270E02B681A1D2A601978DFE79F
:10B7E40029680F68081D87EAE7712860A1EBE771F3
:10B7F4004FF00108092936DCD04538BFD0462CB1BA
:10B80400002F02DB1BF0040F00D0013C1BF0020FE1
:10B8140002D0BAF1000F04D01BF0010F01D13CBBE0
:10B82400002408990029C6DB002F2DDA7F422D2140
:10B8340005A8FFF7C6FE08990029BCDB0BF003013D
:10B84400022904D1BAF1000F01D114BB00240899D4
:10B854000029B0DBCDE9004B53460A22394605A83E
:10B86400FFF7CEFEA7E7B1FBF9F108F10108C1E744
:10B87400A045D6D2202105A8FFF7A3FE08990029E8
:10B8840004F1FF34CBDACCE71BF0040FD3D02B2127
:10B89400CEE7A045DBD2302105A8FFF792FE089938
:10B8A400002904F1FF34D0DAD1E72968CDE9004B4F
:10B8B400081D286053460A220968D0E72B681A1D20
:10B8C4002A601C6814F8011B00293FF474AF05A812
:10B8D400FFF777FE089B002BF4DA6CE729680B1D51
:10B8E4002B6000220823CDE9003272E7079A1AB1CF
:10B8F4000AA90398FFF738FEDDE9072313440893E8
:10B90400FBE60EB403B503AB01AA53F8041B019381
:10B91400FFF7DCFE02B05DF804EB03B070476DDFA7
:10B92400704779DF70477DDF704764DF70472DE92A
:10B93400F04F85B000250E9CBDF83CB027880191DE
:10B94400804691469A462E46B8F80020B2420CDC56
:10B954003DB12288013AD21B92B2FF2A3BD80AF8A1
:10B964000720002005B0BDE8F08FD8F8042052F875
:10B974002600039000220DF10B0103A8FFF7D5FF69
:10B984000028EFD19DF80B204A4522D12288002DB2
:10B9940014BF0020022002EB0901014459451ADCBE
:10B9A40045B9013292B2019B22800AF80230228802
:10B9B4000132228022880DF10B01524403A8FFF7C3
:10B9C400B4FF0028CED121889DF80B200A442280A0
:10B9D40001250136B8E70C20C4E72DE9F341089CA2
:10B9E400BDF824501746CDE9004502220646984684
:10B9F400FFF79DFF50B94346102239463046CDE942
:10BA0400084502B0BDE8F041FFF791BF02B0BDE8C0
:10BA1400F0812DE9F04F00231688138090F82D3023
:10BA240085B007460D46144653B3082E01D80C20A2
:10BA340027E102A8FFF773FF002840F02281238842
:10BA44000822EA54238801339BB21B222380EA5440
:10BA54002088013080B2208006220DF1090128449B
:10BA640004F0B2FF23889DF8082006339BB212F03D
:10BA7400FE0218BF01222380EA5423880133238065
:10BA8400BB78FBB123880433B342D0D802A8FFF7B4
:10BA940048FF002840F0F58023880322EA542388D5
:10BAA40001339BB219222380EA542388BDF808206D
:10BAB40001339BB2E9182380EA54120A4A7023889E
:10BAC40002332380FA789AB12388D91CB142AED8C4
