:020000022000DC
:1060000000000420756302005D6302005F6302000C
:106010006163020063630200656302000000000028
:1060200000000000000000000000000067630200A4
:1060300069630200000000006B6302006D630200F0
:106040007D9902006F630200359E02006F630200BB
:106050006F6302006F630200899C02006F6302009D
:106060006F6302006F6302006F6302006F630200E0
:106070006F6302006F6302006F6302006F630200D0
:106080006F6302006D7102006F6302006F630200B4
:10609000097202006F63020001F802006F630200E0
:1060A0006F6302006F6302006F6302006F630200A0
:1060B0006F6302006F630200000000000000000038
:1060C0006F6302006F6302006F6302006F63020080
:1060D0006F6302006F6302006F6302006F63020070
:1060E0006F6302006F6302006F6302000000000034
:1060F000000000006F630200000000006F630200F8
:10610000000000000000000000000000000000008F
:10611000000000000000000000000000000000007F
:10612000000000000000000000000000000000006F
:10613000000000000000000000000000000000005F
:10614000000000000000000000000000000000004F
:10615000000000000000000000000000000000003F
:10616000000000000000000000000000000000002F
:10617000000000000000000000000000000000001F
:10618000000000000000000000000000000000000F
:1061900000000000000000000000000000000000FF
:1061A00000000000000000000000000000000000EF
:1061B00000000000000000000000000000000000DF
:1061C00000000000000000000000000000000000CF
:1061D00000000000000000000000000000000000BF
:1061E00000000000000000000000000000000000AF
:1061F000000000000000000000000000000000009F
:10620000354936480A1A02D0072291438D4634494F
:1062100034480A1A06D00722914381F309880222E2
:1062200082F3148830483149314A00F044F831484B
:106230003149324A00F03FF831483249324A00F0E1
:106240003AF832483249334A00F035F83248334997
:10625000334A00F030F833483349344A00F02BF821
:1062600033483449344A00F026F83448344900228F
:1062700000F02CF833483449002200F027F8334866
:106280003349091A082902DB002202604160314AC1
:1062900090471F481F49884205D00268043003B464
:1062A000904703BCF7E700208646EC46002000211B
:1062B000294A9047FEE7884207D0521A05D0037852
:1062C00001300B700131013AF9D17047884202D098
:1062D00002700130FAE770470000042000E003205C
:1062E0000000042000000420F02D0300E41C002026
:1062F000301D0020D4630200D4630200FEFD0200C2
:10630000F02D0300E41C0020E41C002064FF0200C8
:1063100064FF020064FF020064FF020064FF0200E9
:1063200064FF020064FF020064FF0200F02D03001E
:106330003C2E0300301D0020301D0020301D0020A9
:10634000242C0020242C0020242C0020242C00208D
:10635000244C00209D6302006DB00200FEE7FEE7C2
:10636000FEE7FEE7FEE7FEE7FEE7FEE7FEE7FEE705
:10637000704700BF1048804710484FF0070188431E
:1063800085460F4880470F48016841F4700101605D
:10639000BFF34F8FBFF36F8FFFF732BF0A480B4930
:1063A0000B4A884207D0521A05D0037801300B708F
:1063B0000131013AF9D170477163020000000420F5
:1063C000F993020088ED00E050FF0200D01C00208D
:0463D000E41C0020A9
:1063D400F0B595B01C46164608460D4602F0F0FE90
:1063E4001A9B0D93CDE9086400242346082205A9CD
:1063F40028460A948DF82C400C9402F0FEFE079B6C
:106404000293069B03939DF814308DF8114003F01A
:106414000302012A1DD1BDF81440059EC3F3C20333
:10642400C4F383148DF81030A20008230EA9284663
:1064340002F0E3FEC6F3952608AB0093224602ABB6
:106444000EA9304600F0F0FB284602F0BDFE15B060
:10645400F0BD022AF8D1BDF81640C3F3C203A40963
:106464008DF810300827082C264628BF08263B46FE
:1064740032460EA9284602F0C0FEA41B08AB02AAAD
:1064840031460EA8374400F033FC002CEBD1DBE797
:10649400014B01221A707047711D002070470000E3
:1064A40070B50E4D06460FCD88B06C460FC495E806
:1064B4000F00002E84E80F004FF00603084A094835
:1064C400009308BF0022694603F0F0F908B100F018
:1064D4009DFD054B1E7008B070BD00BF64FF020037
:1064E40095640200E41C0020301D002007B5044B15
:1064F4000093044A4023FFF76BFF03B05DF804FBED
:106504000D650200311D002038B50D4B0D4D0020E6
:1065140018700D4804782D5DD2B21C4665B1043064
:1065240004F0E6F808B100F071FD084B1A7812B1D6
:106534002378002BFBD038BD0C3003F0C3FEF1E709
:10654400711D002078260020E41C0020301D00204E
:1065540008B50848084A0378D35C3BB1043004F01A
:1065640071F80020BDE80840FFF79ABF0C3003F033
:1065740053FEF6E7E41C0020782600200120FFF7F4
:106584008FBF000008B5FFF7F9FF0421034800F0AE
:10659400B9FA034B01225A7108BD00BF40FF020043
:1065A400F81C0020037813F0040216D003F0030350
:1065B400012B03D0022B09D0012070470A68008800
:1065C4000232C0F3831002440A60F5E70B68428884
:1065D400023303EB92130B60EEE7104670470000A2
:1065E4002DE9F04F87B000230446851C0DF1070008
:1065F4000F4690468DF8073000F0F8FF45480668CE
:106604003E60D0E90132134401339B1B824600F201
:106614001C4600F5836900F21447AB421BD30022E9
:10662400B8F1000F70D0052363F3070264F38912F5
:10663400DAF80010DAF808309DF807000B4003334D
:106644000D444AF82320CAF8005000F0F3FF01205B
:1066540007B0BDE8F08F0121304602F010F848463B
:1066640002F026F8384602F023F8DAF80400DAF8E3
:1066740008B0029000EA0B0003300AEB800002A984
:10668400FFF790FF029B50BB0BEA03020AEB820266
:1066940003F1020CD2680392013303EA0B0B0AEBF9
:1066A4008B0B02F00302012ACDF808C0DBF80C10B2
:1066B40022D0022A16D08346384601F0FCFF10B1DE
:1066C400029BCAF804305946304601F0D8FFDAE993
:1066D40001231344DAF8002001339B1A9DE70BEAE7
:1066E4000300C9E7BDF80E309B0903334FEA114B91
:1066F4000CEB93030293DFE7BDF80C30C3F3831371
:106704004FEA114B6344F5E7062363F3070264F38E
:106714009F528DE7441E00200B4B0C48FF2210B5FE
:106724009A600022C3F81824C3E90022C3F8142491
:1067340083F8202402F0FDFC044610B9044802F05A
:1067440001FE204610BD00BF441E002004FF0200CD
:10675400A4FF020030B50A4C71B10A4A0A49121B5F
:10676400D20800239A4201D1002030BD31F82350D1
:10677400854202D00133F5E7034654F83300F4E7C9
:106784004CFE020004FF0200D01C0020094B01391A
:1067940003EBC000032909D8DFE801F00A0204066C
:1067A4000420704700797047407970470020704793
:1067B400022070474CFE0200034BD3E90030C31A99
:1067C40058425841704700BF441E00202DE9F04351
:1067D40087B0FFF7F1FF0646002840F0FB807E4DAE
:1067E400C5F81804BFF34F8F6868AC680290204066
:1067F400033005EB800002A9FFF7D4FE029B18B119
:10680400D5F81824002A5FD004EA0302991C013346
:1068140005EB8202234005EB8303D268DB68049313
:1068240002F00303022B0392029162D1BDF80E30F1
:106834006A484FEA9318B8F1500FC14628BF4FF089
:10684400500969F38F1309F10801ADF80E3002F015
:1068540088FC0746002800F0A88002F0B1FC03A9D8
:1068640000230822384602F0BEFC029924EA0106FD
:106874000136B600B14535D95FFA89F97EB3F6B26F
:10688400A9EB0609214003315FFA89F4B146544E5D
:1068940005EB810108234A46384602F0A4FC36B1D0
:1068A40009F1080322463146384602F09CFC029B5B
:1068B40008F1030803EB98030293D5F81834002B6E
:1068C4004BD1D5F810445BE02A689A4204D86A6038
:1068D400304607B0BDE8F08304EA030088E7404986
:1068E4003446D7E72140033108234A4605EB8101AA
:1068F400DAE7012B59D1BDF80C303848C3F38311C2
:10690400062928BF062161F3891302318900ADF8F5
:106914000C3002F026FC0746002846D002F050FC5A
:106924000023082203A9384602F05DFC0026BDF8C6
:106934000C20C2F38312B300964203F10803BCD2C5
:1069440002994A1C21400331029205EB8101042281
:10695400384602F048FC0136E9E7384602F034FCD8
:10696400FFF72AFF80F00100C6B2B1E7E3685B7964
:1069740023B1236839461B6820469847E3681C689E
:10698400002CF3D1384602F01FFC0DF107008DF8FE
:10699400074000F02BFED5F818340BB9029B6B604E
:1069A4009DF8070000F046FEDAE7D5F8104454B924
:1069B4000C4B0D480D49C01AC008000440F00200F9
:1069C40000F06EF8CCE7236820469B689847E3689C
:1069D4001C68ECE700267BE7441E002004FF02004D
:1069E400501E00204CFE020074FE0200B0FF0200A4
:1069F4002DE9F74F284C80460F46924601A9012203
:106A040018469B46D4F80890FFF7EAFD80B3019D31
:106A14000026A91C5E4506EB010233D100211F4864
:106A240001F0ECFD80F310006A1C02EA090204EB99
:106A34008202000405EA0903033340EA1840D060E7
:106A440014F8232068F3C50204F8232034F8232023
:106A540066F3891224F8232054F8232067F39F2235
:106A640044F8232002F0F80242F0010204F8232043
:106A740094F820341BB1FFF7A9FE0028FBD103B022
:106A8400BDE8F08F09EA020204EB82025AF82630CC
:106A9400D3600136BEE700BF441E00206022002000
:106AA40000231A46FFF7A4BF07B50123019201AAE8
:106AB400FFF79EFF03B05DF804FB07B5CDE90023A3
:106AC40002236A46FFF794FF03B05DF804FB1FB589
:106AD400CDE90123069B039301AA0323FFF788FF53
:106AE40005B05DF804FB1FB5CDE90023069B0293B6
:106AF400079B03936A460423FFF77AFF05B05DF80A
:106B040004FB000030B50F49D1F8102400231446CB
:106B14003CB9C468237152B9C1F810042260184604
:106B240030BDE46825799D4206D02468F0E7D26838
:106B3400116821601060F2E701330A2BE7D14FF0AE
:106B4400FF33ECE7441E0020094A38B50123D2F88C
:106B5400104482F820341D4604B938BDE3685D71E1
:106B6400236820465B689847E3681C68F4E700BF25
:106B7400441E0020037A052B10B50C460FD0437A2F
:106B840023B1084A0849204601F0F8FD0749204688
:106B940001F0F4FD2046BDE8104001F0E4BD002AF8
:106BA400F8D0F3E7FBFF0200F00B03001D00030025
:106BB400C38873B504460D4633B1144A0092144990
:106BC400144A284601F0DAFD217A05291CD0637A9B
:106BD4004BB1A088FFF7DAFD0F4B104953F8202082
:106BE400284601F0CBFD227A0D4BA08853F8226091
:106BF4000021FFF7AFFD0B4903463246284602B099
:106C0400BDE8704001F0BABD02B070BDFBFF0200E8
:106C14000800030000000300C8FF0200F00B03009B
:106C24002C000300200003002DE9F04385B01F462B
:106C34000C9D002306460C46904695F80C902B7349
:106C440029463846FFF7B4FFB8F1060F09D8DFE844
:106C540008F00412181F283340003146284601F07A
:106C64008DFD002229463846FFF784FF85F80C90F5
:106C740005B0BDE8F08322683146284601F07EFD68
:106C8400EFE7D4E900233146284601F077FDE8E731
:106C9400A36800933146D4E90023284601F06EFD31
:106CA400DFE7E3680193A36800933146D4E9002346
:106CB400284601F063FDD4E723690293E368019356
:106CC400A36800933146D4E90023284601F056FD19
:106CD400C7E76369039323690293E3680193A36895
:106CE40000933146D4E90023284601F047FDB8E774
:106CF40008292DE9F84F80460E4617461C463AD817
:106D0400002593F80C901D7319461046FFF750FFA9
:106D1400DFF884A0DFF884B0AE422ED918F805203D
:106D24005946204601F02AFD0135082DF4D11849B1
:106D3400DFF86CB0204601F021FD4FF0000A564503
:106D440020D918F80A507E2D03D8284608F062FF8F
:106D540000B92E252A465946204601F00FFD0AF1B6
:106D6400010ABAF1080FEAD1012221463846FFF799
:106D740001FF84F80C90BDE8F88F5146204601F0DD
:106D8400FDFCD1E70349204601F0F8FCE7E700BF2A
:106D9400F6FF0200F4FF0200F2FF0200ECFF020023
:106DA400F8FF02002DE9F04F394E87B04FF000098B
:106DB400384B1B785FFA89F5AB4202D807B0BDE8BF
:106DC400F08F354BD3F800A01AF835000124D6E92A
:106DD400001EA0F12002C0F1200304FA02F224FAFA
:106DE40003F3134304FA00FC009301EA0C03029337
:106DF400009B0EEA03030393DDE9022313430AEB2A
:106E0400C50B41D0009B21EA0C012EEA0303C6E91D
:106E1400001302F029FF1AF835502049A5F1200289
:106E2400C5F1200304FA02F224FA03F31343D1E96F
:106E340000C2AC40134004EA0C0105930024C3B221
:106E4400CDE90034009A0491C5F12003A5F1200195
:106E540022FA03F302FA01F848EA03081346AB40A6
:106E64001F46DDE90434444508BFBB420CD1DBF8BE
:106E740004304BB19BF801104A1E51425141081A8B
:106E8400414241412846984709F1010990E700BF72
:106E94003023002000230020382300202823002052
:106EA4002DE9F0418046204800F090FBD0BB01253D
:106EB400A8F12004C8F1200325FA03F305FA04F429
:106EC4001C431A4BD3E9001205FA08F501EA05063A
:106ED40002EA040756EA07001E461DD1404602F0A6
:106EE400C3FE134BD3E9001288B129432243C3E9FB
:106EF4000012D6E900231C430E4B0B4819681543B6
:106F0400C6E900540022BDE8F04100F019BB21EAB3
:106F1400050122EA0402EAE721EA050522EA04045B
:106F2400C3E90054BDE8F081082300203023002089
:106F34002823002004230020042A2DE9F3410546D8
:106F44000C4616463AD902F0BFFDD8B11C4B1D4978
:106F54001D601D4BDFF884801C701C4B00221E60DA
:106F64000023C1E900231A49C1E90023013CE4B22A
:106F740000260327FF2C0CD1164A1748002100F0E5
:106F8400CDFA03E002F068FD0028DFD002B0BDE8CE
:106F9400F08123B205EBC30201A992788DF8052094
:106FA40015F833008DF8066042468DF8047002F03F
:106FB40095FD013CE4B20028DCD0E7E70720E5E7D3
:106FC400382300202823002000230020042300204D
:106FD40030230020A96D02008C000300A56E02007E
:106FE40070B5084D084E00242B789C4201D3002034
:106FF40070BD3368012113F8340002F0EBFD013455
:10700400F2E700BF00230020382300201FB5002131
:10701400039001AA44F20100CDE9011100F004F843
:1070240005B05DF804FB000010B572B6FFF78CFDE7
:10703400FFF7CCFB0028FBD1104B114C1149E41A8B
:10704400E408240444F00100FFF72AFD0E4B1B68FA
:10705400DB0700D500BE0D4944F00200FFF720FD18
:10706400BFF34F8F0A490B4BCA6802F4E062134323
:10707400CB60BFF34F8F00BFFDE700BF4CFE0200A3
:1070840074FE020090000300F0ED00E09C00030099
:1070940000ED00E00400FA05094A537891780133C1
:1070A400DBB2994208BF0023117899421FBF0370D5
:1070B4005078182303FB002014BF043000207047CD
:1070C4003C23002073B5054600240DF107000E464D
:1070D4008DF8074000F08AFA0DF10600FFF7DCFF97
:1070E40090B10670094B9DF8062045605A709DF8D2
:1070F400070000F09FFA24B9054B4FF48012C3F83F
:107104000021204602B070BD0424F0E73C23002097
:1071140000E100E0024B4FF43C6043F001031847E8
:10712400B000030038B50C4B0C4C4FF40032C3F8DC
:10713400802001254FF48033C4F84833C4F8083361
:107144006560FFF7E7FF064BA56000241C60FFF7AE
:10715400E1FF044B1C7038BD00E100E00010014069
:107164005824002049240020F8B51F4B1F491B68F0
:107174000025C1F84051C1F84451C1F84851C1F843
:107184004C51C1F80051C1F804514BB3D1F8044536
:1071940017490968641A24F07F442F461A68A242EA
:1071A40009D8A41A15441A7CDE691AB11F74D3E9EC
:1071B40005209047AEB90F4A0F4B11781B788B42CC
:1071C40005D10133DBB2022B08BF00231370127800
:1071D4000A4B43F822500A4B4FF48012C3F80021A3
:1071E400F8BD3346DAE700BF5C24002000100140FC
:1071F4005824002055240020542400204C2400202E
:1072040000E100E02DE9F04FA14AA2491378097882
:10721400A14D994285B03CD00133DBB2022B08BFAB
:10722400002313709D4912789D4B0F6853F8220078
:107234003B1823F07F4300220B602B68164614464C
:10724400944613B942B12B6006E0196881420ED905
:1072540002B12B60091A196001272B68DFF848A2D4
:1072640001934FF00008BEB9DFF844B266E0401A5B
:107274000C44D968C3F800C0D3F81CE031B13A1902
:1072840022F07F42C3E90121DE611E4601227346DA
:10729400D7E700263746E0E73446F6697F4A636855
:1072A4001268DFF810C2A068991A21F07F41614585
:1072B40000F2A68001442160012222742A6800237E
:1072C400C4E90133E361002A40F0A3802C60CAE7DB
:1072D4005A1C9BF80210D2B291428BF8002004BFD2
:1072E40000228BF80020182202FB03B31A799C6851
:1072F400022A1CD0032A12D0012A1FD1207CE8B90B
:10730400D3E90312A2605A69E2609A69654BA261EB
:107314001B78002B0CBF0B4603466360BEE70022BC
:107324002B681146002B67D142B12B6006E0296817
:107334000A468946002A5AD1002323749BF8003058
:107344009BF801209A42C3D12B68B8F1000F04D1F5
:10735400019A9A4201D1002F43D0002B73D0D3F865
:1073640000A0514D4D4BD5F804751C68DFF84881D9
:107374003E1B98F8003026F07F4603369BB94FF445
:107384008033C5F84433C5F80433484B4FF4003216
:107394004FF00109C3F880211A60C5F80090FFF787
:1073A400B9FE88F80090B2452CBF5444A41924F0C7
:1073B4007F44C5F84045D5F80435DB1B23F07F43F3
:1073C400E41B033324F07F44A3420AD9D5F80435DF
:1073D400C5F84035FFF79EFE344B4FF40032C3F836
:1073E4000021304B00221A7005B0BDE8F08F9442A2
:1073F4002CD09146D2699DE719740122DB6991E78B
:10740400D31A23F07F43834234BFC31A002323607B
:1074140052E721681368994213D8591A1160E2613E
:1074240054E7091AD8691A4638B1034618688842DD
:10743400F7D3401A1860184613462160E061DC61F6
:1074440011E71346F2E7FFF76DFECAE74C4511D189
:10745400CB692B6073B9DFF844E00120CDE9021257
:10746400CAF80800CEF800300E4B1870FFF752FE31
:10747400DDE902121368D269C9F81C2012B1106840
:10748400034413602B68994218BF4FF0010853E777
:1074940054240020552400205C240020582400207B
:1074A4004C240020482400200010014000E100E0AA
:1074B4003C230020FEFF7F004924002008B5FFF78D
:1074C40031FE104B00200B2218809A700E4B18606E
:1074D4000E4B18700E4B18700E4B4FF48012C021D7
:1074E400C3F8802183F814131A6002F18042A2F5D4
:1074F4006F22C2F8080583F81113074BD2F804254C
:107504001A6008BD3C2300205C2400205424002081
:107514005524002000E100E058240020074B9B780C
:107524004BB132B128B10368187C20B959745A613F
:107534007047072070470820704700BF3C23002095
:107544002DE9F7431E4FBB7805460E469046A3B37C
:1075540098B304292FD943697BB3437C0024012BBE
:107564000DF107000CBF8946A1468DF8074000F0D5
:107574003DF80DF10600FFF78FFDD0B10123037034
:10758400104B4560D3F80435C0E90498C0E90236CD
:107594009DF806307B709DF8070000F04BF824B985
:1075A400094B4FF48012C3F80021204603B0BDE814
:1075B400F0830424EFE70724F7E70824F5E700BF86
:1075C4003C2300200010014000E100E0064A9278CC
:1075D4003AB130B1426922B1002202740221FFF7AC
:1075E40071BD0820704700BF3C23002070B5EFF345
:1075F400108672B60C4A946801239CB993600B4BB5
:107604000B4DD3F8801029401160C3F88050D3F893
:10761400841051604FF0FF32C3F88420047006B91F
:1076240062B670BD0370FAE76024002000E100E058
:10763400FC06FFBD084B9A6810B55AB150B9EFF378
:10764400108172B6054A1C6814605C6854609860C6
:1076540001B962B610BD00BF6024002000E100E063
:1076640070B5064D0646002455F8043B0BB1304670
:1076740098470134042CF7D170BD00BF7824002052
:10768400033080B240F2FD33984230B51FD8124B1C
:107694001A783AB91C895D892C440444A4B2B4F51F
:1076A400806F0AD31A7DA2B99A8BDC8B22440244E0
:1076B40092B2B2F5806F0CD201220A8014461422D1
:1076C40002FB04335A8910445881002030BD09203C
:1076D400FCE70720FAE700BFAC2400200B4A0C4B60
:1076E4005188142000FB0131CB6833B90420496868
:1076F40010700122074801F0C5BA0523064913702A
:1077040002238B80012200230968F3E790240020E0
:10771400AC240020D01C00207425002007B50023D1
:1077240005490093054A09680548082301F014FA3D
:1077340003B05DF804FB00BF74250020C4000300FF
:10774400D01C002007B50023009301460823034AF8
:10775400034801F001FA03B05DF804FBBC00030028
:10776400D01C002013B500230C46009301460423CB
:10777400074A084801F0F0F938B9074B142202FB14
:1077840004340123237402B010BD0E20FBE700BFB4
:10779400B8000300D01C0020AC24002037B50A48F0
:1077A4000A4B42689C881968538803250333057083
:1077B4009BB2002000909B0001EB8401044801F07F
:1077C400CBF903B030BD00BF902400207425002005
:1077D400D01C002010B50146044800F043FE1C22D2
:1077E4000446002108F07FFA204610BD60250020E1
:1077F40068B10268084B9A4209D14068074B984225
:1078040007D0013398420CBF0120032070470320A6
:1078140070470020704700BFDEC0ADDEFE011EF1E0
:107824004388033300EB8303994209D382884FF6DC
:10783400FF739A4206D00088B0FA80F0400970477E
:1078440002207047012070472DE9F8430223DFF836
:1078540060800B800D46174600F5805600F1080441
:107864004FF00109B4420FD2236801330CD03146E2
:107874002046FFF7D5FF48B10FB187F800900228E2
:107884000BD14FF480632B80BDE8F883A368D8F84C
:107894000020934201D9C8F800302B886288033352
:1078A40013442B806388033304EB8304DAE700BFBB
:1078B400A4240020154A142303FB002070B50B6890
:1078C40044680D4604F58056ABB15C88033403EB81
:1078D4008404B4420DD2236801330AD031462046D1
:1078E400FFF79EFF01280BD010F0FF0F05D00228F0
:1078F400EFD1002003E00834EBE72C60012070BDD9
:107904006388033304EB8304E3E700BFAC24002063
:10791400436873B504460D4663B3234AD1688B426A
:1079240028D31269934225D813F0030022D11F4AA9
:107934002189128991421DD121689A68914219D1F5
:107944001B4A51688B4203D901F580518B420DD3F8
:10795400926993420CD902F58052934208D20123D2
:107964002B80B0FA80F0400902B070BD0346F7E7FF
:107974000A20F6E700232B801E46019601A92888D9
:10798400FFF798FF30B92B8801339BB2012B2B8072
:10799400F3D9E9E7019B226899689142EED16360CB
:1079A400024B1B892381DFE7D01C00209024002098
:1079B400AC2400202DE9F8431C461C4B1B780646DA
:1079C4000F4615466BB372B36CB3DFF868804FF0A3
:1079D4001409A388012B01D90A2020E009FB03F331
:1079E40018F803302BB92146A088FFF763FF20B9AC
:1079F4002060A3880133A380EBE723681EB1998834
:107A040032889142EFD11FB119883A889142EAD164
:107A14009A68C5E90023064B1B892B810020BDE829
:107A2400F8830220FBE70520F9E700BF8824002043
:107A340090240020AC24002008B5074B191D588859
:107A4400FFF738FF18B1BDE80840FFF7A7BEBDE84F
:107A54000840FFF743BE00BF902400202DE9F04FFB
:107A6400A04FDFF8A49289B00646B8463B6823B914
:107A740049469D4800F030FD3860D8F80050297818
:107A84004B1E052B00F2FA80DFE813F006005E00BF
:107A94005E00EE00EE005C0126B1944B00225A60B9
:107AA4000124ECE02B79032B1DD8DFE803F0150249
:107AB4002A358F490B78022B084619D00B7D022BEF
:107AC4004FF0010316D114225343C2180020C854A6
:107AD4005068FFF737FE03E001232B71FFF71EFE0A
:107AE400002800F0BC80814B00225A600E24C6E0BE
:107AF4000023E8E77D4A13700023536041F61D54C8
:107B0400BDE07C497C48002302222B718A8001223B
:107B1400096801F0B7F8E3E7764C00262E71206877
:107B2400734DFFF70FFE754BD4F800C05A88142329
:107B34005343EA18EE5451682160A188C2F804C086
:107B440011810222A280CBE7B5F814A0AA7DDFF848
:107B5400A0B1AEB1022AEB8806D9142101FB0AB107
:107B6400DA1C088902440A81142202FB0ABAC3F50A
:107B74007F43BAF80A20FD331344AAF80A308FE78A
:107B8400142303FB0AB318895C6804EB8004062AF7
:107B940068D8DFE802F0274D35431D59040041F64B
:107BA4001D54AA7DEB88022A06D9142101FB0AB1CF
:107BB400DA1C088902440A81142202FB0ABAC3F5BA
:107BC4007F43BAF80A20FD331344AAF80A3056E07A
:107BD4004B484C4900234360AB690360FFF798FEB0
:107BE400002871D00223AB75002300930423EA1804
:107BF4002146414800F0B0FF002830D00E24D0E7E1
:107C04002B69002B14BF03230123AB7500230093BE
:107C140005F10C02042304F10801EAE70123AB7522
:107C24000022EB8800929B002A6904F10C01E0E732
:107C340003290CBF05230623AB75002300930423FB
:107C440005F10802E118D4E70623AB752D4B19881A
:107C54002B4B5868FFF786FD04460028A1D109B0D4
:107C6400BDE8F08F0F249CE7002E7FF419AF2B7929
:107C7400012B4BD0E3B1022B3FF440AF0F2414226D
:107C8400002103A808F02FF841F61D539C4208BFB9
:107C94000024D8F8003004941A78023A042A00F236
:107CA4000581DFE812F0E600F20015011D01240150
:107CB40002232B710DF10A01EB68039303A8CDE9AC
:107CC4000466FFF725FE08B90A24D8E70498BDF82E
:107CD4000A108388EB8003882B81FFF743FD044659
:107CE40027E000BFA824002060250020882400206D
:107CF400AC24002074250020D01C002090240020F7
:107D04006C24002080250020A0240020DFF8FCA1A2
:107D140003AA53463146A81DFFF74CFE044658B942
:107D2400BAF804100498FFF71DFD04460A2C3FF42A
:107D3400E5AE002CA3D192E708223146504607F065
:107D4400D2FFF3E7002E7FF4ABAE6B4B1A7BAAB1E4
:107D54001E731A78013A062A90D801A151F822F02C
:107D64000B7E0200317E02004F7E0200557E02002F
:107D7400817C02005B7E02006D7E02001A78072A75
:107D8400E7D801A151F822F0AD7D0200577D020031
:107D9400577D0200D37D0200E77D0200077E0200CA
:107DA400077E0200CF7D02001A89544901321A81EC
:107DB40000225A801A730A78B2FA82F252099A722D
:107DC4000A7DB2FA82F25209DA72012207E04C49C2
:107DD40058688A884088033202448A8002221A70D2
:107DE400B7E7464C5A884649142505FB0242086801
:107DF400546850608888108102228A800C600622B0
:107E0400EDE70722EBE79A7A32B9DA7A8AB90022E7
:107E14001A705A805A6071E6384900229A72CA6808
:107E2400002AF2D1097C0029EFD05A80FFF704FE22
:107E340055E70022DA72314A116A0029E7D192F833
:107E44002420002AE3D00122EFE7FFF7A7FC46E74E
:107E5400FFF744FC43E7294A5B88142101FB032311
:107E64005868FFF76FFC3AE700225A60FFF756FCA8
:107E740035E701228DF80C201A89ADF818209A886C
:107E8400DB68ADF81A20059310E002228DF80C206F
:107E94001A89ADF818209A88ADF81A20DA689B7D03
:107EA40005929A1F534253418DF81C3003A8FFF7E3
:107EB400D7FB002649461348C8F8006000F037FB9A
:107EC4000121114800F0E6FB00287FF4CFADC6E69F
:107ED40003228DF80C20DA88ADF818201A89CFE730
:107EE4000422DB888DF80C20ADF81830DEE705237A
:107EF4008DF80C30DAE700BF90240020AC24002079
:107F04007425002060250020702500208425002091
:107F14004068FFF7A3BD000008B50121044800F044
:107F2400A3FB18B9BDE80840FFF798BD08BD00BF22
:107F3400702500202DE9F3419846354B1B78064601
:107F44000D46002B5BD000295BD009884FF6FF73E8
:107F5400994258D06B88002B55D06B689B0754D13D
:107F64004AB92F890DF102013846FFF789FB30B178
:107F740002B0BDE8F08113885788ADF8023001A83B
:107F8400FFF728FC044658B9BDF80230214A1421F1
:107F940001FB032358890338C01B58810820E7E7F5
:107FA40000238375BDF8023083826B68036180F817
:107FB40000800121184800F062FB2B882381B8F16E
:107FC400030F6B88A38004BF0423A3754FF000053F
:107FD40008BF3368E06008BFA361E780658101A939
:107FE4000E4800F069FA36B1E36833600C4B7560F3
:107FF4001B89B5723381FFF78FFF0020B8E7022099
:10800400B6E70520B4E70420B2E70320B0E700BFD9
:1080140088240020AC240020A42400206025002013
:108024009024002008B5084B1A68042A09D019685E
:10803400064A42F821000121184600F020FB0020E6
:1080440008BD0C20FCE700BF7C250020782400201C
:108054002DE9F04F14228BB000210DEB020007F044
:1080640042FE764A137803F0FF01CDE901123BB1D9
:1080740005A8FFF7F5FA002738460BB0BDE8F08FE6
:10808400029B181D00F011FB0028F4D140F6F87390
:108094004FF080521B685C1C08BF694B694C08BFD9
:1080A4001B6811695269581C08BF02FB01F3236164
:1080B4000022A3F540536449E360204600F018FD14
:1080C400039407460028D7D11C238C225F496048BB
:1080D400DFF88891DFF8888100F08FF9BA463D46D1
:1080E4004FF0030B3C46039BDE6856443046314652
:1080F400FFF77EFB01284DD042B2002A36D0032878
:1081040022D106F580520868013040F08A8004319B
:108114009142F8D1D9F800203AB902220123C9F8D2
:108124000060A9F8042001930CE0142262430220A9
:1081340008EB020108F80200464A4E6054800134FC
:108144000881A4B245F001050AF5805ABAF5405FEA
:10815400C9D1BBF1010F98BF0025EDB2022D03D0A8
:10816400062D35D0002D3CD10B2785E71421614322
:1081740008EB010008F8012001F110020831466003
:10818400424441443046FFF75FFB45F002050134A9
:10819400A4B2D9E7019B63B11422624308EB020144
:1081A400022008F802000134D9F800204A6008814E
:1081B400A4B200222849C9F800603046FFF744FB06
:1081C400B9F80420022A0CBF042208221543BBE795
:1081D400029A0123137005A800235360FFF740FAA5
:1081E4004AE704A8FFF7F6FAC8B10123013D03707A
:1081F4000A2D09D8DFE805F006080608070807086D
:108204000F110F000023037104A9114800F054F961
:10821400FFF782FE30E70323F5E70223F3E708279D
:108224002AE70BF1FF321FFA82FB1422624308EBA8
:1082340002014E60032108F80210A8E788240020F8
:1082440014100010D01C0020B8020300D424002015
:10825400602500209024002078250020742500202B
:10826400AC24002073B50D460446C8B1C1B10DF16C
:108274000601FFF74DFBA8B10B4BBDF8060066687D
:10828400142202FB003001210C3000F0F8F963687D
:108294002E600C336B600123A372002002B070BD0A
:1082A4000520FBE70A20F9E7AC24002013B50446B7
:1082B400A8B10DF10601FFF72BFB90B10B4ABDF8F5
:1082C4000630142101FB0323DA6862B1A27A52B1A9
:1082D400DA680020013ADA60A07202B010BD05200D
:1082E400FBE70A20F9E70620F7E700BFAC240020EB
:1082F40002230022FFF71EBE18B103230022FFF75A
:1083040019BE052070470000104B1B7813B50446B6
:10831400ABB14FF6FF73984213D001A8FFF75AFA96
:1083240088B10523037001230371C48001A908489F
:1083340000F0C2F8FFF7F0FD002002B010BD0220EB
:10834400FBE70420F9E70820F7E700BF88240020B2
:10835400602500200E4B1B7807B5A3B101A8FFF7D9
:1083640039FA90B10623037001A90A4800F0A4F871
:10837400094B1A780AB101221A73FFF7CDFD0020C8
:1083840003B05DF804FB0220FAE70820F8E700BF19
:1083940088240020602500209024002007B5ADF833
:1083A4000600ADF804100DF1060001A9FFF702FB69
:1083B40003B05DF804FB07B51346ADF806000A46A2
:1083C40000200DF10601FFF7F5FA03B05DF804FB98
:1083D40007B51346ADF806000A460DF10600002164
:1083E400FFF7E8FA03B05DF804FB20B119B10368A4
:1083F4000B60002070470520704710B561B1B2FBD7
:10840400F3F403FB1424A4B244B9C0E90014846057
:108414008281C381204610BD0E20FCE70920FAE7C3
:1084240082B050E8022FC188B2EB324F4FF0000304
:1084340017BF92B241EA014142EA014104E04268B5
:10844400B2EB324F08BF012340E80212002AE8D100
:108454008DF807309DF80730002B0CBF1120002049
:1084640002B0704737B550E8013F9DB2C489254436
:108474008489A54228BF2D1B0489A54202BFBFF3EE
:108484002F8F002207E0C5EA030540E80154002CC1
:10849400E9D14FF001028DF803200193019B9DF86F
:1084A40003200B6002F0FF0322B10B88006818441C
:1084B40003B030BD1846FBE70A884B889A4209D1BD
:1084C40050E8012FC2EA024240E80123002BF7D111
:1084D400012070470020704737B550E8023F1FFA6B
:1084E400A3F5C488A54202BFBFF32F8F00220DE07D
:1084F400C48925448489A54228BF2D1BC3EA0545A8
:1085040040E80254002CE8D14FF001028DF803201A
:108514000193019B9DF803200B6002F0FF0322B13D
:108524004B880068184403B030BD1846FBE70A883E
:108534004B889A4209D150E8022FC2EA224240E80D
:108544000223002BF7D1012070470020704701F06F
:108554001F024B090121914000EB830000F063B836
:108564004B0910B501F01F040121A14000EB830069
:1085740000F04EF8E04000F0010010BD01F01F03D0
:1085840001229A404B0900EB8300D14300F061B80B
:108594004B0901F01F0150F82300C84000F001000E
:1085A40070472DE9F0474E1E760980460F46013686
:1085B400002558F8254008EB8509E44394FAA4F40F
:1085C400B4FA84F44FEA451A202C06D10135AE42A0
:1085D400EFD83C462046BDE8F0875444A742F5D97D
:1085E40021464046FFF7BCFF0028F3D0D9F80040ED
:1085F400E44394FAA4F4B4FA84F4E5E750E8002FD1
:108604000B4640E8003C9CF0000FF7D11046704741
:1086140050E8002F42EA010340E8003C9CF0000FC0
:10862400F6D11046704750E8003F43EA010240E8A3
:10863400002C9CF0000FF6D11046704750E8002F34
:1086440002EA010340E8003C9CF0000FF6D110461A
:10865400704750E8003F03EA010240E8002C9CF018
:10866400000FF6D11046704750E8002F02EB0103CB
:1086740040E8003C9CF0000FF6D11046704750E8EB
:10868400003F03EB010240E8002C9CF0000FF6D100
:108694001046704750E8003FA3EB010240E8002C6D
:1086A4009CF0000FF6D1104670470121FFF7B0BFD0
:1086B4000121FFF7B8BF0021FFF7C0BF10B590B18B
:1086C400D0E9012301689B1ADBB20A60013BDBB2EB
:1086D400FF2B026802D10020107110BD11684C1CE0
:1086E40014600B70F2E70E20F7E737B50546002457
:1086F4000DF107008DF80740FEF778FF2A686B68D4
:10870400116899420ED9481E106011F8014CEB68AB
:10871400298A01FB0434AB6811791B1ADBB2994234
:1087240038BF13719DF80700FEF784FF204603B09D
:1087340030BD37B5054600230DF107000C468DF812
:108744000730FEF753FF2A681368591C1160E96863
:10875400641A298AB4FBF1F41C709DF80700FEF733
:1087640069FF03B030BD826810B504462AB143697D
:108774000168006998470023A36010BD0EB403B5D7
:10878400039921B104AB01AA019300F075F802B07A
:108794005DF804EB03B070470A2938B504460D466A
:1087A40002D10D21FFF7F8FFA3682268591CA160CC
:1087B400D554D4E901329A4204D32046BDE8384066
:1087C400FFF7D1BF38BD00002DE9F84F9946DDE928
:1087D4000A431746824688460A460126BA420FD201
:1087E4004E4538BF4E4613F0010B01D164B9002445
:1087F4000125B9F1010F1AD909F1FF397D43F8E7D1
:10880400B2FBF7F20136E9E79B070ED5B9F1000F89
:108814000CBF30252025A642EAD2013C2946504609
:10882400FFF7BAFF002CF6D1E1E72025F3E7B8FB08
:10883400F5F39F42E2D9DFF83C90B8FBF5F35046DC
:1088440019F8031005FB1388FFF7A6FFB5FBF7F330
:10885400BD4207D2BBF1000F02D00CB1A64203D334
:10886400BDE8F88F1D46E8E720215046013CFFF79C
:1088740093FFF2E7CC0003002DE9F74F05461746B6
:108884008846002900F0308118F8011B49B92B7B78
:10889400002B00F02981284603B0BDE8F04FFFF714
:1088A40062BF252940F0C080002698F800302D2BA7
:1088B400424608F1010823D0302B24D02B2B25D09D
:1088C40000242A2B02F1010123D13B681A1D1B68E5
:1088D4003A601C440A4613782E2B26D101324FF0FD
:1088E4000009104610F8011BA1F1300CBCF1090F6E
:1088F4001DD80A2303FB0913A3F130090246F0E74C
:1089040046F00106D1E746F00206CEE746F004063B
:10891400CBE711F8013CA3F130000928DBD80A2287
:1089240002FB0434303C0A46CBE74FF0000912F84E
:10893400011B01F0FB0068289046F8D069290ED08D
:108944004AD8582964D006D825296DD098F8003023
:10895400002B99D19BE7632962D06429F6D13A6848
:10896400D2F800A0111D8AEAEA723960A2EBEA7219
:108974004FF0010B092A5BDCCB4538BFCB462CB149
:10898400BAF1000F01DB720700D5013CB30702D531
:10899400B9F1000F04D0F00702D4002C4ED100240A
:1089A400BAF1000F52DACAF1000A2D212846FFF766
:1089B400F3FE06F00302022A05D1B9F1000F02D139
:1089C400002C47D10024CDE900464B460A225146EB
:1089D4002846FFF7F9FEB9E773294CD014D870295B
:1089E400B4D13B681A1D3A60302128461C68FFF751
:1089F400D3FE78212846FFF7CFFE00220823CDE9D5
:108A0400003221461022E3E775292BD078299DD125
:108A140039680A1D3A60CDE900464B46102228E029
:108A24003B681A1D19783A602846FFF7B5FE8DE7B2
:108A34000A230BF1010BB2FBF3F29BE7A345AFD280
:108A440020212846013CFFF7A7FEA6E77107B0D511
:108A54002B21ABE7A345B6D230212846013CFFF7D2
:108A64009BFEADE73968CDE900460A1D3A604B46E6
:108A74000A220968ACE73B681A1D3A6016F0010641
:108A8400D3F800A020D1BAF1000F03D0504607F06C
:108A940084F90646B44200D9C4B90AF1FF3A1EE08B
:108AA40028460136FFF778FE1AF806100029F7D198
:108AB400A642BFF44BAF002C3FF448AF2021284618
:108AC400013CFFF769FEF3E70026EDE72021284685
:108AD400013CFFF761FEDDE72846FFF75DFE1AF86B
:108AE400011F0029F8D131E703B0BDE8F08F000081
:108AF40007B50B4688B9124B1248134AC01A0E2305
:108B0400C0080093114B0004114940F00100FDF727
:108B1400DEFF0E2003B05DF804FB4BB9084B094897
:108B24000C4AC01AC0080E2300930004074BEBE75D
:108B340003601B68114603B05DF804EB184700BFDF
:108B44004CFE020094FE020089010300DC000300D5
:108B54008E010300050203002DE9F34188B93D4B62
:108B64003D483E4AC01AC0080E243D4B0094000400
:108B74003C4940F00100FDF7AAFF204602B0BDE8E1
:108B8400F0814AB9334B3448374AC01AC0080E241E
:108B940000040094324BEBE7D0F800C0BCF1000FA6
:108BA40009D12C4B2C48314AC01AC00808240004AF
:108BB40000942B4BDCE74BB9264B27482C4AC01AB0
:108BC400C008092400040094254BD1E74768D7F86E
:108BD4000480B3FBF8F708FB17374FB11D4B1E4851
:108BE400244AC01AC0080924000400941C4BBFE79F
:108BF4008F0709D0174B18481F4AC01AC008102401
:108C040000040094164BB3E712F0030F09D0114B84
:108C140011481A4AC01AC008102400040094104BCA
:108C2400A6E7C768B9420BD34C1E05691C44AC4285
:108C340006D8DCF80C40A44602B0BDE8F041604719
:108C4400044B05480E4AC01AC008102400040094BE
:108C5400034B8DE74CFE020094FE020089010300E1
:108C6400EE0003008E0103000B020300FF0103006A
:108C7400BE010300110203003B0203005302030080
:108C840076020300F7B580B92A4B2B482B4AC01A49
:108C9400C0080E242A4B009400042A4940F0010025
:108CA400FDF715FF204603B0F0BDD0F800C0BCF1BD
:108CB400000F09D11F4B2048234AC01AC0080824BA
:108CC400000400941E4BE8E74AB91A4B1A481F4A9D
:108CD400C01AC008092400040094194BDDE7476852
:108CE400D7F800E00EF1FF370F4209D0114B1248BC
:108CF400174AC01AC008102400040094104BCCE793
:108D0400C768B9420CD34C1E05690EFB0244AC4241
:108D140006D8DCF81040A44603B0BDE8F040604734
:108D2400044B05480B4AC01AC008102400040094E0
:108D3400034BB2E74CFE020094FE020089010300DB
:108D4400010103008E010300FF010300BE010300C3
:108D5400140103003A01030070B508B10368ABB90C
:108D64000C4D0D4C0026641B1423B4FBF3F4B442E5
:108D740001D1002009E02B6813B901361435F6E758
:108D8400DB69284698470028F7D070BDDB69BDE849
:108D940070401847D01C0020E41C002029DF7047D5
:108DA40028DF704770B503689D6886B004460E4698
:108DB4006DB114220021684606F095FFA36805935F
:108DC400237901962BB1012B0DD06846A84706B034
:108DD40070BD01238DF8003023690293E368039387
:108DE40063690493F1E702238DF80030E3681B0301
:108DF4000293F5E70846704700207047024B187A43
:108E0400003018BF0120704728260020034B187A31
:108E14000122B0FA80F05A744009704728260020D5
:108E240008B510461A4606F035FF002008BD0000BC
:108E340008B514220021044806F055FF0348FFF743
:108E4400EFFA002008BD00BF2826002018260020C5
:108E540010B5094C094B43602046FFF726FC40B986
:108E640006F0B2FC1C2320748C2205490548FFF748
:108E7400C4FA002010BD00BF28260020AC02030065
:108E84008C2500201826002070B5244C244E237A0B
:108E940025463BB923492448FFF71EFB306008B937
:108EA400606070BD346802232B72237973B1012B87
:108EB40024D020460321FFF775FF00232B726B603B
:108EC40018491948BDE87040FFF731BBD4E90523C0
:108ED400D21AB2F5805F28BF4FF48052D4E9031050
:108EE4009208012A38BF012219441844FFF756FF9B
:108EF40050B11128DDD101232B72D2E7D4E9030349
:108F04001844FFF74DFFF3E72B7C002BC9D1014632
:108F1400BDE87040022000F009B800BF28260020F8
:108F2400402600203C2600201826002038B5831E49
:108F3400012B45D8234C237A002B41D0022B09D195
:108F4400032830D0204B1B680022E2601A793AB122
:108F5400012A22D0637C7BBBBDE83840FFF794BF75
:108F6400D3E905128D1AB5F5805F94BF521902F545
:108F740080529A619142EDD102284FF0000308BF5C
:108F840019462372104B18BF0D211868FFF70AFF0A
:108F94000E490F48FFF7CBFADCE71A6901321A6170
:108FA4005B699A42E7E7E3680133082B01D8E36081
:108FB400D0E70023E360DFE7BDE8384006F0F4BB08
:108FC40038BD00BF28260020402600203C26002073
:108FD4001826002000F0FD03012B08D1044B0022C9
:108FE4005A74421E504250411874FFF74DBF7047E7
:108FF4002826002010B5064C201DFFF756FB28B983
:10900400637C1BB9BDE81040FFF73EBF10BD00BF35
:10901400282600202DE9F34180460D460F4801A97A
:1090240016461F46FFF71EFA0446A8B11C2200216B
:1090340006F059FE2D0B0123237101A9C4F8008009
:10904400A760E56066610548FFF736FAFFF7D2FFCF
:10905400002002B0BDE8F0810420FAE718260020C1
:109064002DE9F74381468846104801A917461E4654
:10907400FFF7F8F90446B0B11C22002106F033FED4
:1090840000250A9BA36001A92571C4F80090C4E9D6
:10909400037866610548FFF70FFAFFF7ABFF284630
:1090A40003B0BDE8F0830420FAE700BF18260020CF
:1090B4002DE9F047B0F806904479D2F800A09DF865
:1090C400208009FB04F4043C06460AEB0300A0429A
:1090D4000F4688BFA4EB030A191DC2F800A0B1FB18
:1090E400F9F509FB15114DB9A9EB0104544528BF45
:1090F4005446BAF1000F04D1BDE8F0873668013D4B
:10910400F1E704317B1970182246B8F1000F0ED034
:1091140001461846AAEB040A06F0BCFDD1452544D5
:1091240036684C464FF0000128BF5446E1E7194623
:10913400F0E7FFF7C3BAF8B546790146721E054653
:10914400002393422D6803D30024A64202D8F8BD1D
:109154000133F6E70F682846FFF7EBFA0134394686
:10916400F3E72DE9F843068ACD1C0746FFF7BDFA5D
:10917400043E35440446B5FBF6F5F0B14FF4807374
:10918400EDB28380C680013D076081464FF0000840
:10919400A84512D23846FFF7A8FA064648B16379C3
:1091A4000133637108F10108C9F8000007608146C2
:1091B400EEE72046FFF7BFFF34462046BDE8F883BC
:1091C40001210430FFF75BBA10B5012104460430D5
:1091D400FFF760FA10F0FF0F04D12046BDE81040FD
:1091E400FFF7A9BF10BD1FB503920022009203AA86
:1091F400FFF75EFF05B05DF804FB1FB50392012283
:10920400009203AAFFF754FF05B05DF804FB33DFB7
:10921400704741DF70470000064B10B500241C70F6
:10922400054B1C60BFF35F8F0449054800F093F8B9
:10923400204610BD4D26002050260020D8020300F1
:109244004426002007B500230DF107008DF80730F0
:10925400FEF7CCF9F1EE103A23F09F03E1EE103A59
:10926400BFF35F8F094B4022C3F884219DF80700A8
:10927400FEF7E0F906F0A8FA20B1FFF7CAFF03B041
:109284005DF804FB20BF40BF20BFF8E700E100E029
:1092940070B5264C054601212046FFF7AFF9BFF310
:1092A4005F8F264638B9042D0AD0214B1A781AB19B
:1092B400BFF35F8F206070BD1E4A157001221A70C3
:1092C4001D4C1C4D6368BBB9FDF73EFCFDF77EFAEF
:1092D4000028FBD1174B1B78023B012B14D8BFF39A
:1092E4004F8F1649164BCA6802F4E0621343CB60F1
:1092F400BFF34F8F00BFFDE71B682878984788B1FC
:10930400204600F032F8DDE706F05EFA08B1FFF718
:109314007EFF4FF080430122C3F80025BFF34F8F37
:1093240020BFFDE7BFF35F8F3060C4E75026002005
:109334004D2600204C2600204426002000ED00E0AD
:109344000400FA05836800225A609A60C3E9042283
:10935400DA601A6070470B684A684360934208BF3A
:109364000023016008BF43607047436843B102684B
:10937400916852680B449342436004BF00234360E6
:109384007047000010B50D49A1F59472914201D8BF
:1093940000200FE08B1ADB1003EBD3735B1002EB9E
:1093A400C30452F83330834205D802D204F10802D0
:1093B400ECE7606810BD2146E8E700BF280403001D
:1093C40008B5FFF7DFFF024B002808BF184608BDA9
:1093D400ED020300054B1B68082B01BF044B186802
:1093E400B0FA80F0400918BF002070473001001027
:1093F4003401001008B54FF080430022C3F80C215B
:10940400C3F81021C3F838254FF0805203F54043C8
:10941400D2F80414C3F82015D2F80814C3F824159C
:10942400D2F80C14C3F82815D2F81014C3F82C156C
:10943400D2F81414C3F83015D2F81814C3F834153C
:10944400D2F81C14C3F84015D2F82014C3F84415FC
:10945400D2F82414C3F84815D2F82814C3F84C15CC
:10946400D2F82C14C3F85015D2F83014C3F854159C
:10947400D2F83414C3F86015D2F83814C3F864155C
:10948400D2F83C14C3F86815D2F84014C3F86C152C
:10949400D2F84424C3F87025FFF79CFF10B1384B71
:1094A400384A1A60FFF796FF18B1374BFB22C3F80E
:1094B4001825FFF78FFF48B13449354B0A681B68FC
:1094C40022F00F0203F00F0313430B60FFF782FF38
:1094D40018B1304B4FF400721A604FF08043D3F848
:1094E4000024D20744BF6FF00102C3F800242A4AC3
:1094F400D2F8883043F47003C2F88830BFF34F8F3A
:10950400BFF36F8F4FF01023D3F80022002A03DB40
:10951400D3F80432002B2FDA204B0122C3F80425A0
:10952400D3F80024002AFBD04FF010221221C2F8F5
:109534000012D3F80024002AFBD04FF0102312228B
:10954400C3F80422154B1A46D3F800140029FBD0A3
:109554000021C3F80415D2F80034002BFBD0BFF36C
:109564004F8F0D490E4BCA6802F4E0621343CB607F
:10957400BFF34F8F00BFFDE70A4B0B4A1A6008BDCB
:109584008C5600404881030000F00040E40E004087
:10959400580200104096024000ED00E000E0014057
:1095A4000400FA05001D00200090D003074B1B5C4B
:1095B4001F2B8ABF064A4FF0A04203F01F03D2F8C4
:1095C4000405D840C04300F001007047E6070300DB
:1095D40000030050074B1B5C1F2B86BF03F01F03C7
:1095E40005494FF0A041012202FA03F3C1F80C35FA
:1095F400704700BFE607030000030050074B1B5CE5
:109604001F2B86BF03F01F0305494FF0A041012221
:1096140002FA03F3C1F80835704700BFE6070300F8
:109624000003005008B50020FFF7E8FF0120FFF712
:10963400E5FF0220FFF7E2FF0320BDE80840FFF743
:10964400DDBF08B50020FFF7C5FF0120FFF7C2FF0B
:109654000220FFF7BFFF0320BDE80840FFF7BABFB1
:109664000A4B185C1F288ABF094B4FF0A04300F037
:109674001F00D3F804250121814021EA02000A4099
:10968400C3F80805C3F80C25704700BFE6070300BC
:1096940000030050074B1B5C1F2B8ABF064A4FF088
:1096A400A04203F01F03D2F81005D840C04300F0D5
:1096B40001007047E2070300000300500B2809D0A3
:1096C4000C2809D0182809D019280CBF03204FF002
:1096D400FF30704700207047012070470220704718
:1096E400014B185C704700BFE2070300C20710B5C6
:1096F40004460CD54FF0A0430322C3F83427C3F823
:109704003827C3F83C27C3F84027FFF78BFFA3078C
:109714000AD54FF0A0430C22C3F82C27C3F83027F6
:10972400C3F86027C3F8642710BD000038B5074CA0
:10973400051E04F1080318BF1C4623682BB11A68E0
:1097440022605B6828469847F7E738BD5C2600200E
:1097540020B9054B01225A70FFF7E8BF012802D156
:10976400014A9070F8E770475426002020B9034B53
:1097740001225A70FFF7DABF704700BF5426002059
:1097840038B50B4C237883B90A486360A36023611E
:10979400E36000F0C7F8054606F016F808B900F0D3
:1097A400CDF801232370284638BD8525FBE700BF8B
:1097B400542600205597020037B50B4C00230DF1B9
:1097C40007008DF80730FDF711FFE368013BE36004
:1097D400E56815B900F0C4F8A5709DF80700FDF719
:1097E40029FF03B030BD00BF54260020012813B563
:1097F40009D018B103281CD002B010BD0F4B0122B0
:10980400C3F88020F8E70E4C00230DF107008DF813
:109814000730FDF7EBFE23780BB9FFF7B1FFE368E0
:109824009DF807000133E3600123A370FDF702FFF5
:10983400E2E700F083F8FFF7BFFFDDE700E100E0B7
:10984400542600201FB503788DF800304368019337
:1098540083688DF80830C3680393054A054B68464E
:1098640053F8213052F82110984705B05DF804FBF5
:1098740068260020702600201FB503788DF800307C
:109884004368019383688DF80830C3680393054ADD
:10989400054B684653F8213052F82110984705B01B
:1098A4005DF804FB6826002070260020F0B5184BF4
:1098B4000778DFF86CE043F82720164B16460A6950
:1098C40043F827204B7F0EF807300C4684460FCC14
:1098D40089B06D460FC594E80F0085E80F001EF8A7
:1098E4000730049753B1002E0B4A694608BF32462D
:1098F4000CF1040000F0CAFD09B0F0BD002E074AC7
:10990400694608BF32460CF10C0000F0B1FBF3E7E6
:109914007026002068260020499802007D980200E5
:1099240078260020044A137923B90121106091801C
:1099340018467047852070477C260020074B1A681C
:10994400D2075FBFC02283F8002301221A604FF0C0
:1099540080430122C3F81825704700BF00E100E0EE
:10996400044B01221A604FF08042D2F81834DB0312
:10997400FBD470470C000040154B07B51A687AB148
:1099840000221A601B680093009B4FF08043012261
:10999400C3F808230F4B587910B95A711B689847BC
:1099A4000D4B1A6882B100221A601B680193019B57
:1099B4004FF080430222C3F80823064B1B680120A2
:1099C40003B05DF804EB184703B05DF804FB00BF77
:1099D400000100407C2600200401004000F180408A
:1099E40000F5C040002382B0036003680193019B2B
:1099F40002B0704703681F2B83BF03F01F0303608B
:109A040001484FF0A04070470003005007B5019093
:109A140001A8FFF7EFFF019B00EB8300D0F80027BC
:109A240022F44032C0F80027D0F8003743EA01435B
:109A3400C0F8003703B05DF804FB0000054B4FF09D
:109A4400FF32072843F8202084BF1B1883F85820CE
:109A5400704700BF8426002010B5174C94F86A3074
:109A640043BB04F130033021FF22013911F0FF011F
:109A740003F8012BF9D1C8B2FFF7E0FF01310C293B
:109A8400F9D1062200210D4806F02DF90C4BC02215
:109A940083F8062340221A604FF4BE70FFF79EFF3E
:109AA400084B4FF00042C3F80423012384F86A30C2
:109AB400002010BD0820FCE784260020E8260020B2
:109AC40000E100E000600040034B93F86A000030BE
:109AD40018BF0120704700BF84260020F7B53B4E15
:109AE4003318054693F93030002B6CDA8B78C3F3C6
:109AF4004003002B0BBF082400240C2008208442C0
:109B040002D1042003B0F0BD56F82470013743D1CC
:109B1400701946F8242080F8304013B9331983F8BB
:109B240058508B785A0717D4D80737D501A8019510
:109B3400FFF760FF019B00EB8300D0F8003723F0B0
:109B44000203C0F800372248EA0805F0070701239A
:109B5400BB40875C3B43835488780A7810F002004A
:109B640028D0A40004F1804404F5C0442D02D4F8A4
:109B7400103523F44F3323F44073C4F81035120422
:109B8400D4F8103505F47C5502F4403215431D43D6
:109B9400C4F810550020B5E70134B0E701A84A78AD
:109BA4000195FFF727FF019B03F5E073920040F84E
:109BB4002320C8E7083C344494F8605045EA8212F4
:109BC40084F860209EE708209CE700BF84260020DC
:109BD400E826002073B5224C2518064695F9302056
:109BE400072A19DD224492F858309B09032B0FD120
:109BF400019001A8FFF7FEFE019AD0F81035D3407A
:109C0400DB0707D402213046FFF700FF02B070BD26
:109C1400012BF7D00321F6E7D3B2072BF6D8930034
:109C240003F1804303F5C043D3F8100540F001006D
:109C3400C3F8100502F14000800080B2FFF7CEFEA9
:109C44000029E3D095F9303054F82330002BDDD0CF
:109C5400012303FA02F2034BC3F80423D6E700BF3F
:109C6400842600200060004007B5019001A8FFF79A
:109C7400C1FE019BD0F81005D84000F0010003B0EC
:109C84005DF804FB2DE9F04F002489B0CDE90244CE
:109C9400624D4FF48072012102F1804303F5C04309
:109CA40090B21B68012B06D1D5F804330B4202D0C5
:109CB400FFF794FE0C430432B2F5907F4FEA410162
:109CC400EAD1574B1B68012B0ED14FF4BE70FFF73E
:109CD40085FE4FF0A04344F00044D3F810350293BE
:109CE400504BD3F81035039314F0FF0F1AD04E4F96
:109CF40000250126344210D0AB0003F1804303F564
:109D0400C043D3F81005D3F8101557F8253023B104
:109D1400C1F30141C0F3052098470135082D4FEAEE
:109D24004606E7D1002C75DA0DF1100800230493E0
:109D3400C8F804304FF0FF33CDE90633DFF8E8A06C
:109D4400DFF8E89000273D4619F9014B631C48D021
:109D5400E4B2012324F0C00604F0070203FA02F27D
:109D6400F00808AB191811F8083C134239D00AEB73
:109D74000603A40993F930305AF823B0BBF1000F5D
:109D840008D1032C2DD118F800C04CEA020C08F8B5
:109D940000C001E0032CF6D001A80196FFF72AFECB
:109DA400019B11F8181C03F5E07C114250F82C00BB
:109DB400C0F3014005D0022813D1032C0BD1214656
:109DC40004E003280DD1032C05D102213046FFF70E
:109DD4001DFE0135EDB2BBF1000F02D02146304625
:109DE400D8470137042FAFD1A5B14FF0A043029952
:109DF400D3F8102503F540739142D3F8103502D1FE
:109E04000399994206D002920393049A059B069201
:109E1400079395E709B0BDE8F08F00BF00600040EC
:109E24007C6100400003005084260020E4260020CA
:109E3400014B1B68184700BFF02600200E4B9842C8
:109E440037B50D4602D0002003B030BD00230DF11C
:109E540007008DF80730FDF7C9FB084B1C7914B9CE
:109E640001221D601A719DF80700FDF7E3FB002C29
:109E7400E9D01120E8E700BF00200040F0260020D0
:109E8400034B984201BF034B00221A601A717047BA
:109E940000200040F02600200023435082B04358A5
:109EA4000193019B02B070470A4610B54FF48E71BE
:109EB400FFF7F2FF136A9168C95C136A01331362F6
:109EC400C0F81C1510BD8B690A4610B54FF4847197
:109ED40023B9FFF7E1FFD0F8183510BDFFF7DCFF19
:109EE400536AD168D0F81805C854536A01335362D1
:109EF400F3E700001FB501238DF80030044BCDE9D2
:109F04000110D3E900126846904705B05DF804FBE0
:109F1400F826002030B54C4AD2F8043313F4007FFD
:109F240085B015464FD0D2F82431002B4BD04FF4D6
:109F340092711046FFF7B0FF4FF40173C2F8083373
:109F4400424B93F8291009B9012151603E4902227C
:109F54008DF80020D1F88024C1F8802403929A69F6
:109F64000292DA6801920022C3E906226846D3E924
:109F7400001290473448D0F81C315BB133490A6A67
:109F84004B699A420A464BD291F82830002B47D1AC
:109F9400FFF78AFF2C4AD2F8443193B14FF4A271EF
:109FA4001046FFF779FF294B93F8291009B10121D5
:109FB40011609A692AB100229A61586AD968FFF738
:109FC40099FF05B030BDD5F804335B07D2D5D5F879
:109FD4000831002BCED01D4C1B482146FFF773FFE0
:109FE400636AA2699A422346C4D1E269E1684AB12C
:109FF4002369E3600023606AA261E3616362FFF79F
:10A0040079FFB7E794F829200AB901226A600E4A59
:10A014004FF40170C2F8080300229A61586AEEE70F
:10A024004FF48E710848FFF737FF51690029B1D00A
:10A034000023029191688DF80030019153616846C4
:10A04400D2E900139847A5E700200040F826002035
:10A054001F2886BF00F01F00044B4FF0A04300F5FB
:10A06400E070022243F82020704700BF0003005034
:10A074002DE9F843624F047991462C2202FB0472C5
:10A08400064692F82A200D46002A40F0B3805D4926
:10A094000068FFF7D3FE8046002840F0AE802968B0
:10A0A4004A1C10D01F2987BF01F01F03564A0B46D4
:10A0B4004FF0A0420120984003F5E073C2F8080570
:10A0C400032042F823006868431C0DD01F288BBF6F
:10A0D40000F01F0303464C4A4FF0A04203F5E0731F
:10A0E4004FF0000C42F823C03368AA6995F814C0F5
:10A0F400C3F824256A7DBCF1010F4CEA0202C3F8BF
:10A104006C25C3F81405C3F80C152BD1A968481C99
:10A114000DD01F298BBF01F01F020A463A484FF0A9
:10A12400A04002F5E0724FF0000C40F822C0E8684D
:10A13400421C13D01F2887BF00F01F0C324A8446EC
:10A144004FF0A0424FF0010E0EFA0CFE0CF5E07C2D
:10A15400C2F808E54FF0030E42F82CE0C3F80805F6
:10A16400C3F810152C236343FA18C2F804902A6923
:10A17400FA50B9F1000F2AD04FF48E7130682D7F58
:10A18400FFF78AFE30684FF4A271FFF785FE32684C
:10A194001E4BC2F80433120B51B20029A8BF01F1BF
:10A1A40060404FEA4513BABF194802F00F0500F5A5
:10A1B4006140DBB2B4BF435580F8003302F01F02A4
:10A1C400012303FA02F24909124B43F821203368B0
:10A1D4000422C3F800252C2303FB04730022C3E9E3
:10A1E400062283F829205A61012283F82A20404656
:10A1F400BDE8F8834FF00808F9E74FF01108F6E7D7
:10A20400F8260020199F020000030050800002007D
:10A2140014ED00E000E100E02DE9F0410368047969
:10A22400254D0022C3F800252C2202FB04520646C9
:10A23400526872B1214AC3F80823190B4AB20120AB
:10A24400520901F01F0100FA01F120321C4840F8C4
:10A254002210D3F80C05D3F81485D3F80815D3F8D5
:10A2640010754FF0FF329042C3F81425C3F80C2543
:10A27400C3F80825C3F8102501D0FFF7E9FEB8F1AB
:10A28400FF3F02D04046FFF7E3FE7A1C02D0384677
:10A29400FFF7DEFE4B1C02D00846FFF7D9FE3068FC
:10A2A400FFF7EEFD2C2303FB0454002384F82A302B
:10A2B4006360BDE8F08100BFF8260020840202003C
:10A2C40000E100E02DE9F047214F06794FF02C0919
:10A2D40009FB067480466569002D37D16261A1606F
:10A2E40025624FF48E71006884F82850FFF7D4FD7E
:10A2F400D8F80000012383602146FFF7D5FD636889
:10A30400A14693B9D8F800A0226A63699A4212D38D
:10A31400D8F80030D3F81C21002AFBD00122DA60DF
:10A324002C2303FB0676002373612846BDE8F087DF
:10A3340094F8283043B9DAF81C31002BF8D0494698
:10A344005046FFF7B1FDDFE70F25E9E71125ECE7FC
:10A35400F82600200023435082B043580193019B08
:10A3640002B070471FB501238DF80030044BCDE9CE
:10A374000110D3E900126846904705B05DF804FB6C
:10A38400242700207FB5374AD2F82461002E48D014
:10A3940010464FF49271FFF7DDFF02238DF8003071
:10A3A400D2F88034C2F880340393D2F83C35029357
:10A3B4002D4BDA6801920022C3E906226846D3E9EC
:10A3C40000129047274AD2F844317BB14FF4A2716E
:10A3D4001046FFF7BFFF244B996939B10021C3E947
:10A3E4000611D968D2F83C05FFF7BCFF1D4AD2F824
:10A3F4002031A3B14FF490711046FFF7ABFF1A4B15
:10A40400596961B1D2F84C150291002299688DF80E
:10A41400002001915A616846D3E90012904704B0C4
:10A4240070BDD2F81031002BCCD04FF48871104697
:10A43400FFF790FF0C4BD2F83C0599698842C1D1D3
:10A44400DC69D96864B1D2F8005225F02005C2F85D
:10A4540000521A699C61DA60DE61FFF783FFB1E79D
:10A464009C61FAE700200040242700201F2886BFB3
:10A4740000F01F00044B4FF0A04300F5E0700222EF
:10A4840043F82020704700BF000300502DE9F84333
:10A49400664F06799146242202FB0672044692F81E
:10A4A40020200D46002A40F0BB8061490068FFF778
:10A4B400C5FC8046002840F0B6802868421C10D0B5
:10A4C4001F2887BF00F01F035A4A03464FF0A042DB
:10A4D4000121994003F5E073C2F80815032142F8FD
:10A4E400231069684B1C0DD01F298BBF01F01F037B
:10A4F4000B46504A4FF0A04203F5E0734FF0000CB6
:10A5040042F823C02368AA6995F814C0C3F8242527
:10A514006A7DBCF1010F4CEA0202C3F86C25C3F852
:10A524000C05C3F814152BD1A968481C0DD01F299C
:10A534008BBF01F01F020A463E484FF0A04002F5CF
:10A54400E0724FF0000C40F822C0E868421C13D0BF
:10A554001F2887BF00F01F0C364A84464FF0A042E4
:10A564004FF0010E0EFA0CFE0CF5E07CC2F808E583
:10A574004FF0030E42F82CE0C3F80805C3F8101599
:10A5840024237343FA18C2F804902A69FA50B9F1E3
:10A59400000F34D04FF4887120682D7FFFF7DAFE66
:10A5A4004FF490712068FFF7D5FE4FF49271206844
:10A5B400FFF7D0FE20684FF4A271FFF7CBFE2268AC
:10A5C4001D4BC2F80433120B51B20029A8BF01F18C
:10A5D40060404FEA4513BABF184802F00F0500F572
:10A5E4006140DBB2B4BF435580F8003302F01F0270
:10A5F400012303FA02F24909114B43F8212023688D
:10A604000822C3F80025242303FB06730022C3E9B0
:10A6140006225A61012283F820204046BDE8F883CF
:10A624004FF00808F9E74FF01108F6E72427002057
:10A6340089A30200000300501003020014ED00E09F
:10A6440000E100E02DE9F04103680479254D002282
:10A65400C3F80025242202FB04520646526872B154
:10A66400214AC3F80823190B4AB20120520901F008
:10A674001F0100FA01F120321C4840F82210D3F8DF
:10A684000C05D3F81485D3F80815D3F810754FF0DA
:10A69400FF329042C3F80C25C3F81425C3F80825EB
:10A6A400C3F8102501D0FFF7E1FEB8F1FF3F02D057
:10A6B4004046FFF7DBFE7A1C02D03846FFF7D6FE91
:10A6C4004B1C02D00846FFF7D1FE3068FFF7D8FBD9
:10A6D400242303FB0454002384F820306360BDE882
:10A6E400F08100BF242700201003020000E100E0F5
:10A6F40001F06043B3F1005F2DE9F041074632D128
:10A704001B4B0679242505FB063598466C6964BB0A
:10A714006A61A96000684FF49071FFF71BFE4FF463
:10A72400AC713868FFF716FE3B686A69A968C3F81C
:10A734004415C3F8482501229A606A6862B9D3F8BF
:10A744002021D3F8584152B9002CF8D00F242423E7
:10A7540003FB0686002373612046BDE8F081002CCC
:10A7640018BF0F24F3E71024F6E71124F4E700BF21
:10A77400242700200220FEF773BF00002DE9F047D4
:10A7840081460D46FEF79AFF0328044604D8012D9E
:10A7940004D025B3022D2FD0BDE8F087194D470012
:10A7A4003A18A918AE5C4A7852B1DFF868801648A6
:10A7B40042464FF40041FCF7C3FE08B988F8009004
:10A7C4003B192B449A78114B1A55002EE4D0104BA8
:10A7D4001B68002BE0D03046BDE8F04718470A4814
:10A7E400FCF7F4FE074B04EB440213449E78074B3A
:10A7F4001B5DB342D0D1E8E7024B00EB40041C449C
:10A804006678E2E7AC2700206C270020C5270020EB
:10A81400C02700204827002002210078FFF7AEBFA0
:10A8240008B5094B1B7853B10020FEF7E7FE012061
:10A83400FEF7E4FE0320BDE80840FEF7DFBEBDE8F6
:10A844000840FEF7EFBE00BF49270020F8B57B4C57
:10A85400237805461BB100232370FFF7E1FF172D72
:10A8640000F28880DFE805F00C1717435465768002
:10A87400888D888D959A9A9A9A9AC4C9D1D9E4E414
:10A88400FFF7CEFF6E48FCF7A1FE6E4B0022044694
:10A894001A702046F8BD0020FEF788FEF8B10020AB
:10A8A400FEF7ACFE022D0CBF4FF4E1614FF47A6168
:10A8B400644B1D704FF400404FF4FA740025E0FB24
:10A8C40001454FF47A7200232046294605F0E2F848
:10A8D400002201465A48BDE8F840FCF731BEFEF7B5
:10A8E40079FE022D0CBFC8214FF4C871E0E70020A7
:10A8F400FEF75CFE40B10020FEF780FE4FF4487185
:10A90400504B03221A70D5E7FEF764FEC821F7E71F
:10A914000020FEF74BFE38B10020FEF76FFE4FF427
:10A924007A61484B0422EDE7FEF754FE4FF4C871F8
:10A93400F7E70020FEF73AFE48B10020FEF75EFE7E
:10A94400404B05221A7041F69A110022C2E7FEF725
:10A9540041FEF5E70020FEF783FE3A4B06221A700B
:10A96400002240F6CD41B5E70020FEF733FE354B1B
:10A9740007221A7000248CE701202070FEF770FE75
:10A98400EEE701202070FEF76BFE00224FF48041B9
:10A99400A0E7FEF756FE2B4B0C22EAE72A482B4E83
:10A9A400FCF714FED5F1110504461CD0D8B9012DCD
:10A9B40013D0C8235D434FF400474FF4FA700021CD
:10A9C4004FF47A720023C7FB050105F063F82246B1
:10A9D40001461D48FCF7B4FD04460220FEF7FAFDCB
:10A9E4000123337055E70220FEF708FE0023F8E741
:10A9F400FFF716FF134B1222BBE7FFF711FF0020EE
:10AA0400FEF7E8FD0F4B1322B3E7FFF709FF012020
:10AA1400FEF7E0FD0B4B1422ABE7FFF701FF00202C
:10AA2400FEF7D8FD0120FEF7D5FD064B1522A0E761
:10AA3400FEF707FE034B1D709CE700BFBC270020F8
:10AA44008C270020C42700204C2700204927002001
:10AA5400044B1B68DB0703D5034B1878FFF7F6BEDE
:10AA6400704700BFB8270020C4270020002910B574
:10AA740014BF03240024FEF733FE1F288ABF0A4BA9
:10AA84004FF0A04300F01F0003EB8000D0F8002734
:10AA940022F44032C0F80027D0F8003743EA0443D8
:10AAA400C0F80037002010BD00030050032801D86F
:10AAB400FEF7F0BD00207047044B1B6813F0010340
:10AAC40001D0FFF7C3BE1846704700BFB827002067
:10AAD40038B51C4B18601C4B10F002040546196075
:10AAE4001AD01A4B1A480E221A700F22DA7010224A
:10AAF4009A7111225A72042140F26662FCF71CFA20
:10AB0400044648B9FCF76CFA044628B90146114AD0
:10AB14001148FCF703FD0446EB0711D50120FEF7AD
:10AB2400E5FD6CB921460D4A0D48FCF7F7FC0446D7
:10AB340030B90C4A0C480121BDE83840FCF7EEBCA2
:10AB4400204638BDB8270020C0270020AC270020AD
:10AB54000C0803001DA802003008030055AA0200D7
:10AB64003408030079A702002C080300032813D833
:10AB7400012A0BD1012908D100F10E02D2B200EB57
:10AB840040000C4B1A540020704700220129F6D0D3
:10AB94004BB24BB1022901D007207047054B00EBA3
:10ABA400400018444270EEE7024900EB40000844BC
:10ABB4008270E8E7AC270020032802D80121FFF7C0
:10ABC40055BF0620704708B5012202210020FFF777
:10ABD400CDFF08B1072810D1072202210120FFF779
:10ABE400C5FF08B1072808D100210A220846FFF74B
:10ABF400BDFF10B1072808BF002008BD0388102B33
:10AC040010B502D0112B1ED010BD1A4C2168B1B959
:10AC140001220846FFF7AAFF08B1072824D107221A
:10AC240002210120FFF7A2FF08B107281CD104224A
:10AC340002210020FFF79AFF08B1072814D12368E6
:10AC440001332360E0E70B4A1368013B1360002BD8
:10AC5400DAD1FFF7B8FF0028D6D0074B1B68002BCA
:10AC6400D2D0BDE810401847034B1B68002BE6D038
:10AC74009847E4E7D0270020CC27002008B500201F
:10AC8400FFF79AFF08B1062806D10120FFF794FFC9
:10AC940010B1062808BF002008BD00000D4B10B5F8
:10ACA40018600C4629B10120FFF700FF40B10223D0
:10ACB4002370094B1B6853B9BDE81040FFF783BFED
:10ACC400FFF7F4FE08B10B23F2E72070F1E7002050
:10ACD40010BD00BFCC270020D027002075DF7047AF
:10ACE40076DF70478FDF704710B504460020FFF70A
:10ACF400E3FE08B1FCF78AF924B9FFF7BFFF08B1F6
:10AD0400FCF784F9012010BD08B50020FEF724F8F3
:10AD140018B10A4B01221A7008BD0949094802F00A
:10AD240083F808B1FCF772F9064802F03DF80028F0
:10AD3400F2D0BDE80840FCF769B900BFEC27002059
:10AD4400E6080300F027002013B5044603F064FD71
:10AD540023881F2B3CD015D8112B43D01B2B29D073
:10AD6400102B0DD1314BA2881A800720FFF7A4FEC7
:10AD740008B1FCF74BF900F0BDFB08B9FFF7C4FFBD
:10AD840002B010BD3B2B3AD0562B47D0212BF7D124
:10AD9400274B28482849C01AC008000440F0040082
:10ADA400FBF77EFE002301A9A088ADF80430FFF76D
:10ADB40099FF12E0237A022BE2D11D4B1D481F4953
:10ADC400C01AC008000440F00400FBF769FED7E78E
:10ADD40004F10801A088FFF781FF0028D0D0FCF718
:10ADE40015F9CDE7124B1348A2881549C01AC008BB
:10ADF4000004237A40F00300FBF75FFEBBE70D4835
:10AE04000B4B1049C01AC008000440F00400FBF7C3
:10AE140047FE1321A088FFF763FFDEE70548044BD4
:10AE24000949C01AC0080004EFE700BFD427002076
:10AE34004CFE020074FE0200880803003C08030074
:10AE44005A0803009C080300B108030010B5044627
:10AE540003F096FC204603F0B7FC204603F07CFA8E
:10AE640023780C2B03D1BDE81040FFF74DBF10BD74
:10AE7400043810B50C2832D8DFE800F00C31311852
:10AE840031310731313131312D000020BDE810401E
:10AE9400FEF7FEB9124B13211888FFF721FF30F09B
:10AEA40008031CD0BDE81040FCF7B0B80D4C237863
:10AEB400ABB90D4B0D480E49C01AC008000440F050
:10AEC4000300FBF7EDFD0123237001F00EFFBDE845
:10AED4001040FFF719BFBDE8104002F03FBF10BD9E
:10AEE400D42700206C2800204CFE020074FE0200CF
:10AEF400C60803000238012806D8044B1A781AB190
:10AF040000221A70FFF700BF704700BFEC27002033
:10AF14007FB510224FF6FF71684604F0E4FE4FF649
:10AF2400FF7002F085FF6D4600244FF6FF76B042B5
:10AF340011D12146684602F019FF08B1FCF766F802
:10AF44002146684602F034FF062802D008B1FCF717
:10AF54005DF804B070BD082CEBD0013425F8020B69
:10AF640002F066FFE3E7000010B50378042BB0B0ED
:10AF740040D0062B38D0012B34D13822002102A82E
:10AF840004F0B1FE8022002110A804F0ACFE0823D6
:10AF9400CDE90033FFF7BCFF01AB10AA694602A854
:10AFA40002F0EEFEDDE900231343194C01D02378AF
:10AFB40033B10021174801F037FF08B1FCF726F838
:10AFC400154B16481649C01AC008000440F0030087
:10AFD400FBF766FD0120FFF76FFD08B1FCF716F8DB
:10AFE4000023237030B010BD40680028FAD0FCF76D
:10AFF4000DF8F7E7084B09480A49C01AC0080004CD
:10B0040040F00300FBF74CFDFFF77EFEEAE700BFCC
:10B014006C280020F02700204CFE020074FE020081
:10B024001E0903002D09030008B5037883B10B4BF7
:10B034000B480C49C01AC008000440F00300FBF799
:10B044002FFD02F013FF38B1BDE80840FBF7DEBF67
:10B05400BDE80840FFF758BE08BD00BF4CFE020023
:10B0640074FE02003D0903001FB54FF400410020A7
:10B07400FBF752FB08B1FBF7C9FFFBF783FAFCF7B8
:10B084001DFA08B1FBF7C2FF4E490320FFF720FD6C
:10B0940008B1FBF7BBFF69460020FFF7FFFD08B1CD
:10B0A400FBF7B4FF9DF800309A1E53425341464AC1
:10B0B4001370FEF7B1F808B1FBF7A8FF04F006FB24
:10B0C40008B1FBF7A3FF002369460120009304F0B5
:10B0D400C5FB08B1FBF79AFF684604F071FC08B1A0
:10B0E400FBF794FF0021394801F060FB08B1FBF73E
:10B0F4008DFF02F081FD08B1FBF788FF05220021D6
:10B10400684604F0F0FD009B03F07C42304B13438F
:10B1140000939DF8043023F0030343F003036846CF
:10B124008DF8043002F002FE08B1FBF76FFF2948E6
:10B1340002F0E4FD08B1FBF769FF10220021684624
:10B1440004F0D1FD244B0093244A25480123694689
:10B154008DF804308DF80C3001F0C9FD08B1FBF70F
:10B1640055FF204B204A1868009000211C4801F02C
:10B17400C3FC08B1FBF74AFF6A460321184801F0F3
:10B18400BBFC08B1FBF742FF00220521144801F083
:10B1940089FD08B1FBF73AFFFFF7BAFE134B1448D9
:10B1A4001449C01AC008000440F00300FBF778FCFF
:10B1B4000548FFF739FFFBF709FB0028FBD1FEF731
:10B1C40041F8F8E775AE0200D6270020D827002002
:10B1D4003107100351AE0200E60803006DAF020010
:10B1E400F027002038080300F40803004CFE020096
:10B1F40074FE02000109030064DF704770B5C0B13A
:10B204004AB116880024B44203D305196D789D42CF
:10B2140008D0A14201D800200BE0055D01352C4483
:10B22400A4B2F0E7A142F6D9A31C1380005D013853
:10B2340080B270BDF7B500230746ADF8063014465A
:10B2440012B9002003B0F0BD09230DF10602FFF787
:10B25400D5FFBDF806500646002DF2D00028F0D0E8
:10B26400204604F09AFDB0420246EAD179192046FC
:10B2740004F0D5FCB0FA80F04009E3E7F0B587B0FC
:10B28400002306460D461046ADF8063002AA1023E8
:10B294000DF105018DF80530FFF7AEFF16B900205A
:10B2A40007B0F0BD0028FAD19DF80540042C2BD03E
:10B2B400102C2BD0022CF3D10323BDF806207AB92D
:10B2C4000DF1060229463046FFF798FFBDF8063017
:10B2D4002BB923460DF106023046FFF78FFF0546D2
:10B2E400BDF80670002FDAD00024A542D7D9E019A2
:10B2F4009DF8052002A9304404F091FC48B19DF862
:10B3040005301C44A4B2F0E70523D6E7062407233E
:10B31400D3E70120C4E7F7B5174601900E4691B173
:10B32400019C6CB100252C46294601A8FDF730F993
:10B3340018B13946A8B2B04701340135142DF3D100
:10B34400204603B0F0BD0C46FAE773B50191019CA9
:10B3540006466CB100252C46294601A8FDF718F9CC
:10B3640018B106EB440301349D800135142DF3D14B
:10B374003046346002B070BD2DE9F04703888488FC
:10B38400112B8CB006463CD01A2B3FD0102B17D172
:10B39400274DAB68DB43009369686846FDF759F9AC
:10B3A400009901A8FFF7D1FF0DF108094FF000083B
:10B3B400019B984507D3132C13D90420FBF726FED1
:10B3C4000CB0BDE8F08739F802AB002701375146CD
:10B3D40005EB8700FDF7D2F81D2FF7D108F101081E
:10B3E400E6E721461348FDF7B2F821461248FDF777
:10B3F400AEF8F37B012BE3D010482146FDF7A7F804
:10B40400DEE70C482146FDF7B9F8D9E7057A0C4880
:10B414002D09012D214606D9FDF799F8022D214663
:10B424000848F0D0EAE7FDF7A9F821460548EAE71D
:10B434007028002078280020742800207C28002010
:10B44400802800208428002037B500240190254658
:10B45400214601A8FDF79CF800B101350134142CF4
:10B46400F6D1284603B030BD1328014602D802485D
:10B47400FDF78EB8002070477428002010B50446EC
:10B48400FFF7F2FF38B121460348FDF781F80028A1
:10B4940014BF0220012010BD7C28002010B50446F2
:10B4A400FFF7E2FF38B121460348FDF771F80028A1
:10B4B40014BF0220012010BD7828002010B50446D6
:10B4C400FFF7D2FF28B121460248BDE81040FDF73E
:10B4D4005FB810BD8028002010B50446FFF7C4FFF4
:10B4E40028B121460248BDE81040FDF751B810BD0F
:10B4F4008428002007B5064BDA680192996801A8F0
:10B50400FDF7A7F80198FFF79FFF03B05DF804FB70
:10B514007028002010B5034B04465968FFF715FF47
:10B52400204610BD7028002008B518210248FDF7F8
:10B5340038F8C0B208BD00BF7028002070B50A4DAD
:10B54400064628460C46FDF723F858B13046FFF767
:10B554008BFF38B1A01D314605EB8000BDE870407B
:10B56400FDF716B8002070BD70280020F8B50D4C0A
:10B57400054620460E461746FDF70AF880B12846D0
:10B58400FFF772FF60B1B01D04EB800029461FB1C4
:10B59400BDE8F840FCF7DBBFBDE8F840FCF7EEBFC0
:10B5A400F8BD00BF70280020F8B50A4C05460E46C9
:10B5B400014620461746FCF7EBFF48B1043504EB7F
:10B5C40085043A46A0683146BDE8F840FFF7A3BEBB
:10B5D400F8BD00BF70280020A0DF7047A1DF7047CE
:10B5E400ADDF7047B3DF7047024B03491878002280
:10B5F400FFF7DABFF1280020F9B6020010B50446BF
:10B60400408800F037FEA0802046BDE8104002F0DC
:10B61400EDBA30B587B005460C46182200216846BD
:10B6240004F061FB072368468DF80030ADF8025042
:10B634000294FFF7E3FF07B030BD000070B586B099
:10B64400054618220021684604F04DFB4FF6FF73AF
:10B654009D42ADF802503FD0284600F083FC0B28F1
:10B66400044624D014D8D8B12046FDF7A9FE1B4EB9
:10B674001B4B1C49F61AF608360402462B4646F0C4
:10B684000100FBF71AFA21462846FFF7C2FF05E03E
:10B6940011281BD043F202039842E5D1002216E0A0
:10B6A4000E238DF800306846FFF7A8FFF6E70F2356
:10B6B4008DF8003009480A4B0B49C01AC008000431
:10B6C4002A4640F00200FBF7EFF9ECE70122074BB2
:10B6D40028461978FFF74AFF06B070BDBCFE020089
:10B6E4004CFE0200670B0300E70A0300EF2800206A
:10B6F400FFF7A4BF2DE9F0474E4C88B021780546EA
:10B70400FFF71CFFA0460746002840F08C8028461F
:10B7140000F09AFC0828044632D016D808B306284C
:10B724006AD02046FDF74CFE434E444B4449F61A7A
:10B73400F608360402462B4646F00100FBF7BDF935
:10B7440021462846FFF765FF09E043F202039842C9
:10B7540005D043F20143984268D01128E1D1012475
:10B7640055E03946182202A804F0BDFA102302A8B5
:10B774008DF80830ADF80A500127FFF73FFFEEE7D8
:10B7840001A8FFF72FFF3C4601264FF002090DF1F7
:10B79400060ABDF80430B34201D805201FE002AA0E
:10B7A40031462846CDE9029AFFF71AFFB8B9BDF829
:10B7B4000630013634B942F605241B1B5C425C4159
:10B7C400B6B2E6E742F602129342F9D10DF1020352
:10B7D40002AAB1B228460393FFF702FF98B1FDF71E
:10B7E400EFFD164A144B17499B1ADB081B0402464B
:10B7F40043F00400FBF758F9284600F03BFD00F045
:10B804004FFC002403E0BDF80230002BF4D00E4BB3
:10B81400224619782846FFF7A9FE3A4698F8001000
:10B824002846FFF7A3FE08B0BDE8F0872846FFF7D7
:10B8340005FF94E7F2280020BCFE02004CFE020043
:10B84400F30B0300B80B0300F128002013B50446E2
:10B8540000F010FD00236A46092101F09DFD052832
:10B8640005D1044B012219782046FFF77FFE02B070
:10B8740010BD00BFED28002008B5084B0849187812
:10B884000022FFF791FE024630B9064B06491878AC
:10B89400BDE80840FFF788BE08BD00BFF0280020BF
:10B8A400F9B80200ED280020B1B8020037B504460B
:10B8B40004220021684604F016FA42F6A623ADF8E5
:10B8C40000300A4B18680190012501AA69462046F8
:10B8D4008DF80250FFF780FE28B9054B2A461978E7
:10B8E4002046FFF743FE03B030BD00BF4A09030002
:10B8F400EC28002070B5012186B006462B48FCF7E1
:10B904007DFE0446BFF35F8F002849D1304600F026
:10B91400CDFA1128054638D016D8002842D028463A
:10B92400FDF74EFD224C234B2349E41AE40824047A
:10B934000246334644F00100FBF7BFF8294630467F
:10B94400FFF767FE002405E0862805D043F20203D2
:10B954009842E4D1224619E021461822684604F0B0
:10B96400C2F906238DF800301148124B1349ADF883
:10B974000260C01AC0080004324640F00200FBF71F
:10B9840093F86846FFF73AFEE4E701220C4B304691
:10B994001978FFF7EBFD1CB9BFF35F8F034B1C60F5
:10B9A40006B070BD01240246F0E700BFE82800207D
:10B9B400BCFE02004CFE02008D090300580903007E
:10B9C400F028002038B503780446A3B94088FFF76F
:10B9D40035FE6588284600F025FB28B1064B012278
:10B9E40019782846FFF7C2FD6088FFF72FFFBDE8EE
:10B9F4003840FFF741BF38BDF12800200378082BF9
:10BA040037B5044630D1427A72BB057A072D1BD074
:10BA1400082D2DD0012D27D16A462946808801F0B2
:10BA24003BFF08BB019B1B78F3B1A08800F050FCDE
:10BA34004FF6FF73984217D0114B2A461978FFF737
:10BA440095FDFFF7D1FD0FE0808800F041FC4FF633
:10BA5400FF739842044607D00A4B01221978FFF776
:10BA640085FD2046FFF7F2FEFFF706FF03B030BD69
:10BA7400054B19680129F7D1BFF35F8F1A60F3E70B
:10BA8400F1280020F0280020E82800202DE9F843C0
:10BA9400FFF74AFDDFF8B090DFF8B08089F80000C6
:10BAA400FFF742FD88F80000FFF73EFD1D4F1E4ED4
:10BAB4003870FFF739FD3070FFF736FD1B4D1C4C15
:10BAC4002870FFF731FD2070FFF72EFD194B187019
